{
  "_format": "hh-sol-artifact-1",
  "contractName": "DynamicNFT",
  "sourceName": "contracts/DynamicNFT.sol",
  "abi": [
    {
      "inputs": [
        {
          "internalType": "address",
          "name": "priceFeedAddress",
          "type": "address"
        },
        {
          "internalType": "string",
          "name": "lowSVG",
          "type": "string"
        },
        {
          "internalType": "string",
          "name": "highSVG",
          "type": "string"
        }
      ],
      "stateMutability": "nonpayable",
      "type": "constructor"
    },
    {
      "inputs": [],
      "name": "DynamicNFT__URIQueryForNonExistentToken",
      "type": "error"
    },
    {
      "anonymous": false,
      "inputs": [
        {
          "indexed": true,
          "internalType": "address",
          "name": "owner",
          "type": "address"
        },
        {
          "indexed": true,
          "internalType": "address",
          "name": "approved",
          "type": "address"
        },
        {
          "indexed": true,
          "internalType": "uint256",
          "name": "tokenId",
          "type": "uint256"
        }
      ],
      "name": "Approval",
      "type": "event"
    },
    {
      "anonymous": false,
      "inputs": [
        {
          "indexed": true,
          "internalType": "address",
          "name": "owner",
          "type": "address"
        },
        {
          "indexed": true,
          "internalType": "address",
          "name": "operator",
          "type": "address"
        },
        {
          "indexed": false,
          "internalType": "bool",
          "name": "approved",
          "type": "bool"
        }
      ],
      "name": "ApprovalForAll",
      "type": "event"
    },
    {
      "anonymous": false,
      "inputs": [
        {
          "indexed": true,
          "internalType": "uint256",
          "name": "tokenId",
          "type": "uint256"
        },
        {
          "indexed": false,
          "internalType": "int256",
          "name": "highValue",
          "type": "int256"
        }
      ],
      "name": "CreatedNFT",
      "type": "event"
    },
    {
      "anonymous": false,
      "inputs": [
        {
          "indexed": true,
          "internalType": "address",
          "name": "from",
          "type": "address"
        },
        {
          "indexed": true,
          "internalType": "address",
          "name": "to",
          "type": "address"
        },
        {
          "indexed": true,
          "internalType": "uint256",
          "name": "tokenId",
          "type": "uint256"
        }
      ],
      "name": "Transfer",
      "type": "event"
    },
    {
      "inputs": [
        {
          "internalType": "address",
          "name": "to",
          "type": "address"
        },
        {
          "internalType": "uint256",
          "name": "tokenId",
          "type": "uint256"
        }
      ],
      "name": "approve",
      "outputs": [],
      "stateMutability": "nonpayable",
      "type": "function"
    },
    {
      "inputs": [
        {
          "internalType": "address",
          "name": "owner",
          "type": "address"
        }
      ],
      "name": "balanceOf",
      "outputs": [
        {
          "internalType": "uint256",
          "name": "",
          "type": "uint256"
        }
      ],
      "stateMutability": "view",
      "type": "function"
    },
    {
      "inputs": [
        {
          "internalType": "string",
          "name": "anySVG",
          "type": "string"
        }
      ],
      "name": "convertSVGToImageURI",
      "outputs": [
        {
          "internalType": "string",
          "name": "",
          "type": "string"
        }
      ],
      "stateMutability": "pure",
      "type": "function"
    },
    {
      "inputs": [
        {
          "internalType": "uint256",
          "name": "tokenId",
          "type": "uint256"
        }
      ],
      "name": "getApproved",
      "outputs": [
        {
          "internalType": "address",
          "name": "",
          "type": "address"
        }
      ],
      "stateMutability": "view",
      "type": "function"
    },
    {
      "inputs": [
        {
          "internalType": "address",
          "name": "owner",
          "type": "address"
        },
        {
          "internalType": "address",
          "name": "operator",
          "type": "address"
        }
      ],
      "name": "isApprovedForAll",
      "outputs": [
        {
          "internalType": "bool",
          "name": "",
          "type": "bool"
        }
      ],
      "stateMutability": "view",
      "type": "function"
    },
    {
      "inputs": [
        {
          "internalType": "int256",
          "name": "highValue",
          "type": "int256"
        }
      ],
      "name": "mintNFT",
      "outputs": [],
      "stateMutability": "nonpayable",
      "type": "function"
    },
    {
      "inputs": [],
      "name": "name",
      "outputs": [
        {
          "internalType": "string",
          "name": "",
          "type": "string"
        }
      ],
      "stateMutability": "view",
      "type": "function"
    },
    {
      "inputs": [
        {
          "internalType": "uint256",
          "name": "tokenId",
          "type": "uint256"
        }
      ],
      "name": "ownerOf",
      "outputs": [
        {
          "internalType": "address",
          "name": "",
          "type": "address"
        }
      ],
      "stateMutability": "view",
      "type": "function"
    },
    {
      "inputs": [
        {
          "internalType": "uint256",
          "name": "",
          "type": "uint256"
        }
      ],
      "name": "s_tokenIdToHighValue",
      "outputs": [
        {
          "internalType": "int256",
          "name": "",
          "type": "int256"
        }
      ],
      "stateMutability": "view",
      "type": "function"
    },
    {
      "inputs": [
        {
          "internalType": "address",
          "name": "from",
          "type": "address"
        },
        {
          "internalType": "address",
          "name": "to",
          "type": "address"
        },
        {
          "internalType": "uint256",
          "name": "tokenId",
          "type": "uint256"
        }
      ],
      "name": "safeTransferFrom",
      "outputs": [],
      "stateMutability": "nonpayable",
      "type": "function"
    },
    {
      "inputs": [
        {
          "internalType": "address",
          "name": "from",
          "type": "address"
        },
        {
          "internalType": "address",
          "name": "to",
          "type": "address"
        },
        {
          "internalType": "uint256",
          "name": "tokenId",
          "type": "uint256"
        },
        {
          "internalType": "bytes",
          "name": "data",
          "type": "bytes"
        }
      ],
      "name": "safeTransferFrom",
      "outputs": [],
      "stateMutability": "nonpayable",
      "type": "function"
    },
    {
      "inputs": [
        {
          "internalType": "address",
          "name": "operator",
          "type": "address"
        },
        {
          "internalType": "bool",
          "name": "approved",
          "type": "bool"
        }
      ],
      "name": "setApprovalForAll",
      "outputs": [],
      "stateMutability": "nonpayable",
      "type": "function"
    },
    {
      "inputs": [
        {
          "internalType": "bytes4",
          "name": "interfaceId",
          "type": "bytes4"
        }
      ],
      "name": "supportsInterface",
      "outputs": [
        {
          "internalType": "bool",
          "name": "",
          "type": "bool"
        }
      ],
      "stateMutability": "view",
      "type": "function"
    },
    {
      "inputs": [],
      "name": "symbol",
      "outputs": [
        {
          "internalType": "string",
          "name": "",
          "type": "string"
        }
      ],
      "stateMutability": "view",
      "type": "function"
    },
    {
      "inputs": [
        {
          "internalType": "uint256",
          "name": "tokenId",
          "type": "uint256"
        }
      ],
      "name": "tokenURI",
      "outputs": [
        {
          "internalType": "string",
          "name": "",
          "type": "string"
        }
      ],
      "stateMutability": "view",
      "type": "function"
    },
    {
      "inputs": [
        {
          "internalType": "address",
          "name": "from",
          "type": "address"
        },
        {
          "internalType": "address",
          "name": "to",
          "type": "address"
        },
        {
          "internalType": "uint256",
          "name": "tokenId",
          "type": "uint256"
        }
      ],
      "name": "transferFrom",
      "outputs": [],
      "stateMutability": "nonpayable",
      "type": "function"
    }
  ],
  "bytecode": "0x60a06040523480156200001157600080fd5b50604051620038903803806200389083398181016040528101906200003791906200057f565b6040518060400160405280601681526020017f44796e616d6963204e465420436f6c6c656374696f6e000000000000000000008152506040518060400160405280600381526020017f444e4300000000000000000000000000000000000000000000000000000000008152508160009081620000b4919062000864565b508060019081620000c6919062000864565b5050506000600681905550620000e2826200015260201b60201c565b60079081620000f2919062000864565b5062000104816200015260201b60201c565b6008908162000114919062000864565b508273ffffffffffffffffffffffffffffffffffffffff1660808173ffffffffffffffffffffffffffffffffffffffff168152505050505062000b22565b606060006200018d836040516020016200016d91906200098d565b604051602081830303815290604052620001f060201b62000d4e1760201c565b90506040518060400160405280601a81526020017f646174613a696d6167652f7376672b786d6c3b6261736536342c00000000000081525081604051602001620001d9929190620009a6565b604051602081830303815290604052915050919050565b60606000825103620002145760405180602001604052806000815250905062000378565b6000604051806060016040528060408152602001620038506040913990506000600360028551620002469190620009fd565b62000252919062000a89565b600462000260919062000ac1565b90506000602082620002739190620009fd565b67ffffffffffffffff8111156200028f576200028e62000411565b5b6040519080825280601f01601f191660200182016040528015620002c25781602001600182028036833780820191505090505b509050818152600183018586518101602084015b8183101562000333576003830192508251603f8160121c168501518253600182019150603f81600c1c168501518253600182019150603f8160061c168501518253600182019150603f8116850151825360018201915050620002d6565b60038951066001811462000350576002811462000361576200036c565b613d3d60f01b60028303526200036c565b603d60f81b60018303525b50505050508093505050505b919050565b6000604051905090565b600080fd5b600080fd5b600073ffffffffffffffffffffffffffffffffffffffff82169050919050565b6000620003be8262000391565b9050919050565b620003d081620003b1565b8114620003dc57600080fd5b50565b600081519050620003f081620003c5565b92915050565b600080fd5b600080fd5b6000601f19601f8301169050919050565b7f4e487b7100000000000000000000000000000000000000000000000000000000600052604160045260246000fd5b6200044b8262000400565b810181811067ffffffffffffffff821117156200046d576200046c62000411565b5b80604052505050565b6000620004826200037d565b905062000490828262000440565b919050565b600067ffffffffffffffff821115620004b357620004b262000411565b5b620004be8262000400565b9050602081019050919050565b60005b83811015620004eb578082015181840152602081019050620004ce565b83811115620004fb576000848401525b50505050565b600062000518620005128462000495565b62000476565b905082815260208101848484011115620005375762000536620003fb565b5b62000544848285620004cb565b509392505050565b600082601f830112620005645762000563620003f6565b5b81516200057684826020860162000501565b91505092915050565b6000806000606084860312156200059b576200059a62000387565b5b6000620005ab86828701620003df565b935050602084015167ffffffffffffffff811115620005cf57620005ce6200038c565b5b620005dd868287016200054c565b925050604084015167ffffffffffffffff8111156200060157620006006200038c565b5b6200060f868287016200054c565b9150509250925092565b600081519050919050565b7f4e487b7100000000000000000000000000000000000000000000000000000000600052602260045260246000fd5b600060028204905060018216806200066c57607f821691505b60208210810362000682576200068162000624565b5b50919050565b60008190508160005260206000209050919050565b60006020601f8301049050919050565b600082821b905092915050565b600060088302620006ec7fffffffffffffffffffffffffffffffffffffffffffffffffffffffffffffffff82620006ad565b620006f88683620006ad565b95508019841693508086168417925050509392505050565b6000819050919050565b6000819050919050565b6000620007456200073f620007398462000710565b6200071a565b62000710565b9050919050565b6000819050919050565b620007618362000724565b6200077962000770826200074c565b848454620006ba565b825550505050565b600090565b6200079062000781565b6200079d81848462000756565b505050565b5b81811015620007c557620007b960008262000786565b600181019050620007a3565b5050565b601f8211156200081457620007de8162000688565b620007e9846200069d565b81016020851015620007f9578190505b6200081162000808856200069d565b830182620007a2565b50505b505050565b600082821c905092915050565b6000620008396000198460080262000819565b1980831691505092915050565b600062000854838362000826565b9150826002028217905092915050565b6200086f8262000619565b67ffffffffffffffff8111156200088b576200088a62000411565b5b62000897825462000653565b620008a4828285620007c9565b600060209050601f831160018114620008dc5760008415620008c7578287015190505b620008d3858262000846565b86555062000943565b601f198416620008ec8662000688565b60005b828110156200091657848901518255600182019150602085019450602081019050620008ef565b8683101562000936578489015162000932601f89168262000826565b8355505b6001600288020188555050505b505050505050565b600081905092915050565b6000620009638262000619565b6200096f81856200094b565b935062000981818560208601620004cb565b80840191505092915050565b60006200099b828462000956565b915081905092915050565b6000620009b4828562000956565b9150620009c2828462000956565b91508190509392505050565b7f4e487b7100000000000000000000000000000000000000000000000000000000600052601160045260246000fd5b600062000a0a8262000710565b915062000a178362000710565b9250827fffffffffffffffffffffffffffffffffffffffffffffffffffffffffffffffff0382111562000a4f5762000a4e620009ce565b5b828201905092915050565b7f4e487b7100000000000000000000000000000000000000000000000000000000600052601260045260246000fd5b600062000a968262000710565b915062000aa38362000710565b92508262000ab65762000ab562000a5a565b5b828204905092915050565b600062000ace8262000710565b915062000adb8362000710565b9250817fffffffffffffffffffffffffffffffffffffffffffffffffffffffffffffffff048311821515161562000b175762000b16620009ce565b5b828202905092915050565b608051612d1262000b3e60003960006109fe0152612d126000f3fe608060405234801561001057600080fd5b50600436106101005760003560e01c806395d89b4111610097578063c87b56dd11610066578063c87b56dd146102bd578063e2ed50cb146102ed578063e425aded14610309578063e985e9c51461033957610100565b806395d89b4114610237578063a22cb46514610255578063a2e66ee914610271578063b88d4fde146102a157610100565b806323b872dd116100d357806323b872dd1461019f57806342842e0e146101bb5780636352211e146101d757806370a082311461020757610100565b806301ffc9a71461010557806306fdde0314610135578063081812fc14610153578063095ea7b314610183575b600080fd5b61011f600480360381019061011a9190611a1a565b610369565b60405161012c9190611a62565b60405180910390f35b61013d61044b565b60405161014a9190611b16565b60405180910390f35b61016d60048036038101906101689190611b6e565b6104dd565b60405161017a9190611bdc565b60405180910390f35b61019d60048036038101906101989190611c23565b610523565b005b6101b960048036038101906101b49190611c63565b61063a565b005b6101d560048036038101906101d09190611c63565b61069a565b005b6101f160048036038101906101ec9190611b6e565b6106ba565b6040516101fe9190611bdc565b60405180910390f35b610221600480360381019061021c9190611cb6565b61076b565b60405161022e9190611cf2565b60405180910390f35b61023f610822565b60405161024c9190611b16565b60405180910390f35b61026f600480360381019061026a9190611d39565b6108b4565b005b61028b60048036038101906102869190611eae565b6108ca565b6040516102989190611b16565b60405180910390f35b6102bb60048036038101906102b69190611f98565b610957565b005b6102d760048036038101906102d29190611b6e565b6109b9565b6040516102e49190611b16565b60405180910390f35b61030760048036038101906103029190612051565b610c2a565b005b610323600480360381019061031e9190611b6e565b610ca2565b604051610330919061208d565b60405180910390f35b610353600480360381019061034e91906120a8565b610cba565b6040516103609190611a62565b60405180910390f35b60007f80ac58cd000000000000000000000000000000000000000000000000000000007bffffffffffffffffffffffffffffffffffffffffffffffffffffffff1916827bffffffffffffffffffffffffffffffffffffffffffffffffffffffff1916148061043457507f5b5e139f000000000000000000000000000000000000000000000000000000007bffffffffffffffffffffffffffffffffffffffffffffffffffffffff1916827bffffffffffffffffffffffffffffffffffffffffffffffffffffffff1916145b80610444575061044382610ec6565b5b9050919050565b60606000805461045a90612117565b80601f016020809104026020016040519081016040528092919081815260200182805461048690612117565b80156104d35780601f106104a8576101008083540402835291602001916104d3565b820191906000526020600020905b8154815290600101906020018083116104b657829003601f168201915b5050505050905090565b60006104e882610f30565b6004600083815260200190815260200160002060009054906101000a900473ffffffffffffffffffffffffffffffffffffffff169050919050565b600061052e826106ba565b90508073ffffffffffffffffffffffffffffffffffffffff168373ffffffffffffffffffffffffffffffffffffffff160361059e576040517f08c379a0000000000000000000000000000000000000000000000000000000008152600401610595906121ba565b60405180910390fd5b8073ffffffffffffffffffffffffffffffffffffffff166105bd610f7b565b73ffffffffffffffffffffffffffffffffffffffff1614806105ec57506105eb816105e6610f7b565b610cba565b5b61062b576040517f08c379a00000000000000000000000000000000000000000000000000000000081526004016106229061224c565b60405180910390fd5b6106358383610f83565b505050565b61064b610645610f7b565b8261103c565b61068a576040517f08c379a0000000000000000000000000000000000000000000000000000000008152600401610681906122de565b60405180910390fd5b6106958383836110d1565b505050565b6106b583838360405180602001604052806000815250610957565b505050565b6000806002600084815260200190815260200160002060009054906101000a900473ffffffffffffffffffffffffffffffffffffffff169050600073ffffffffffffffffffffffffffffffffffffffff168173ffffffffffffffffffffffffffffffffffffffff1603610762576040517f08c379a00000000000000000000000000000000000000000000000000000000081526004016107599061234a565b60405180910390fd5b80915050919050565b60008073ffffffffffffffffffffffffffffffffffffffff168273ffffffffffffffffffffffffffffffffffffffff16036107db576040517f08c379a00000000000000000000000000000000000000000000000000000000081526004016107d2906123dc565b60405180910390fd5b600360008373ffffffffffffffffffffffffffffffffffffffff1673ffffffffffffffffffffffffffffffffffffffff168152602001908152602001600020549050919050565b60606001805461083190612117565b80601f016020809104026020016040519081016040528092919081815260200182805461085d90612117565b80156108aa5780601f1061087f576101008083540402835291602001916108aa565b820191906000526020600020905b81548152906001019060200180831161088d57829003601f168201915b5050505050905090565b6108c66108bf610f7b565b8383611337565b5050565b606060006108f6836040516020016108e29190612438565b604051602081830303815290604052610d4e565b90506040518060400160405280601a81526020017f646174613a696d6167652f7376672b786d6c3b6261736536342c0000000000008152508160405160200161094092919061244f565b604051602081830303815290604052915050919050565b610968610962610f7b565b8361103c565b6109a7576040517f08c379a000000000000000000000000000000000000000000000000000000000815260040161099e906122de565b60405180910390fd5b6109b3848484846114a3565b50505050565b60606109c4826114ff565b6109fa576040517ff2f0e62d00000000000000000000000000000000000000000000000000000000815260040160405180910390fd5b60007f000000000000000000000000000000000000000000000000000000000000000073ffffffffffffffffffffffffffffffffffffffff1663feaf968c6040518163ffffffff1660e01b815260040160a060405180830381865afa158015610a67573d6000803e3d6000fd5b505050506040513d601f19601f82011682018060405250810190610a8b91906124df565b505050915050600060078054610aa090612117565b80601f0160208091040260200160405190810160405280929190818152602001828054610acc90612117565b8015610b195780601f10610aee57610100808354040283529160200191610b19565b820191906000526020600020905b815481529060010190602001808311610afc57829003601f168201915b5050505050905060096000858152602001908152602001600020548212610bc85760078054610b4790612117565b80601f0160208091040260200160405190810160405280929190818152602001828054610b7390612117565b8015610bc05780601f10610b9557610100808354040283529160200191610bc0565b820191906000526020600020905b815481529060010190602001808311610ba357829003601f168201915b505050505090505b610bd061156b565b610c01610bdb61044b565b83604051602001610bed9291906126fc565b604051602081830303815290604052610d4e565b604051602001610c1292919061244f565b60405160208183030381529060405292505050919050565b80600960006006548152602001908152602001600020819055506001600654610c53919061277b565b600681905550610c65336006546115a8565b6006547f882d3b5a729a8bb95cf6c0083c99b42ecd9637123d4425bd7b768877fd8af8b082604051610c97919061208d565b60405180910390a250565b60096020528060005260406000206000915090505481565b6000600560008473ffffffffffffffffffffffffffffffffffffffff1673ffffffffffffffffffffffffffffffffffffffff16815260200190815260200160002060008373ffffffffffffffffffffffffffffffffffffffff1673ffffffffffffffffffffffffffffffffffffffff16815260200190815260200160002060009054906101000a900460ff16905092915050565b60606000825103610d7057604051806020016040528060008152509050610ec1565b6000604051806060016040528060408152602001612c9d6040913990506000600360028551610d9f919061277b565b610da99190612800565b6004610db59190612831565b90506000602082610dc6919061277b565b67ffffffffffffffff811115610ddf57610dde611d83565b5b6040519080825280601f01601f191660200182016040528015610e115781602001600182028036833780820191505090505b509050818152600183018586518101602084015b81831015610e80576003830192508251603f8160121c168501518253600182019150603f81600c1c168501518253600182019150603f8160061c168501518253600182019150603f8116850151825360018201915050610e25565b600389510660018114610e9a5760028114610eaa57610eb5565b613d3d60f01b6002830352610eb5565b603d60f81b60018303525b50505050508093505050505b919050565b60007f01ffc9a7000000000000000000000000000000000000000000000000000000007bffffffffffffffffffffffffffffffffffffffffffffffffffffffff1916827bffffffffffffffffffffffffffffffffffffffffffffffffffffffff1916149050919050565b610f39816114ff565b610f78576040517f08c379a0000000000000000000000000000000000000000000000000000000008152600401610f6f9061234a565b60405180910390fd5b50565b600033905090565b816004600083815260200190815260200160002060006101000a81548173ffffffffffffffffffffffffffffffffffffffff021916908373ffffffffffffffffffffffffffffffffffffffff160217905550808273ffffffffffffffffffffffffffffffffffffffff16610ff6836106ba565b73ffffffffffffffffffffffffffffffffffffffff167f8c5be1e5ebec7d5bd14f71427d1e84f3dd0314c0f7b2291e5b200ac8c7c3b92560405160405180910390a45050565b600080611048836106ba565b90508073ffffffffffffffffffffffffffffffffffffffff168473ffffffffffffffffffffffffffffffffffffffff16148061108a57506110898185610cba565b5b806110c857508373ffffffffffffffffffffffffffffffffffffffff166110b0846104dd565b73ffffffffffffffffffffffffffffffffffffffff16145b91505092915050565b8273ffffffffffffffffffffffffffffffffffffffff166110f1826106ba565b73ffffffffffffffffffffffffffffffffffffffff1614611147576040517f08c379a000000000000000000000000000000000000000000000000000000000815260040161113e906128fd565b60405180910390fd5b600073ffffffffffffffffffffffffffffffffffffffff168273ffffffffffffffffffffffffffffffffffffffff16036111b6576040517f08c379a00000000000000000000000000000000000000000000000000000000081526004016111ad9061298f565b60405180910390fd5b6111c18383836115c6565b6111cc600082610f83565b6001600360008573ffffffffffffffffffffffffffffffffffffffff1673ffffffffffffffffffffffffffffffffffffffff168152602001908152602001600020600082825461121c91906129af565b925050819055506001600360008473ffffffffffffffffffffffffffffffffffffffff1673ffffffffffffffffffffffffffffffffffffffff1681526020019081526020016000206000828254611273919061277b565b92505081905550816002600083815260200190815260200160002060006101000a81548173ffffffffffffffffffffffffffffffffffffffff021916908373ffffffffffffffffffffffffffffffffffffffff160217905550808273ffffffffffffffffffffffffffffffffffffffff168473ffffffffffffffffffffffffffffffffffffffff167fddf252ad1be2c89b69c2b068fc378daa952ba7f163c4a11628f55a4df523b3ef60405160405180910390a46113328383836115cb565b505050565b8173ffffffffffffffffffffffffffffffffffffffff168373ffffffffffffffffffffffffffffffffffffffff16036113a5576040517f08c379a000000000000000000000000000000000000000000000000000000000815260040161139c90612a2f565b60405180910390fd5b80600560008573ffffffffffffffffffffffffffffffffffffffff1673ffffffffffffffffffffffffffffffffffffffff16815260200190815260200160002060008473ffffffffffffffffffffffffffffffffffffffff1673ffffffffffffffffffffffffffffffffffffffff16815260200190815260200160002060006101000a81548160ff0219169083151502179055508173ffffffffffffffffffffffffffffffffffffffff168373ffffffffffffffffffffffffffffffffffffffff167f17307eab39ab6107e8899845ad3d59bd9653f200f220920489ca2b5937696c31836040516114969190611a62565b60405180910390a3505050565b6114ae8484846110d1565b6114ba848484846115d0565b6114f9576040517f08c379a00000000000000000000000000000000000000000000000000000000081526004016114f090612ac1565b60405180910390fd5b50505050565b60008073ffffffffffffffffffffffffffffffffffffffff166002600084815260200190815260200160002060009054906101000a900473ffffffffffffffffffffffffffffffffffffffff1673ffffffffffffffffffffffffffffffffffffffff1614159050919050565b60606040518060400160405280601d81526020017f646174613a6170706c69636174696f6e2f6a736f6e3b6261736536342c000000815250905090565b6115c2828260405180602001604052806000815250611757565b5050565b505050565b505050565b60006115f18473ffffffffffffffffffffffffffffffffffffffff166117b2565b1561174a578373ffffffffffffffffffffffffffffffffffffffff1663150b7a0261161a610f7b565b8786866040518563ffffffff1660e01b815260040161163c9493929190612b36565b6020604051808303816000875af192505050801561167857506040513d601f19601f820116820180604052508101906116759190612b97565b60015b6116fa573d80600081146116a8576040519150601f19603f3d011682016040523d82523d6000602084013e6116ad565b606091505b5060008151036116f2576040517f08c379a00000000000000000000000000000000000000000000000000000000081526004016116e990612ac1565b60405180910390fd5b805181602001fd5b63150b7a0260e01b7bffffffffffffffffffffffffffffffffffffffffffffffffffffffff1916817bffffffffffffffffffffffffffffffffffffffffffffffffffffffff19161491505061174f565b600190505b949350505050565b61176183836117d5565b61176e60008484846115d0565b6117ad576040517f08c379a00000000000000000000000000000000000000000000000000000000081526004016117a490612ac1565b60405180910390fd5b505050565b6000808273ffffffffffffffffffffffffffffffffffffffff163b119050919050565b600073ffffffffffffffffffffffffffffffffffffffff168273ffffffffffffffffffffffffffffffffffffffff1603611844576040517f08c379a000000000000000000000000000000000000000000000000000000000815260040161183b90612c10565b60405180910390fd5b61184d816114ff565b1561188d576040517f08c379a000000000000000000000000000000000000000000000000000000000815260040161188490612c7c565b60405180910390fd5b611899600083836115c6565b6001600360008473ffffffffffffffffffffffffffffffffffffffff1673ffffffffffffffffffffffffffffffffffffffff16815260200190815260200160002060008282546118e9919061277b565b92505081905550816002600083815260200190815260200160002060006101000a81548173ffffffffffffffffffffffffffffffffffffffff021916908373ffffffffffffffffffffffffffffffffffffffff160217905550808273ffffffffffffffffffffffffffffffffffffffff16600073ffffffffffffffffffffffffffffffffffffffff167fddf252ad1be2c89b69c2b068fc378daa952ba7f163c4a11628f55a4df523b3ef60405160405180910390a46119aa600083836115cb565b5050565b6000604051905090565b600080fd5b600080fd5b60007fffffffff0000000000000000000000000000000000000000000000000000000082169050919050565b6119f7816119c2565b8114611a0257600080fd5b50565b600081359050611a14816119ee565b92915050565b600060208284031215611a3057611a2f6119b8565b5b6000611a3e84828501611a05565b91505092915050565b60008115159050919050565b611a5c81611a47565b82525050565b6000602082019050611a776000830184611a53565b92915050565b600081519050919050565b600082825260208201905092915050565b60005b83811015611ab7578082015181840152602081019050611a9c565b83811115611ac6576000848401525b50505050565b6000601f19601f8301169050919050565b6000611ae882611a7d565b611af28185611a88565b9350611b02818560208601611a99565b611b0b81611acc565b840191505092915050565b60006020820190508181036000830152611b308184611add565b905092915050565b6000819050919050565b611b4b81611b38565b8114611b5657600080fd5b50565b600081359050611b6881611b42565b92915050565b600060208284031215611b8457611b836119b8565b5b6000611b9284828501611b59565b91505092915050565b600073ffffffffffffffffffffffffffffffffffffffff82169050919050565b6000611bc682611b9b565b9050919050565b611bd681611bbb565b82525050565b6000602082019050611bf16000830184611bcd565b92915050565b611c0081611bbb565b8114611c0b57600080fd5b50565b600081359050611c1d81611bf7565b92915050565b60008060408385031215611c3a57611c396119b8565b5b6000611c4885828601611c0e565b9250506020611c5985828601611b59565b9150509250929050565b600080600060608486031215611c7c57611c7b6119b8565b5b6000611c8a86828701611c0e565b9350506020611c9b86828701611c0e565b9250506040611cac86828701611b59565b9150509250925092565b600060208284031215611ccc57611ccb6119b8565b5b6000611cda84828501611c0e565b91505092915050565b611cec81611b38565b82525050565b6000602082019050611d076000830184611ce3565b92915050565b611d1681611a47565b8114611d2157600080fd5b50565b600081359050611d3381611d0d565b92915050565b60008060408385031215611d5057611d4f6119b8565b5b6000611d5e85828601611c0e565b9250506020611d6f85828601611d24565b9150509250929050565b600080fd5b600080fd5b7f4e487b7100000000000000000000000000000000000000000000000000000000600052604160045260246000fd5b611dbb82611acc565b810181811067ffffffffffffffff82111715611dda57611dd9611d83565b5b80604052505050565b6000611ded6119ae565b9050611df98282611db2565b919050565b600067ffffffffffffffff821115611e1957611e18611d83565b5b611e2282611acc565b9050602081019050919050565b82818337600083830152505050565b6000611e51611e4c84611dfe565b611de3565b905082815260208101848484011115611e6d57611e6c611d7e565b5b611e78848285611e2f565b509392505050565b600082601f830112611e9557611e94611d79565b5b8135611ea5848260208601611e3e565b91505092915050565b600060208284031215611ec457611ec36119b8565b5b600082013567ffffffffffffffff811115611ee257611ee16119bd565b5b611eee84828501611e80565b91505092915050565b600067ffffffffffffffff821115611f1257611f11611d83565b5b611f1b82611acc565b9050602081019050919050565b6000611f3b611f3684611ef7565b611de3565b905082815260208101848484011115611f5757611f56611d7e565b5b611f62848285611e2f565b509392505050565b600082601f830112611f7f57611f7e611d79565b5b8135611f8f848260208601611f28565b91505092915050565b60008060008060808587031215611fb257611fb16119b8565b5b6000611fc087828801611c0e565b9450506020611fd187828801611c0e565b9350506040611fe287828801611b59565b925050606085013567ffffffffffffffff811115612003576120026119bd565b5b61200f87828801611f6a565b91505092959194509250565b6000819050919050565b61202e8161201b565b811461203957600080fd5b50565b60008135905061204b81612025565b92915050565b600060208284031215612067576120666119b8565b5b60006120758482850161203c565b91505092915050565b6120878161201b565b82525050565b60006020820190506120a2600083018461207e565b92915050565b600080604083850312156120bf576120be6119b8565b5b60006120cd85828601611c0e565b92505060206120de85828601611c0e565b9150509250929050565b7f4e487b7100000000000000000000000000000000000000000000000000000000600052602260045260246000fd5b6000600282049050600182168061212f57607f821691505b602082108103612142576121416120e8565b5b50919050565b7f4552433732313a20617070726f76616c20746f2063757272656e74206f776e6560008201527f7200000000000000000000000000000000000000000000000000000000000000602082015250565b60006121a4602183611a88565b91506121af82612148565b604082019050919050565b600060208201905081810360008301526121d381612197565b9050919050565b7f4552433732313a20617070726f76652063616c6c6572206973206e6f7420746f60008201527f6b656e206f776e6572206e6f7220617070726f76656420666f7220616c6c0000602082015250565b6000612236603e83611a88565b9150612241826121da565b604082019050919050565b6000602082019050818103600083015261226581612229565b9050919050565b7f4552433732313a2063616c6c6572206973206e6f7420746f6b656e206f776e6560008201527f72206e6f7220617070726f766564000000000000000000000000000000000000602082015250565b60006122c8602e83611a88565b91506122d38261226c565b604082019050919050565b600060208201905081810360008301526122f7816122bb565b9050919050565b7f4552433732313a20696e76616c696420746f6b656e2049440000000000000000600082015250565b6000612334601883611a88565b915061233f826122fe565b602082019050919050565b6000602082019050818103600083015261236381612327565b9050919050565b7f4552433732313a2061646472657373207a65726f206973206e6f74206120766160008201527f6c6964206f776e65720000000000000000000000000000000000000000000000602082015250565b60006123c6602983611a88565b91506123d18261236a565b604082019050919050565b600060208201905081810360008301526123f5816123b9565b9050919050565b600081905092915050565b600061241282611a7d565b61241c81856123fc565b935061242c818560208601611a99565b80840191505092915050565b60006124448284612407565b915081905092915050565b600061245b8285612407565b91506124678284612407565b91508190509392505050565b600069ffffffffffffffffffff82169050919050565b61249281612473565b811461249d57600080fd5b50565b6000815190506124af81612489565b92915050565b6000815190506124c481612025565b92915050565b6000815190506124d981611b42565b92915050565b600080600080600060a086880312156124fb576124fa6119b8565b5b6000612509888289016124a0565b955050602061251a888289016124b5565b945050604061252b888289016124ca565b935050606061253c888289016124ca565b925050608061254d888289016124a0565b9150509295509295909350565b7f7b226e616d65223a220000000000000000000000000000000000000000000000600082015250565b60006125906009836123fc565b915061259b8261255a565b600982019050919050565b7f222c226465736372697074696f6e223a22416e204e465420746861742063686160008201527f6e676573206261736564206f6e2074686520436861696e6c696e6b204665656460208201527f2e222c0000000000000000000000000000000000000000000000000000000000604082015250565b60006126286043836123fc565b9150612633826125a6565b604382019050919050565b7f2261747472696275746573223a5b7b227472616974223a2245706963222c227660008201527f616c7565223a313030307d5d2c22696d616765223a2200000000000000000000602082015250565b600061269a6036836123fc565b91506126a58261263e565b603682019050919050565b7f227d000000000000000000000000000000000000000000000000000000000000600082015250565b60006126e66002836123fc565b91506126f1826126b0565b600282019050919050565b600061270782612583565b91506127138285612407565b915061271e8261261b565b91506127298261268d565b91506127358284612407565b9150612740826126d9565b91508190509392505050565b7f4e487b7100000000000000000000000000000000000000000000000000000000600052601160045260246000fd5b600061278682611b38565b915061279183611b38565b9250827fffffffffffffffffffffffffffffffffffffffffffffffffffffffffffffffff038211156127c6576127c561274c565b5b828201905092915050565b7f4e487b7100000000000000000000000000000000000000000000000000000000600052601260045260246000fd5b600061280b82611b38565b915061281683611b38565b925082612826576128256127d1565b5b828204905092915050565b600061283c82611b38565b915061284783611b38565b9250817fffffffffffffffffffffffffffffffffffffffffffffffffffffffffffffffff04831182151516156128805761287f61274c565b5b828202905092915050565b7f4552433732313a207472616e736665722066726f6d20696e636f72726563742060008201527f6f776e6572000000000000000000000000000000000000000000000000000000602082015250565b60006128e7602583611a88565b91506128f28261288b565b604082019050919050565b60006020820190508181036000830152612916816128da565b9050919050565b7f4552433732313a207472616e7366657220746f20746865207a65726f2061646460008201527f7265737300000000000000000000000000000000000000000000000000000000602082015250565b6000612979602483611a88565b91506129848261291d565b604082019050919050565b600060208201905081810360008301526129a88161296c565b9050919050565b60006129ba82611b38565b91506129c583611b38565b9250828210156129d8576129d761274c565b5b828203905092915050565b7f4552433732313a20617070726f766520746f2063616c6c657200000000000000600082015250565b6000612a19601983611a88565b9150612a24826129e3565b602082019050919050565b60006020820190508181036000830152612a4881612a0c565b9050919050565b7f4552433732313a207472616e7366657220746f206e6f6e20455243373231526560008201527f63656976657220696d706c656d656e7465720000000000000000000000000000602082015250565b6000612aab603283611a88565b9150612ab682612a4f565b604082019050919050565b60006020820190508181036000830152612ada81612a9e565b9050919050565b600081519050919050565b600082825260208201905092915050565b6000612b0882612ae1565b612b128185612aec565b9350612b22818560208601611a99565b612b2b81611acc565b840191505092915050565b6000608082019050612b4b6000830187611bcd565b612b586020830186611bcd565b612b656040830185611ce3565b8181036060830152612b778184612afd565b905095945050505050565b600081519050612b91816119ee565b92915050565b600060208284031215612bad57612bac6119b8565b5b6000612bbb84828501612b82565b91505092915050565b7f4552433732313a206d696e7420746f20746865207a65726f2061646472657373600082015250565b6000612bfa602083611a88565b9150612c0582612bc4565b602082019050919050565b60006020820190508181036000830152612c2981612bed565b9050919050565b7f4552433732313a20746f6b656e20616c7265616479206d696e74656400000000600082015250565b6000612c66601c83611a88565b9150612c7182612c30565b602082019050919050565b60006020820190508181036000830152612c9581612c59565b905091905056fe4142434445464748494a4b4c4d4e4f505152535455565758595a6162636465666768696a6b6c6d6e6f707172737475767778797a303132333435363738392b2fa26469706673582212203cf4fa0dc6d603cdb2cc67fb5a277d3e2c31d13e906fc1b4579f8c266a1a677a64736f6c634300080f00334142434445464748494a4b4c4d4e4f505152535455565758595a6162636465666768696a6b6c6d6e6f707172737475767778797a303132333435363738392b2f",
  "linkReferences": {},
  "deployedLinkReferences": {}
}