{
  "_format": "hh-sol-artifact-1",
  "contractName": "RandomNFT",
  "sourceName": "contracts/RandomNFT.sol",
  "abi": [
    {
      "inputs": [
        {
          "internalType": "address",
          "name": "coordinator",
          "type": "address"
        },
        {
          "internalType": "uint64",
          "name": "subscriptionId",
          "type": "uint64"
        },
        {
          "internalType": "bytes32",
          "name": "gasLane",
          "type": "bytes32"
        },
        {
          "internalType": "uint32",
          "name": "callbackGasLimit",
          "type": "uint32"
        },
        {
          "internalType": "string[3]",
          "name": "tokenURIs",
          "type": "string[3]"
        },
        {
          "internalType": "uint256",
          "name": "mintFee",
          "type": "uint256"
        }
      ],
      "stateMutability": "nonpayable",
      "type": "constructor"
    },
    {
      "inputs": [
        {
          "internalType": "address",
          "name": "have",
          "type": "address"
        },
        {
          "internalType": "address",
          "name": "want",
          "type": "address"
        }
      ],
      "name": "OnlyCoordinatorCanFulfill",
      "type": "error"
    },
    {
      "inputs": [],
      "name": "RandomNFT__NotEnoughETHSent",
      "type": "error"
    },
    {
      "inputs": [],
      "name": "RandomNFT__RangeOutOfScope",
      "type": "error"
    },
    {
      "inputs": [],
      "name": "RandomNFT__TransferFailed",
      "type": "error"
    },
    {
      "anonymous": false,
      "inputs": [
        {
          "indexed": true,
          "internalType": "address",
          "name": "owner",
          "type": "address"
        },
        {
          "indexed": true,
          "internalType": "address",
          "name": "approved",
          "type": "address"
        },
        {
          "indexed": true,
          "internalType": "uint256",
          "name": "tokenId",
          "type": "uint256"
        }
      ],
      "name": "Approval",
      "type": "event"
    },
    {
      "anonymous": false,
      "inputs": [
        {
          "indexed": true,
          "internalType": "address",
          "name": "owner",
          "type": "address"
        },
        {
          "indexed": true,
          "internalType": "address",
          "name": "operator",
          "type": "address"
        },
        {
          "indexed": false,
          "internalType": "bool",
          "name": "approved",
          "type": "bool"
        }
      ],
      "name": "ApprovalForAll",
      "type": "event"
    },
    {
      "anonymous": false,
      "inputs": [
        {
          "indexed": false,
          "internalType": "enum RandomNFT.Selection",
          "name": "selection",
          "type": "uint8"
        },
        {
          "indexed": false,
          "internalType": "address",
          "name": "minter",
          "type": "address"
        }
      ],
      "name": "NFTMinted",
      "type": "event"
    },
    {
      "anonymous": false,
      "inputs": [
        {
          "indexed": true,
          "internalType": "uint256",
          "name": "requestId",
          "type": "uint256"
        },
        {
          "indexed": false,
          "internalType": "address",
          "name": "requester",
          "type": "address"
        }
      ],
      "name": "NFTRequested",
      "type": "event"
    },
    {
      "anonymous": false,
      "inputs": [
        {
          "indexed": true,
          "internalType": "address",
          "name": "previousOwner",
          "type": "address"
        },
        {
          "indexed": true,
          "internalType": "address",
          "name": "newOwner",
          "type": "address"
        }
      ],
      "name": "OwnershipTransferred",
      "type": "event"
    },
    {
      "anonymous": false,
      "inputs": [
        {
          "indexed": true,
          "internalType": "address",
          "name": "from",
          "type": "address"
        },
        {
          "indexed": true,
          "internalType": "address",
          "name": "to",
          "type": "address"
        },
        {
          "indexed": true,
          "internalType": "uint256",
          "name": "tokenId",
          "type": "uint256"
        }
      ],
      "name": "Transfer",
      "type": "event"
    },
    {
      "inputs": [
        {
          "internalType": "address",
          "name": "to",
          "type": "address"
        },
        {
          "internalType": "uint256",
          "name": "tokenId",
          "type": "uint256"
        }
      ],
      "name": "approve",
      "outputs": [],
      "stateMutability": "nonpayable",
      "type": "function"
    },
    {
      "inputs": [
        {
          "internalType": "address",
          "name": "owner",
          "type": "address"
        }
      ],
      "name": "balanceOf",
      "outputs": [
        {
          "internalType": "uint256",
          "name": "",
          "type": "uint256"
        }
      ],
      "stateMutability": "view",
      "type": "function"
    },
    {
      "inputs": [
        {
          "internalType": "uint256",
          "name": "tokenId",
          "type": "uint256"
        }
      ],
      "name": "getApproved",
      "outputs": [
        {
          "internalType": "address",
          "name": "",
          "type": "address"
        }
      ],
      "stateMutability": "view",
      "type": "function"
    },
    {
      "inputs": [],
      "name": "getMintFee",
      "outputs": [
        {
          "internalType": "uint256",
          "name": "",
          "type": "uint256"
        }
      ],
      "stateMutability": "view",
      "type": "function"
    },
    {
      "inputs": [],
      "name": "getTokenCounter",
      "outputs": [
        {
          "internalType": "uint256",
          "name": "",
          "type": "uint256"
        }
      ],
      "stateMutability": "view",
      "type": "function"
    },
    {
      "inputs": [
        {
          "internalType": "uint256",
          "name": "index",
          "type": "uint256"
        }
      ],
      "name": "getTokenURIs",
      "outputs": [
        {
          "internalType": "string",
          "name": "",
          "type": "string"
        }
      ],
      "stateMutability": "view",
      "type": "function"
    },
    {
      "inputs": [
        {
          "internalType": "address",
          "name": "owner",
          "type": "address"
        },
        {
          "internalType": "address",
          "name": "operator",
          "type": "address"
        }
      ],
      "name": "isApprovedForAll",
      "outputs": [
        {
          "internalType": "bool",
          "name": "",
          "type": "bool"
        }
      ],
      "stateMutability": "view",
      "type": "function"
    },
    {
      "inputs": [],
      "name": "name",
      "outputs": [
        {
          "internalType": "string",
          "name": "",
          "type": "string"
        }
      ],
      "stateMutability": "view",
      "type": "function"
    },
    {
      "inputs": [],
      "name": "owner",
      "outputs": [
        {
          "internalType": "address",
          "name": "",
          "type": "address"
        }
      ],
      "stateMutability": "view",
      "type": "function"
    },
    {
      "inputs": [
        {
          "internalType": "uint256",
          "name": "tokenId",
          "type": "uint256"
        }
      ],
      "name": "ownerOf",
      "outputs": [
        {
          "internalType": "address",
          "name": "",
          "type": "address"
        }
      ],
      "stateMutability": "view",
      "type": "function"
    },
    {
      "inputs": [
        {
          "internalType": "uint256",
          "name": "requestId",
          "type": "uint256"
        },
        {
          "internalType": "uint256[]",
          "name": "randomWords",
          "type": "uint256[]"
        }
      ],
      "name": "rawFulfillRandomWords",
      "outputs": [],
      "stateMutability": "nonpayable",
      "type": "function"
    },
    {
      "inputs": [],
      "name": "renounceOwnership",
      "outputs": [],
      "stateMutability": "nonpayable",
      "type": "function"
    },
    {
      "inputs": [],
      "name": "requestNFT",
      "outputs": [
        {
          "internalType": "uint256",
          "name": "requestId",
          "type": "uint256"
        }
      ],
      "stateMutability": "payable",
      "type": "function"
    },
    {
      "inputs": [
        {
          "internalType": "uint256",
          "name": "",
          "type": "uint256"
        }
      ],
      "name": "s_requestIdToSender",
      "outputs": [
        {
          "internalType": "address",
          "name": "",
          "type": "address"
        }
      ],
      "stateMutability": "view",
      "type": "function"
    },
    {
      "inputs": [],
      "name": "s_tokenCounter",
      "outputs": [
        {
          "internalType": "uint256",
          "name": "",
          "type": "uint256"
        }
      ],
      "stateMutability": "view",
      "type": "function"
    },
    {
      "inputs": [
        {
          "internalType": "address",
          "name": "from",
          "type": "address"
        },
        {
          "internalType": "address",
          "name": "to",
          "type": "address"
        },
        {
          "internalType": "uint256",
          "name": "tokenId",
          "type": "uint256"
        }
      ],
      "name": "safeTransferFrom",
      "outputs": [],
      "stateMutability": "nonpayable",
      "type": "function"
    },
    {
      "inputs": [
        {
          "internalType": "address",
          "name": "from",
          "type": "address"
        },
        {
          "internalType": "address",
          "name": "to",
          "type": "address"
        },
        {
          "internalType": "uint256",
          "name": "tokenId",
          "type": "uint256"
        },
        {
          "internalType": "bytes",
          "name": "data",
          "type": "bytes"
        }
      ],
      "name": "safeTransferFrom",
      "outputs": [],
      "stateMutability": "nonpayable",
      "type": "function"
    },
    {
      "inputs": [
        {
          "internalType": "uint256",
          "name": "moddedRNG",
          "type": "uint256"
        }
      ],
      "name": "selectionFromModdedRNG",
      "outputs": [
        {
          "internalType": "enum RandomNFT.Selection",
          "name": "",
          "type": "uint8"
        }
      ],
      "stateMutability": "pure",
      "type": "function"
    },
    {
      "inputs": [
        {
          "internalType": "address",
          "name": "operator",
          "type": "address"
        },
        {
          "internalType": "bool",
          "name": "approved",
          "type": "bool"
        }
      ],
      "name": "setApprovalForAll",
      "outputs": [],
      "stateMutability": "nonpayable",
      "type": "function"
    },
    {
      "inputs": [],
      "name": "setChanceArray",
      "outputs": [
        {
          "internalType": "uint256[3]",
          "name": "",
          "type": "uint256[3]"
        }
      ],
      "stateMutability": "pure",
      "type": "function"
    },
    {
      "inputs": [
        {
          "internalType": "bytes4",
          "name": "interfaceId",
          "type": "bytes4"
        }
      ],
      "name": "supportsInterface",
      "outputs": [
        {
          "internalType": "bool",
          "name": "",
          "type": "bool"
        }
      ],
      "stateMutability": "view",
      "type": "function"
    },
    {
      "inputs": [],
      "name": "symbol",
      "outputs": [
        {
          "internalType": "string",
          "name": "",
          "type": "string"
        }
      ],
      "stateMutability": "view",
      "type": "function"
    },
    {
      "inputs": [
        {
          "internalType": "uint256",
          "name": "tokenId",
          "type": "uint256"
        }
      ],
      "name": "tokenURI",
      "outputs": [
        {
          "internalType": "string",
          "name": "",
          "type": "string"
        }
      ],
      "stateMutability": "view",
      "type": "function"
    },
    {
      "inputs": [
        {
          "internalType": "address",
          "name": "from",
          "type": "address"
        },
        {
          "internalType": "address",
          "name": "to",
          "type": "address"
        },
        {
          "internalType": "uint256",
          "name": "tokenId",
          "type": "uint256"
        }
      ],
      "name": "transferFrom",
      "outputs": [],
      "stateMutability": "nonpayable",
      "type": "function"
    },
    {
      "inputs": [
        {
          "internalType": "address",
          "name": "newOwner",
          "type": "address"
        }
      ],
      "name": "transferOwnership",
      "outputs": [],
      "stateMutability": "nonpayable",
      "type": "function"
    },
    {
      "inputs": [],
      "name": "withdraw",
      "outputs": [],
      "stateMutability": "nonpayable",
      "type": "function"
    }
  ],
  "bytecode": "0x6101406040523480156200001257600080fd5b50604051620046b2380380620046b2833981810160405281019062000038919062000759565b856040518060400160405280601581526020017f42696e617279204e465420436f6c6c656374696f6e00000000000000000000008152506040518060400160405280600381526020017f424e4300000000000000000000000000000000000000000000000000000000008152508160009081620000b6919062000a55565b508060019081620000c8919062000a55565b505050620000eb620000df620001b660201b60201c565b620001be60201b60201c565b8073ffffffffffffffffffffffffffffffffffffffff1660808173ffffffffffffffffffffffffffffffffffffffff1681525050508573ffffffffffffffffffffffffffffffffffffffff1660a08173ffffffffffffffffffffffffffffffffffffffff16815250508467ffffffffffffffff1660c08167ffffffffffffffff16815250508360e081815250508263ffffffff166101008163ffffffff168152505081600a906003620001a092919062000284565b5080610120818152505050505050505062000b3c565b600033905090565b6000600760009054906101000a900473ffffffffffffffffffffffffffffffffffffffff16905081600760006101000a81548173ffffffffffffffffffffffffffffffffffffffff021916908373ffffffffffffffffffffffffffffffffffffffff1602179055508173ffffffffffffffffffffffffffffffffffffffff168173ffffffffffffffffffffffffffffffffffffffff167f8be0079c531659141344cd1fd0a4f28419497f9722a3daafe3b4186f6b6457e060405160405180910390a35050565b828054828255906000526020600020908101928215620002d1579160200282015b82811115620002d0578251829081620002bf919062000a55565b5091602001919060010190620002a5565b5b509050620002e09190620002e4565b5090565b5b80821115620003085760008181620002fe91906200030c565b50600101620002e5565b5090565b5080546200031a906200084e565b6000825580601f106200032e57506200034f565b601f0160209004906000526020600020908101906200034e919062000352565b5b50565b5b808211156200036d57600081600090555060010162000353565b5090565b6000604051905090565b600080fd5b600080fd5b600073ffffffffffffffffffffffffffffffffffffffff82169050919050565b6000620003b28262000385565b9050919050565b620003c481620003a5565b8114620003d057600080fd5b50565b600081519050620003e481620003b9565b92915050565b600067ffffffffffffffff82169050919050565b6200040981620003ea565b81146200041557600080fd5b50565b6000815190506200042981620003fe565b92915050565b6000819050919050565b62000444816200042f565b81146200045057600080fd5b50565b600081519050620004648162000439565b92915050565b600063ffffffff82169050919050565b62000485816200046a565b81146200049157600080fd5b50565b600081519050620004a5816200047a565b92915050565b600080fd5b6000601f19601f8301169050919050565b7f4e487b7100000000000000000000000000000000000000000000000000000000600052604160045260246000fd5b620004fb82620004b0565b810181811067ffffffffffffffff821117156200051d576200051c620004c1565b5b80604052505050565b60006200053262000371565b9050620005408282620004f0565b919050565b600067ffffffffffffffff821115620005635762000562620004c1565b5b602082029050919050565b600080fd5b600080fd5b600067ffffffffffffffff821115620005965762000595620004c1565b5b620005a182620004b0565b9050602081019050919050565b60005b83811015620005ce578082015181840152602081019050620005b1565b83811115620005de576000848401525b50505050565b6000620005fb620005f58462000578565b62000526565b9050828152602081018484840111156200061a576200061962000573565b5b62000627848285620005ae565b509392505050565b600082601f830112620006475762000646620004ab565b5b815162000659848260208601620005e4565b91505092915050565b600062000679620006738462000545565b62000526565b905080602084028301858111156200069657620006956200056e565b5b835b81811015620006e457805167ffffffffffffffff811115620006bf57620006be620004ab565b5b808601620006ce89826200062f565b8552602085019450505060208101905062000698565b5050509392505050565b600082601f830112620007065762000705620004ab565b5b60036200071584828562000662565b91505092915050565b6000819050919050565b62000733816200071e565b81146200073f57600080fd5b50565b600081519050620007538162000728565b92915050565b60008060008060008060c087890312156200077957620007786200037b565b5b60006200078989828a01620003d3565b96505060206200079c89828a0162000418565b9550506040620007af89828a0162000453565b9450506060620007c289828a0162000494565b935050608087015167ffffffffffffffff811115620007e657620007e562000380565b5b620007f489828a01620006ee565b92505060a06200080789828a0162000742565b9150509295509295509295565b600081519050919050565b7f4e487b7100000000000000000000000000000000000000000000000000000000600052602260045260246000fd5b600060028204905060018216806200086757607f821691505b6020821081036200087d576200087c6200081f565b5b50919050565b60008190508160005260206000209050919050565b60006020601f8301049050919050565b600082821b905092915050565b600060088302620008e77fffffffffffffffffffffffffffffffffffffffffffffffffffffffffffffffff82620008a8565b620008f38683620008a8565b95508019841693508086168417925050509392505050565b6000819050919050565b600062000936620009306200092a846200071e565b6200090b565b6200071e565b9050919050565b6000819050919050565b620009528362000915565b6200096a62000961826200093d565b848454620008b5565b825550505050565b600090565b6200098162000972565b6200098e81848462000947565b505050565b5b81811015620009b657620009aa60008262000977565b60018101905062000994565b5050565b601f82111562000a0557620009cf8162000883565b620009da8462000898565b81016020851015620009ea578190505b62000a02620009f98562000898565b83018262000993565b50505b505050565b600082821c905092915050565b600062000a2a6000198460080262000a0a565b1980831691505092915050565b600062000a45838362000a17565b9150826002028217905092915050565b62000a608262000814565b67ffffffffffffffff81111562000a7c5762000a7b620004c1565b5b62000a8882546200084e565b62000a95828285620009ba565b600060209050601f83116001811462000acd576000841562000ab8578287015190505b62000ac4858262000a37565b86555062000b34565b601f19841662000add8662000883565b60005b8281101562000b075784890151825560018201915060208501945060208101905062000ae0565b8683101562000b27578489015162000b23601f89168262000a17565b8355505b6001600288020188555050505b505050505050565b60805160a05160c05160e0516101005161012051613b1862000b9a60003960008181610d740152610d9c01526000610e7601526000610e3201526000610e5301526000610df601526000818161091c01526109700152613b186000f3fe6080604052600436106101815760003560e01c806370a08231116100d1578063a22cb4651161008a578063c87b56dd11610064578063c87b56dd14610563578063e985e9c5146105a0578063f2fde38b146105dd578063f359462a1461060657610181565b8063a22cb465146104d4578063a36f573b146104fd578063b88d4fde1461053a57610181565b806370a08231146103e1578063715018a61461041e5780637a5caab3146104355780637abd25d1146104605780638da5cb5b1461047e57806395d89b41146104a957610181565b806323b872dd1161013e57806342842e0e1161011857806342842e0e146103135780636352211e1461033c57806364224120146103795780636e02007d146103b657610181565b806323b872dd146102a85780633ca63262146102d15780633ccfd60b146102fc57610181565b806301ffc9a71461018657806306fdde03146101c3578063081812fc146101ee578063095ea7b31461022b5780630b21a83b146102545780631fe543e31461027f575b600080fd5b34801561019257600080fd5b506101ad60048036038101906101a8919061244a565b610643565b6040516101ba9190612492565b60405180910390f35b3480156101cf57600080fd5b506101d8610725565b6040516101e59190612546565b60405180910390f35b3480156101fa57600080fd5b506102156004803603810190610210919061259e565b6107b7565b604051610222919061260c565b60405180910390f35b34801561023757600080fd5b50610252600480360381019061024d9190612653565b6107fd565b005b34801561026057600080fd5b50610269610914565b60405161027691906126a2565b60405180910390f35b34801561028b57600080fd5b506102a660048036038101906102a19190612805565b61091a565b005b3480156102b457600080fd5b506102cf60048036038101906102ca9190612861565b6109da565b005b3480156102dd57600080fd5b506102e6610a3a565b6040516102f3919061295f565b60405180910390f35b34801561030857600080fd5b50610311610a66565b005b34801561031f57600080fd5b5061033a60048036038101906103359190612861565b610b1a565b005b34801561034857600080fd5b50610363600480360381019061035e919061259e565b610b3a565b604051610370919061260c565b60405180910390f35b34801561038557600080fd5b506103a0600480360381019061039b919061259e565b610beb565b6040516103ad9190612546565b60405180910390f35b3480156103c257600080fd5b506103cb610c9b565b6040516103d891906126a2565b60405180910390f35b3480156103ed57600080fd5b506104086004803603810190610403919061297a565b610ca5565b60405161041591906126a2565b60405180910390f35b34801561042a57600080fd5b50610433610d5c565b005b34801561044157600080fd5b5061044a610d70565b60405161045791906126a2565b60405180910390f35b610468610d98565b60405161047591906126a2565b60405180910390f35b34801561048a57600080fd5b50610493610f89565b6040516104a0919061260c565b60405180910390f35b3480156104b557600080fd5b506104be610fb3565b6040516104cb9190612546565b60405180910390f35b3480156104e057600080fd5b506104fb60048036038101906104f691906129d3565b611045565b005b34801561050957600080fd5b50610524600480360381019061051f919061259e565b61105b565b604051610531919061260c565b60405180910390f35b34801561054657600080fd5b50610561600480360381019061055c9190612ac8565b61108e565b005b34801561056f57600080fd5b5061058a6004803603810190610585919061259e565b6110f0565b6040516105979190612546565b60405180910390f35b3480156105ac57600080fd5b506105c760048036038101906105c29190612b4b565b611202565b6040516105d49190612492565b60405180910390f35b3480156105e957600080fd5b5061060460048036038101906105ff919061297a565b611296565b005b34801561061257600080fd5b5061062d6004803603810190610628919061259e565b611319565b60405161063a9190612c02565b60405180910390f35b60007f80ac58cd000000000000000000000000000000000000000000000000000000007bffffffffffffffffffffffffffffffffffffffffffffffffffffffff1916827bffffffffffffffffffffffffffffffffffffffffffffffffffffffff1916148061070e57507f5b5e139f000000000000000000000000000000000000000000000000000000007bffffffffffffffffffffffffffffffffffffffffffffffffffffffff1916827bffffffffffffffffffffffffffffffffffffffffffffffffffffffff1916145b8061071e575061071d826113fb565b5b9050919050565b60606000805461073490612c4c565b80601f016020809104026020016040519081016040528092919081815260200182805461076090612c4c565b80156107ad5780601f10610782576101008083540402835291602001916107ad565b820191906000526020600020905b81548152906001019060200180831161079057829003601f168201915b5050505050905090565b60006107c282611465565b6004600083815260200190815260200160002060009054906101000a900473ffffffffffffffffffffffffffffffffffffffff169050919050565b600061080882610b3a565b90508073ffffffffffffffffffffffffffffffffffffffff168373ffffffffffffffffffffffffffffffffffffffff1603610878576040517f08c379a000000000000000000000000000000000000000000000000000000000815260040161086f90612cef565b60405180910390fd5b8073ffffffffffffffffffffffffffffffffffffffff166108976114b0565b73ffffffffffffffffffffffffffffffffffffffff1614806108c657506108c5816108c06114b0565b611202565b5b610905576040517f08c379a00000000000000000000000000000000000000000000000000000000081526004016108fc90612d81565b60405180910390fd5b61090f83836114b8565b505050565b60095481565b7f000000000000000000000000000000000000000000000000000000000000000073ffffffffffffffffffffffffffffffffffffffff163373ffffffffffffffffffffffffffffffffffffffff16146109cc57337f00000000000000000000000000000000000000000000000000000000000000006040517f1cf993f40000000000000000000000000000000000000000000000000000000081526004016109c3929190612da1565b60405180910390fd5b6109d68282611571565b5050565b6109eb6109e56114b0565b826116f7565b610a2a576040517f08c379a0000000000000000000000000000000000000000000000000000000008152600401610a2190612e3c565b60405180910390fd5b610a3583838361178c565b505050565b610a426123bc565b6040518060600160405280600a8152602001606481526020016103e8815250905090565b610a6e6119f2565b600047905060003373ffffffffffffffffffffffffffffffffffffffff1682604051610a9990612e8d565b60006040518083038185875af1925050503d8060008114610ad6576040519150601f19603f3d011682016040523d82523d6000602084013e610adb565b606091505b5050905080610b16576040517feb74061000000000000000000000000000000000000000000000000000000000815260040160405180910390fd5b5050565b610b358383836040518060200160405280600081525061108e565b505050565b6000806002600084815260200190815260200160002060009054906101000a900473ffffffffffffffffffffffffffffffffffffffff169050600073ffffffffffffffffffffffffffffffffffffffff168173ffffffffffffffffffffffffffffffffffffffff1603610be2576040517f08c379a0000000000000000000000000000000000000000000000000000000008152600401610bd990612eee565b60405180910390fd5b80915050919050565b6060600a8281548110610c0157610c00612f0e565b5b906000526020600020018054610c1690612c4c565b80601f0160208091040260200160405190810160405280929190818152602001828054610c4290612c4c565b8015610c8f5780601f10610c6457610100808354040283529160200191610c8f565b820191906000526020600020905b815481529060010190602001808311610c7257829003601f168201915b50505050509050919050565b6000600954905090565b60008073ffffffffffffffffffffffffffffffffffffffff168273ffffffffffffffffffffffffffffffffffffffff1603610d15576040517f08c379a0000000000000000000000000000000000000000000000000000000008152600401610d0c90612faf565b60405180910390fd5b600360008373ffffffffffffffffffffffffffffffffffffffff1673ffffffffffffffffffffffffffffffffffffffff168152602001908152602001600020549050919050565b610d646119f2565b610d6e6000611a70565b565b60007f0000000000000000000000000000000000000000000000000000000000000000905090565b60007f0000000000000000000000000000000000000000000000000000000000000000341015610df4576040517f829a019e00000000000000000000000000000000000000000000000000000000815260040160405180910390fd5b7f000000000000000000000000000000000000000000000000000000000000000073ffffffffffffffffffffffffffffffffffffffff16635d3b1d307f00000000000000000000000000000000000000000000000000000000000000007f000000000000000000000000000000000000000000000000000000000000000060037f000000000000000000000000000000000000000000000000000000000000000060016040518663ffffffff1660e01b8152600401610eb7959493929190613047565b6020604051808303816000875af1158015610ed6573d6000803e3d6000fd5b505050506040513d601f19601f82011682018060405250810190610efa91906130af565b9050336008600083815260200190815260200160002060006101000a81548173ffffffffffffffffffffffffffffffffffffffff021916908373ffffffffffffffffffffffffffffffffffffffff160217905550807f4e1c2f1eae56e29ec039a2b882eec626e6c420ed5a5b93a203c8b8b695e911b133604051610f7e919061260c565b60405180910390a290565b6000600760009054906101000a900473ffffffffffffffffffffffffffffffffffffffff16905090565b606060018054610fc290612c4c565b80601f0160208091040260200160405190810160405280929190818152602001828054610fee90612c4c565b801561103b5780601f106110105761010080835404028352916020019161103b565b820191906000526020600020905b81548152906001019060200180831161101e57829003601f168201915b5050505050905090565b6110576110506114b0565b8383611b36565b5050565b60086020528060005260406000206000915054906101000a900473ffffffffffffffffffffffffffffffffffffffff1681565b61109f6110996114b0565b836116f7565b6110de576040517f08c379a00000000000000000000000000000000000000000000000000000000081526004016110d590612e3c565b60405180910390fd5b6110ea84848484611ca2565b50505050565b60606110fb82611465565b600060066000848152602001908152602001600020805461111b90612c4c565b80601f016020809104026020016040519081016040528092919081815260200182805461114790612c4c565b80156111945780601f1061116957610100808354040283529160200191611194565b820191906000526020600020905b81548152906001019060200180831161117757829003601f168201915b5050505050905060006111a5611cfe565b905060008151036111ba5781925050506111fd565b6000825111156111ef5780826040516020016111d7929190613118565b604051602081830303815290604052925050506111fd565b6111f884611d15565b925050505b919050565b6000600560008473ffffffffffffffffffffffffffffffffffffffff1673ffffffffffffffffffffffffffffffffffffffff16815260200190815260200160002060008373ffffffffffffffffffffffffffffffffffffffff1673ffffffffffffffffffffffffffffffffffffffff16815260200190815260200160002060009054906101000a900460ff16905092915050565b61129e6119f2565b600073ffffffffffffffffffffffffffffffffffffffff168173ffffffffffffffffffffffffffffffffffffffff160361130d576040517f08c379a0000000000000000000000000000000000000000000000000000000008152600401611304906131ae565b60405180910390fd5b61131681611a70565b50565b60008060009050600061132a610a3a565b905060005b60038110156113c357828510158015611369575081816003811061135657611355612f0e565b5b60200201518361136691906131fd565b85105b1561138b5780600281111561138157611380612b8b565b5b93505050506113f6565b81816003811061139e5761139d612f0e565b5b6020020151836113ae91906131fd565b925080806113bb90613253565b91505061132f565b506040517f5d061b4700000000000000000000000000000000000000000000000000000000815260040160405180910390fd5b919050565b60007f01ffc9a7000000000000000000000000000000000000000000000000000000007bffffffffffffffffffffffffffffffffffffffffffffffffffffffff1916827bffffffffffffffffffffffffffffffffffffffffffffffffffffffff1916149050919050565b61146e81611d7d565b6114ad576040517f08c379a00000000000000000000000000000000000000000000000000000000081526004016114a490612eee565b60405180910390fd5b50565b600033905090565b816004600083815260200190815260200160002060006101000a81548173ffffffffffffffffffffffffffffffffffffffff021916908373ffffffffffffffffffffffffffffffffffffffff160217905550808273ffffffffffffffffffffffffffffffffffffffff1661152b83610b3a565b73ffffffffffffffffffffffffffffffffffffffff167f8c5be1e5ebec7d5bd14f71427d1e84f3dd0314c0f7b2291e5b200ac8c7c3b92560405160405180910390a45050565b60006008600084815260200190815260200160002060009054906101000a900473ffffffffffffffffffffffffffffffffffffffff1690506000600954905060006103e8846000815181106115c9576115c8612f0e565b5b60200260200101516115db91906132ca565b905060006115e882611319565b90506115f48484611de9565b6116b683600a83600281111561160d5761160c612b8b565b5b8154811061161e5761161d612f0e565b5b90600052602060002001805461163390612c4c565b80601f016020809104026020016040519081016040528092919081815260200182805461165f90612c4c565b80156116ac5780601f10611681576101008083540402835291602001916116ac565b820191906000526020600020905b81548152906001019060200180831161168f57829003601f168201915b5050505050611e07565b7fab79897476febbd649710b1bd1dc3e93a316d3dee65f65b022ab89a4b7e206b581856040516116e79291906132fb565b60405180910390a1505050505050565b60008061170383610b3a565b90508073ffffffffffffffffffffffffffffffffffffffff168473ffffffffffffffffffffffffffffffffffffffff16148061174557506117448185611202565b5b8061178357508373ffffffffffffffffffffffffffffffffffffffff1661176b846107b7565b73ffffffffffffffffffffffffffffffffffffffff16145b91505092915050565b8273ffffffffffffffffffffffffffffffffffffffff166117ac82610b3a565b73ffffffffffffffffffffffffffffffffffffffff1614611802576040517f08c379a00000000000000000000000000000000000000000000000000000000081526004016117f990613396565b60405180910390fd5b600073ffffffffffffffffffffffffffffffffffffffff168273ffffffffffffffffffffffffffffffffffffffff1603611871576040517f08c379a000000000000000000000000000000000000000000000000000000000815260040161186890613428565b60405180910390fd5b61187c838383611e74565b6118876000826114b8565b6001600360008573ffffffffffffffffffffffffffffffffffffffff1673ffffffffffffffffffffffffffffffffffffffff16815260200190815260200160002060008282546118d79190613448565b925050819055506001600360008473ffffffffffffffffffffffffffffffffffffffff1673ffffffffffffffffffffffffffffffffffffffff168152602001908152602001600020600082825461192e91906131fd565b92505081905550816002600083815260200190815260200160002060006101000a81548173ffffffffffffffffffffffffffffffffffffffff021916908373ffffffffffffffffffffffffffffffffffffffff160217905550808273ffffffffffffffffffffffffffffffffffffffff168473ffffffffffffffffffffffffffffffffffffffff167fddf252ad1be2c89b69c2b068fc378daa952ba7f163c4a11628f55a4df523b3ef60405160405180910390a46119ed838383611e79565b505050565b6119fa6114b0565b73ffffffffffffffffffffffffffffffffffffffff16611a18610f89565b73ffffffffffffffffffffffffffffffffffffffff1614611a6e576040517f08c379a0000000000000000000000000000000000000000000000000000000008152600401611a65906134c8565b60405180910390fd5b565b6000600760009054906101000a900473ffffffffffffffffffffffffffffffffffffffff16905081600760006101000a81548173ffffffffffffffffffffffffffffffffffffffff021916908373ffffffffffffffffffffffffffffffffffffffff1602179055508173ffffffffffffffffffffffffffffffffffffffff168173ffffffffffffffffffffffffffffffffffffffff167f8be0079c531659141344cd1fd0a4f28419497f9722a3daafe3b4186f6b6457e060405160405180910390a35050565b8173ffffffffffffffffffffffffffffffffffffffff168373ffffffffffffffffffffffffffffffffffffffff1603611ba4576040517f08c379a0000000000000000000000000000000000000000000000000000000008152600401611b9b90613534565b60405180910390fd5b80600560008573ffffffffffffffffffffffffffffffffffffffff1673ffffffffffffffffffffffffffffffffffffffff16815260200190815260200160002060008473ffffffffffffffffffffffffffffffffffffffff1673ffffffffffffffffffffffffffffffffffffffff16815260200190815260200160002060006101000a81548160ff0219169083151502179055508173ffffffffffffffffffffffffffffffffffffffff168373ffffffffffffffffffffffffffffffffffffffff167f17307eab39ab6107e8899845ad3d59bd9653f200f220920489ca2b5937696c3183604051611c959190612492565b60405180910390a3505050565b611cad84848461178c565b611cb984848484611e7e565b611cf8576040517f08c379a0000000000000000000000000000000000000000000000000000000008152600401611cef906135c6565b60405180910390fd5b50505050565b606060405180602001604052806000815250905090565b6060611d2082611465565b6000611d2a611cfe565b90506000815111611d4a5760405180602001604052806000815250611d75565b80611d5484612005565b604051602001611d65929190613118565b6040516020818303038152906040525b915050919050565b60008073ffffffffffffffffffffffffffffffffffffffff166002600084815260200190815260200160002060009054906101000a900473ffffffffffffffffffffffffffffffffffffffff1673ffffffffffffffffffffffffffffffffffffffff1614159050919050565b611e03828260405180602001604052806000815250612165565b5050565b611e1082611d7d565b611e4f576040517f08c379a0000000000000000000000000000000000000000000000000000000008152600401611e4690613658565b60405180910390fd5b80600660008481526020019081526020016000209081611e6f9190613824565b505050565b505050565b505050565b6000611e9f8473ffffffffffffffffffffffffffffffffffffffff166121c0565b15611ff8578373ffffffffffffffffffffffffffffffffffffffff1663150b7a02611ec86114b0565b8786866040518563ffffffff1660e01b8152600401611eea949392919061394b565b6020604051808303816000875af1925050508015611f2657506040513d601f19601f82011682018060405250810190611f2391906139ac565b60015b611fa8573d8060008114611f56576040519150601f19603f3d011682016040523d82523d6000602084013e611f5b565b606091505b506000815103611fa0576040517f08c379a0000000000000000000000000000000000000000000000000000000008152600401611f97906135c6565b60405180910390fd5b805181602001fd5b63150b7a0260e01b7bffffffffffffffffffffffffffffffffffffffffffffffffffffffff1916817bffffffffffffffffffffffffffffffffffffffffffffffffffffffff191614915050611ffd565b600190505b949350505050565b60606000820361204c576040518060400160405280600181526020017f30000000000000000000000000000000000000000000000000000000000000008152509050612160565b600082905060005b6000821461207e57808061206790613253565b915050600a8261207791906139d9565b9150612054565b60008167ffffffffffffffff81111561209a576120996126c2565b5b6040519080825280601f01601f1916602001820160405280156120cc5781602001600182028036833780820191505090505b5090505b60008514612159576001826120e59190613448565b9150600a856120f491906132ca565b603061210091906131fd565b60f81b81838151811061211657612115612f0e565b5b60200101907effffffffffffffffffffffffffffffffffffffffffffffffffffffffffffff1916908160001a905350600a8561215291906139d9565b94506120d0565b8093505050505b919050565b61216f83836121e3565b61217c6000848484611e7e565b6121bb576040517f08c379a00000000000000000000000000000000000000000000000000000000081526004016121b2906135c6565b60405180910390fd5b505050565b6000808273ffffffffffffffffffffffffffffffffffffffff163b119050919050565b600073ffffffffffffffffffffffffffffffffffffffff168273ffffffffffffffffffffffffffffffffffffffff1603612252576040517f08c379a000000000000000000000000000000000000000000000000000000000815260040161224990613a56565b60405180910390fd5b61225b81611d7d565b1561229b576040517f08c379a000000000000000000000000000000000000000000000000000000000815260040161229290613ac2565b60405180910390fd5b6122a760008383611e74565b6001600360008473ffffffffffffffffffffffffffffffffffffffff1673ffffffffffffffffffffffffffffffffffffffff16815260200190815260200160002060008282546122f791906131fd565b92505081905550816002600083815260200190815260200160002060006101000a81548173ffffffffffffffffffffffffffffffffffffffff021916908373ffffffffffffffffffffffffffffffffffffffff160217905550808273ffffffffffffffffffffffffffffffffffffffff16600073ffffffffffffffffffffffffffffffffffffffff167fddf252ad1be2c89b69c2b068fc378daa952ba7f163c4a11628f55a4df523b3ef60405160405180910390a46123b860008383611e79565b5050565b6040518060600160405280600390602082028036833780820191505090505090565b6000604051905090565b600080fd5b600080fd5b60007fffffffff0000000000000000000000000000000000000000000000000000000082169050919050565b612427816123f2565b811461243257600080fd5b50565b6000813590506124448161241e565b92915050565b6000602082840312156124605761245f6123e8565b5b600061246e84828501612435565b91505092915050565b60008115159050919050565b61248c81612477565b82525050565b60006020820190506124a76000830184612483565b92915050565b600081519050919050565b600082825260208201905092915050565b60005b838110156124e75780820151818401526020810190506124cc565b838111156124f6576000848401525b50505050565b6000601f19601f8301169050919050565b6000612518826124ad565b61252281856124b8565b93506125328185602086016124c9565b61253b816124fc565b840191505092915050565b60006020820190508181036000830152612560818461250d565b905092915050565b6000819050919050565b61257b81612568565b811461258657600080fd5b50565b60008135905061259881612572565b92915050565b6000602082840312156125b4576125b36123e8565b5b60006125c284828501612589565b91505092915050565b600073ffffffffffffffffffffffffffffffffffffffff82169050919050565b60006125f6826125cb565b9050919050565b612606816125eb565b82525050565b600060208201905061262160008301846125fd565b92915050565b612630816125eb565b811461263b57600080fd5b50565b60008135905061264d81612627565b92915050565b6000806040838503121561266a576126696123e8565b5b60006126788582860161263e565b925050602061268985828601612589565b9150509250929050565b61269c81612568565b82525050565b60006020820190506126b76000830184612693565b92915050565b600080fd5b7f4e487b7100000000000000000000000000000000000000000000000000000000600052604160045260246000fd5b6126fa826124fc565b810181811067ffffffffffffffff82111715612719576127186126c2565b5b80604052505050565b600061272c6123de565b905061273882826126f1565b919050565b600067ffffffffffffffff821115612758576127576126c2565b5b602082029050602081019050919050565b600080fd5b600061278161277c8461273d565b612722565b905080838252602082019050602084028301858111156127a4576127a3612769565b5b835b818110156127cd57806127b98882612589565b8452602084019350506020810190506127a6565b5050509392505050565b600082601f8301126127ec576127eb6126bd565b5b81356127fc84826020860161276e565b91505092915050565b6000806040838503121561281c5761281b6123e8565b5b600061282a85828601612589565b925050602083013567ffffffffffffffff81111561284b5761284a6123ed565b5b612857858286016127d7565b9150509250929050565b60008060006060848603121561287a576128796123e8565b5b60006128888682870161263e565b93505060206128998682870161263e565b92505060406128aa86828701612589565b9150509250925092565b600060039050919050565b600081905092915050565b6000819050919050565b6128dd81612568565b82525050565b60006128ef83836128d4565b60208301905092915050565b6000602082019050919050565b612911816128b4565b61291b81846128bf565b9250612926826128ca565b8060005b8381101561295757815161293e87826128e3565b9650612949836128fb565b92505060018101905061292a565b505050505050565b60006060820190506129746000830184612908565b92915050565b6000602082840312156129905761298f6123e8565b5b600061299e8482850161263e565b91505092915050565b6129b081612477565b81146129bb57600080fd5b50565b6000813590506129cd816129a7565b92915050565b600080604083850312156129ea576129e96123e8565b5b60006129f88582860161263e565b9250506020612a09858286016129be565b9150509250929050565b600080fd5b600067ffffffffffffffff821115612a3357612a326126c2565b5b612a3c826124fc565b9050602081019050919050565b82818337600083830152505050565b6000612a6b612a6684612a18565b612722565b905082815260208101848484011115612a8757612a86612a13565b5b612a92848285612a49565b509392505050565b600082601f830112612aaf57612aae6126bd565b5b8135612abf848260208601612a58565b91505092915050565b60008060008060808587031215612ae257612ae16123e8565b5b6000612af08782880161263e565b9450506020612b018782880161263e565b9350506040612b1287828801612589565b925050606085013567ffffffffffffffff811115612b3357612b326123ed565b5b612b3f87828801612a9a565b91505092959194509250565b60008060408385031215612b6257612b616123e8565b5b6000612b708582860161263e565b9250506020612b818582860161263e565b9150509250929050565b7f4e487b7100000000000000000000000000000000000000000000000000000000600052602160045260246000fd5b60038110612bcb57612bca612b8b565b5b50565b6000819050612bdc82612bba565b919050565b6000612bec82612bce565b9050919050565b612bfc81612be1565b82525050565b6000602082019050612c176000830184612bf3565b92915050565b7f4e487b7100000000000000000000000000000000000000000000000000000000600052602260045260246000fd5b60006002820490506001821680612c6457607f821691505b602082108103612c7757612c76612c1d565b5b50919050565b7f4552433732313a20617070726f76616c20746f2063757272656e74206f776e6560008201527f7200000000000000000000000000000000000000000000000000000000000000602082015250565b6000612cd96021836124b8565b9150612ce482612c7d565b604082019050919050565b60006020820190508181036000830152612d0881612ccc565b9050919050565b7f4552433732313a20617070726f76652063616c6c6572206973206e6f7420746f60008201527f6b656e206f776e6572206e6f7220617070726f76656420666f7220616c6c0000602082015250565b6000612d6b603e836124b8565b9150612d7682612d0f565b604082019050919050565b60006020820190508181036000830152612d9a81612d5e565b9050919050565b6000604082019050612db660008301856125fd565b612dc360208301846125fd565b9392505050565b7f4552433732313a2063616c6c6572206973206e6f7420746f6b656e206f776e6560008201527f72206e6f7220617070726f766564000000000000000000000000000000000000602082015250565b6000612e26602e836124b8565b9150612e3182612dca565b604082019050919050565b60006020820190508181036000830152612e5581612e19565b9050919050565b600081905092915050565b50565b6000612e77600083612e5c565b9150612e8282612e67565b600082019050919050565b6000612e9882612e6a565b9150819050919050565b7f4552433732313a20696e76616c696420746f6b656e2049440000000000000000600082015250565b6000612ed86018836124b8565b9150612ee382612ea2565b602082019050919050565b60006020820190508181036000830152612f0781612ecb565b9050919050565b7f4e487b7100000000000000000000000000000000000000000000000000000000600052603260045260246000fd5b7f4552433732313a2061646472657373207a65726f206973206e6f74206120766160008201527f6c6964206f776e65720000000000000000000000000000000000000000000000602082015250565b6000612f996029836124b8565b9150612fa482612f3d565b604082019050919050565b60006020820190508181036000830152612fc881612f8c565b9050919050565b6000819050919050565b612fe281612fcf565b82525050565b600067ffffffffffffffff82169050919050565b61300581612fe8565b82525050565b600061ffff82169050919050565b6130228161300b565b82525050565b600063ffffffff82169050919050565b61304181613028565b82525050565b600060a08201905061305c6000830188612fd9565b6130696020830187612ffc565b6130766040830186613019565b6130836060830185613038565b6130906080830184613038565b9695505050505050565b6000815190506130a981612572565b92915050565b6000602082840312156130c5576130c46123e8565b5b60006130d38482850161309a565b91505092915050565b600081905092915050565b60006130f2826124ad565b6130fc81856130dc565b935061310c8185602086016124c9565b80840191505092915050565b600061312482856130e7565b915061313082846130e7565b91508190509392505050565b7f4f776e61626c653a206e6577206f776e657220697320746865207a65726f206160008201527f6464726573730000000000000000000000000000000000000000000000000000602082015250565b60006131986026836124b8565b91506131a38261313c565b604082019050919050565b600060208201905081810360008301526131c78161318b565b9050919050565b7f4e487b7100000000000000000000000000000000000000000000000000000000600052601160045260246000fd5b600061320882612568565b915061321383612568565b9250827fffffffffffffffffffffffffffffffffffffffffffffffffffffffffffffffff03821115613248576132476131ce565b5b828201905092915050565b600061325e82612568565b91507fffffffffffffffffffffffffffffffffffffffffffffffffffffffffffffffff82036132905761328f6131ce565b5b600182019050919050565b7f4e487b7100000000000000000000000000000000000000000000000000000000600052601260045260246000fd5b60006132d582612568565b91506132e083612568565b9250826132f0576132ef61329b565b5b828206905092915050565b60006040820190506133106000830185612bf3565b61331d60208301846125fd565b9392505050565b7f4552433732313a207472616e736665722066726f6d20696e636f72726563742060008201527f6f776e6572000000000000000000000000000000000000000000000000000000602082015250565b60006133806025836124b8565b915061338b82613324565b604082019050919050565b600060208201905081810360008301526133af81613373565b9050919050565b7f4552433732313a207472616e7366657220746f20746865207a65726f2061646460008201527f7265737300000000000000000000000000000000000000000000000000000000602082015250565b60006134126024836124b8565b915061341d826133b6565b604082019050919050565b6000602082019050818103600083015261344181613405565b9050919050565b600061345382612568565b915061345e83612568565b925082821015613471576134706131ce565b5b828203905092915050565b7f4f776e61626c653a2063616c6c6572206973206e6f7420746865206f776e6572600082015250565b60006134b26020836124b8565b91506134bd8261347c565b602082019050919050565b600060208201905081810360008301526134e1816134a5565b9050919050565b7f4552433732313a20617070726f766520746f2063616c6c657200000000000000600082015250565b600061351e6019836124b8565b9150613529826134e8565b602082019050919050565b6000602082019050818103600083015261354d81613511565b9050919050565b7f4552433732313a207472616e7366657220746f206e6f6e20455243373231526560008201527f63656976657220696d706c656d656e7465720000000000000000000000000000602082015250565b60006135b06032836124b8565b91506135bb82613554565b604082019050919050565b600060208201905081810360008301526135df816135a3565b9050919050565b7f45524337323155524953746f726167653a2055524920736574206f66206e6f6e60008201527f6578697374656e7420746f6b656e000000000000000000000000000000000000602082015250565b6000613642602e836124b8565b915061364d826135e6565b604082019050919050565b6000602082019050818103600083015261367181613635565b9050919050565b60008190508160005260206000209050919050565b60006020601f8301049050919050565b600082821b905092915050565b6000600883026136da7fffffffffffffffffffffffffffffffffffffffffffffffffffffffffffffffff8261369d565b6136e4868361369d565b95508019841693508086168417925050509392505050565b6000819050919050565b600061372161371c61371784612568565b6136fc565b612568565b9050919050565b6000819050919050565b61373b83613706565b61374f61374782613728565b8484546136aa565b825550505050565b600090565b613764613757565b61376f818484613732565b505050565b5b818110156137935761378860008261375c565b600181019050613775565b5050565b601f8211156137d8576137a981613678565b6137b28461368d565b810160208510156137c1578190505b6137d56137cd8561368d565b830182613774565b50505b505050565b600082821c905092915050565b60006137fb600019846008026137dd565b1980831691505092915050565b600061381483836137ea565b9150826002028217905092915050565b61382d826124ad565b67ffffffffffffffff811115613846576138456126c2565b5b6138508254612c4c565b61385b828285613797565b600060209050601f83116001811461388e576000841561387c578287015190505b6138868582613808565b8655506138ee565b601f19841661389c86613678565b60005b828110156138c45784890151825560018201915060208501945060208101905061389f565b868310156138e157848901516138dd601f8916826137ea565b8355505b6001600288020188555050505b505050505050565b600081519050919050565b600082825260208201905092915050565b600061391d826138f6565b6139278185613901565b93506139378185602086016124c9565b613940816124fc565b840191505092915050565b600060808201905061396060008301876125fd565b61396d60208301866125fd565b61397a6040830185612693565b818103606083015261398c8184613912565b905095945050505050565b6000815190506139a68161241e565b92915050565b6000602082840312156139c2576139c16123e8565b5b60006139d084828501613997565b91505092915050565b60006139e482612568565b91506139ef83612568565b9250826139ff576139fe61329b565b5b828204905092915050565b7f4552433732313a206d696e7420746f20746865207a65726f2061646472657373600082015250565b6000613a406020836124b8565b9150613a4b82613a0a565b602082019050919050565b60006020820190508181036000830152613a6f81613a33565b9050919050565b7f4552433732313a20746f6b656e20616c7265616479206d696e74656400000000600082015250565b6000613aac601c836124b8565b9150613ab782613a76565b602082019050919050565b60006020820190508181036000830152613adb81613a9f565b905091905056fea264697066735822122055a2b249384fe7ae1f2cf66650ad7b99b6cd407cd20a9a83723535fdf0a080f364736f6c634300080f0033",
  "linkReferences": {},
  "deployedLinkReferences": {}
}