{
  "_format": "hh-sol-artifact-1",
  "contractName": "RandomNFT",
  "sourceName": "contracts/RandomNFT.sol",
  "abi": [
    {
      "inputs": [
        {
          "internalType": "address",
          "name": "coordinator",
          "type": "address"
        },
        {
          "internalType": "uint64",
          "name": "subscriptionId",
          "type": "uint64"
        },
        {
          "internalType": "bytes32",
          "name": "gasLane",
          "type": "bytes32"
        },
        {
          "internalType": "uint32",
          "name": "callbackGasLimit",
          "type": "uint32"
        },
        {
          "internalType": "string[3]",
          "name": "tokenURIs",
          "type": "string[3]"
        },
        {
          "internalType": "uint256",
          "name": "mintFee",
          "type": "uint256"
        }
      ],
      "stateMutability": "nonpayable",
      "type": "constructor"
    },
    {
      "inputs": [
        {
          "internalType": "address",
          "name": "have",
          "type": "address"
        },
        {
          "internalType": "address",
          "name": "want",
          "type": "address"
        }
      ],
      "name": "OnlyCoordinatorCanFulfill",
      "type": "error"
    },
    {
      "inputs": [],
      "name": "RandomNFT__NotEnoughETHSent",
      "type": "error"
    },
    {
      "inputs": [],
      "name": "RandomNFT__RangeOutOfScope",
      "type": "error"
    },
    {
      "inputs": [],
      "name": "RandomNFT__TransferFailed",
      "type": "error"
    },
    {
      "anonymous": false,
      "inputs": [
        {
          "indexed": true,
          "internalType": "address",
          "name": "owner",
          "type": "address"
        },
        {
          "indexed": true,
          "internalType": "address",
          "name": "approved",
          "type": "address"
        },
        {
          "indexed": true,
          "internalType": "uint256",
          "name": "tokenId",
          "type": "uint256"
        }
      ],
      "name": "Approval",
      "type": "event"
    },
    {
      "anonymous": false,
      "inputs": [
        {
          "indexed": true,
          "internalType": "address",
          "name": "owner",
          "type": "address"
        },
        {
          "indexed": true,
          "internalType": "address",
          "name": "operator",
          "type": "address"
        },
        {
          "indexed": false,
          "internalType": "bool",
          "name": "approved",
          "type": "bool"
        }
      ],
      "name": "ApprovalForAll",
      "type": "event"
    },
    {
      "anonymous": false,
      "inputs": [
        {
          "indexed": false,
          "internalType": "enum RandomNFT.Selection",
          "name": "selection",
          "type": "uint8"
        },
        {
          "indexed": false,
          "internalType": "address",
          "name": "minter",
          "type": "address"
        }
      ],
      "name": "NFTMinted",
      "type": "event"
    },
    {
      "anonymous": false,
      "inputs": [
        {
          "indexed": true,
          "internalType": "uint256",
          "name": "requestId",
          "type": "uint256"
        },
        {
          "indexed": false,
          "internalType": "address",
          "name": "requester",
          "type": "address"
        }
      ],
      "name": "NFTRequested",
      "type": "event"
    },
    {
      "anonymous": false,
      "inputs": [
        {
          "indexed": true,
          "internalType": "address",
          "name": "previousOwner",
          "type": "address"
        },
        {
          "indexed": true,
          "internalType": "address",
          "name": "newOwner",
          "type": "address"
        }
      ],
      "name": "OwnershipTransferred",
      "type": "event"
    },
    {
      "anonymous": false,
      "inputs": [
        {
          "indexed": true,
          "internalType": "address",
          "name": "from",
          "type": "address"
        },
        {
          "indexed": true,
          "internalType": "address",
          "name": "to",
          "type": "address"
        },
        {
          "indexed": true,
          "internalType": "uint256",
          "name": "tokenId",
          "type": "uint256"
        }
      ],
      "name": "Transfer",
      "type": "event"
    },
    {
      "inputs": [
        {
          "internalType": "address",
          "name": "to",
          "type": "address"
        },
        {
          "internalType": "uint256",
          "name": "tokenId",
          "type": "uint256"
        }
      ],
      "name": "approve",
      "outputs": [],
      "stateMutability": "nonpayable",
      "type": "function"
    },
    {
      "inputs": [
        {
          "internalType": "address",
          "name": "owner",
          "type": "address"
        }
      ],
      "name": "balanceOf",
      "outputs": [
        {
          "internalType": "uint256",
          "name": "",
          "type": "uint256"
        }
      ],
      "stateMutability": "view",
      "type": "function"
    },
    {
      "inputs": [
        {
          "internalType": "uint256",
          "name": "tokenId",
          "type": "uint256"
        }
      ],
      "name": "getApproved",
      "outputs": [
        {
          "internalType": "address",
          "name": "",
          "type": "address"
        }
      ],
      "stateMutability": "view",
      "type": "function"
    },
    {
      "inputs": [],
      "name": "getMintFee",
      "outputs": [
        {
          "internalType": "uint256",
          "name": "",
          "type": "uint256"
        }
      ],
      "stateMutability": "view",
      "type": "function"
    },
    {
      "inputs": [],
      "name": "getTokenCounter",
      "outputs": [
        {
          "internalType": "uint256",
          "name": "",
          "type": "uint256"
        }
      ],
      "stateMutability": "view",
      "type": "function"
    },
    {
      "inputs": [
        {
          "internalType": "uint256",
          "name": "index",
          "type": "uint256"
        }
      ],
      "name": "getTokenURIs",
      "outputs": [
        {
          "internalType": "string",
          "name": "",
          "type": "string"
        }
      ],
      "stateMutability": "view",
      "type": "function"
    },
    {
      "inputs": [
        {
          "internalType": "address",
          "name": "owner",
          "type": "address"
        },
        {
          "internalType": "address",
          "name": "operator",
          "type": "address"
        }
      ],
      "name": "isApprovedForAll",
      "outputs": [
        {
          "internalType": "bool",
          "name": "",
          "type": "bool"
        }
      ],
      "stateMutability": "view",
      "type": "function"
    },
    {
      "inputs": [],
      "name": "name",
      "outputs": [
        {
          "internalType": "string",
          "name": "",
          "type": "string"
        }
      ],
      "stateMutability": "view",
      "type": "function"
    },
    {
      "inputs": [],
      "name": "owner",
      "outputs": [
        {
          "internalType": "address",
          "name": "",
          "type": "address"
        }
      ],
      "stateMutability": "view",
      "type": "function"
    },
    {
      "inputs": [
        {
          "internalType": "uint256",
          "name": "tokenId",
          "type": "uint256"
        }
      ],
      "name": "ownerOf",
      "outputs": [
        {
          "internalType": "address",
          "name": "",
          "type": "address"
        }
      ],
      "stateMutability": "view",
      "type": "function"
    },
    {
      "inputs": [
        {
          "internalType": "uint256",
          "name": "requestId",
          "type": "uint256"
        },
        {
          "internalType": "uint256[]",
          "name": "randomWords",
          "type": "uint256[]"
        }
      ],
      "name": "rawFulfillRandomWords",
      "outputs": [],
      "stateMutability": "nonpayable",
      "type": "function"
    },
    {
      "inputs": [],
      "name": "renounceOwnership",
      "outputs": [],
      "stateMutability": "nonpayable",
      "type": "function"
    },
    {
      "inputs": [],
      "name": "requestNFT",
      "outputs": [
        {
          "internalType": "uint256",
          "name": "requestId",
          "type": "uint256"
        }
      ],
      "stateMutability": "payable",
      "type": "function"
    },
    {
      "inputs": [
        {
          "internalType": "uint256",
          "name": "",
          "type": "uint256"
        }
      ],
      "name": "s_requestIdToSender",
      "outputs": [
        {
          "internalType": "address",
          "name": "",
          "type": "address"
        }
      ],
      "stateMutability": "view",
      "type": "function"
    },
    {
      "inputs": [],
      "name": "s_tokenCounter",
      "outputs": [
        {
          "internalType": "uint256",
          "name": "",
          "type": "uint256"
        }
      ],
      "stateMutability": "view",
      "type": "function"
    },
    {
      "inputs": [
        {
          "internalType": "address",
          "name": "from",
          "type": "address"
        },
        {
          "internalType": "address",
          "name": "to",
          "type": "address"
        },
        {
          "internalType": "uint256",
          "name": "tokenId",
          "type": "uint256"
        }
      ],
      "name": "safeTransferFrom",
      "outputs": [],
      "stateMutability": "nonpayable",
      "type": "function"
    },
    {
      "inputs": [
        {
          "internalType": "address",
          "name": "from",
          "type": "address"
        },
        {
          "internalType": "address",
          "name": "to",
          "type": "address"
        },
        {
          "internalType": "uint256",
          "name": "tokenId",
          "type": "uint256"
        },
        {
          "internalType": "bytes",
          "name": "data",
          "type": "bytes"
        }
      ],
      "name": "safeTransferFrom",
      "outputs": [],
      "stateMutability": "nonpayable",
      "type": "function"
    },
    {
      "inputs": [
        {
          "internalType": "uint256",
          "name": "moddedRNG",
          "type": "uint256"
        }
      ],
      "name": "selectionFromModdedRNG",
      "outputs": [
        {
          "internalType": "enum RandomNFT.Selection",
          "name": "",
          "type": "uint8"
        }
      ],
      "stateMutability": "pure",
      "type": "function"
    },
    {
      "inputs": [
        {
          "internalType": "address",
          "name": "operator",
          "type": "address"
        },
        {
          "internalType": "bool",
          "name": "approved",
          "type": "bool"
        }
      ],
      "name": "setApprovalForAll",
      "outputs": [],
      "stateMutability": "nonpayable",
      "type": "function"
    },
    {
      "inputs": [],
      "name": "setChanceArray",
      "outputs": [
        {
          "internalType": "uint256[3]",
          "name": "",
          "type": "uint256[3]"
        }
      ],
      "stateMutability": "pure",
      "type": "function"
    },
    {
      "inputs": [
        {
          "internalType": "bytes4",
          "name": "interfaceId",
          "type": "bytes4"
        }
      ],
      "name": "supportsInterface",
      "outputs": [
        {
          "internalType": "bool",
          "name": "",
          "type": "bool"
        }
      ],
      "stateMutability": "view",
      "type": "function"
    },
    {
      "inputs": [],
      "name": "symbol",
      "outputs": [
        {
          "internalType": "string",
          "name": "",
          "type": "string"
        }
      ],
      "stateMutability": "view",
      "type": "function"
    },
    {
      "inputs": [
        {
          "internalType": "uint256",
          "name": "tokenId",
          "type": "uint256"
        }
      ],
      "name": "tokenURI",
      "outputs": [
        {
          "internalType": "string",
          "name": "",
          "type": "string"
        }
      ],
      "stateMutability": "view",
      "type": "function"
    },
    {
      "inputs": [
        {
          "internalType": "address",
          "name": "from",
          "type": "address"
        },
        {
          "internalType": "address",
          "name": "to",
          "type": "address"
        },
        {
          "internalType": "uint256",
          "name": "tokenId",
          "type": "uint256"
        }
      ],
      "name": "transferFrom",
      "outputs": [],
      "stateMutability": "nonpayable",
      "type": "function"
    },
    {
      "inputs": [
        {
          "internalType": "address",
          "name": "newOwner",
          "type": "address"
        }
      ],
      "name": "transferOwnership",
      "outputs": [],
      "stateMutability": "nonpayable",
      "type": "function"
    },
    {
      "inputs": [],
      "name": "withdraw",
      "outputs": [],
      "stateMutability": "nonpayable",
      "type": "function"
    }
  ],
  "bytecode": "0x6101406040523480156200001257600080fd5b50604051620046c7380380620046c7833981810160405281019062000038919062000759565b856040518060400160405280601581526020017f42696e617279204e465420436f6c6c656374696f6e00000000000000000000008152506040518060400160405280600381526020017f424e4300000000000000000000000000000000000000000000000000000000008152508160009081620000b6919062000a55565b508060019081620000c8919062000a55565b505050620000eb620000df620001b660201b60201c565b620001be60201b60201c565b8073ffffffffffffffffffffffffffffffffffffffff1660808173ffffffffffffffffffffffffffffffffffffffff1681525050508573ffffffffffffffffffffffffffffffffffffffff1660a08173ffffffffffffffffffffffffffffffffffffffff16815250508467ffffffffffffffff1660c08167ffffffffffffffff16815250508360e081815250508263ffffffff166101008163ffffffff168152505081600a906003620001a092919062000284565b5080610120818152505050505050505062000b3c565b600033905090565b6000600760009054906101000a900473ffffffffffffffffffffffffffffffffffffffff16905081600760006101000a81548173ffffffffffffffffffffffffffffffffffffffff021916908373ffffffffffffffffffffffffffffffffffffffff1602179055508173ffffffffffffffffffffffffffffffffffffffff168173ffffffffffffffffffffffffffffffffffffffff167f8be0079c531659141344cd1fd0a4f28419497f9722a3daafe3b4186f6b6457e060405160405180910390a35050565b828054828255906000526020600020908101928215620002d1579160200282015b82811115620002d0578251829081620002bf919062000a55565b5091602001919060010190620002a5565b5b509050620002e09190620002e4565b5090565b5b80821115620003085760008181620002fe91906200030c565b50600101620002e5565b5090565b5080546200031a906200084e565b6000825580601f106200032e57506200034f565b601f0160209004906000526020600020908101906200034e919062000352565b5b50565b5b808211156200036d57600081600090555060010162000353565b5090565b6000604051905090565b600080fd5b600080fd5b600073ffffffffffffffffffffffffffffffffffffffff82169050919050565b6000620003b28262000385565b9050919050565b620003c481620003a5565b8114620003d057600080fd5b50565b600081519050620003e481620003b9565b92915050565b600067ffffffffffffffff82169050919050565b6200040981620003ea565b81146200041557600080fd5b50565b6000815190506200042981620003fe565b92915050565b6000819050919050565b62000444816200042f565b81146200045057600080fd5b50565b600081519050620004648162000439565b92915050565b600063ffffffff82169050919050565b62000485816200046a565b81146200049157600080fd5b50565b600081519050620004a5816200047a565b92915050565b600080fd5b6000601f19601f8301169050919050565b7f4e487b7100000000000000000000000000000000000000000000000000000000600052604160045260246000fd5b620004fb82620004b0565b810181811067ffffffffffffffff821117156200051d576200051c620004c1565b5b80604052505050565b60006200053262000371565b9050620005408282620004f0565b919050565b600067ffffffffffffffff821115620005635762000562620004c1565b5b602082029050919050565b600080fd5b600080fd5b600067ffffffffffffffff821115620005965762000595620004c1565b5b620005a182620004b0565b9050602081019050919050565b60005b83811015620005ce578082015181840152602081019050620005b1565b83811115620005de576000848401525b50505050565b6000620005fb620005f58462000578565b62000526565b9050828152602081018484840111156200061a576200061962000573565b5b62000627848285620005ae565b509392505050565b600082601f830112620006475762000646620004ab565b5b815162000659848260208601620005e4565b91505092915050565b600062000679620006738462000545565b62000526565b905080602084028301858111156200069657620006956200056e565b5b835b81811015620006e457805167ffffffffffffffff811115620006bf57620006be620004ab565b5b808601620006ce89826200062f565b8552602085019450505060208101905062000698565b5050509392505050565b600082601f830112620007065762000705620004ab565b5b60036200071584828562000662565b91505092915050565b6000819050919050565b62000733816200071e565b81146200073f57600080fd5b50565b600081519050620007538162000728565b92915050565b60008060008060008060c087890312156200077957620007786200037b565b5b60006200078989828a01620003d3565b96505060206200079c89828a0162000418565b9550506040620007af89828a0162000453565b9450506060620007c289828a0162000494565b935050608087015167ffffffffffffffff811115620007e657620007e562000380565b5b620007f489828a01620006ee565b92505060a06200080789828a0162000742565b9150509295509295509295565b600081519050919050565b7f4e487b7100000000000000000000000000000000000000000000000000000000600052602260045260246000fd5b600060028204905060018216806200086757607f821691505b6020821081036200087d576200087c6200081f565b5b50919050565b60008190508160005260206000209050919050565b60006020601f8301049050919050565b600082821b905092915050565b600060088302620008e77fffffffffffffffffffffffffffffffffffffffffffffffffffffffffffffffff82620008a8565b620008f38683620008a8565b95508019841693508086168417925050509392505050565b6000819050919050565b600062000936620009306200092a846200071e565b6200090b565b6200071e565b9050919050565b6000819050919050565b620009528362000915565b6200096a62000961826200093d565b848454620008b5565b825550505050565b600090565b6200098162000972565b6200098e81848462000947565b505050565b5b81811015620009b657620009aa60008262000977565b60018101905062000994565b5050565b601f82111562000a0557620009cf8162000883565b620009da8462000898565b81016020851015620009ea578190505b62000a02620009f98562000898565b83018262000993565b50505b505050565b600082821c905092915050565b600062000a2a6000198460080262000a0a565b1980831691505092915050565b600062000a45838362000a17565b9150826002028217905092915050565b62000a608262000814565b67ffffffffffffffff81111562000a7c5762000a7b620004c1565b5b62000a8882546200084e565b62000a95828285620009ba565b600060209050601f83116001811462000acd576000841562000ab8578287015190505b62000ac4858262000a37565b86555062000b34565b601f19841662000add8662000883565b60005b8281101562000b075784890151825560018201915060208501945060208101905062000ae0565b8683101562000b27578489015162000b23601f89168262000a17565b8355505b6001600288020188555050505b505050505050565b60805160a05160c05160e0516101005161012051613b2d62000b9a60003960008181610d740152610d9c01526000610e7601526000610e3201526000610e5301526000610df601526000818161091c01526109700152613b2d6000f3fe6080604052600436106101815760003560e01c806370a08231116100d1578063a22cb4651161008a578063c87b56dd11610064578063c87b56dd14610563578063e985e9c5146105a0578063f2fde38b146105dd578063f359462a1461060657610181565b8063a22cb465146104d4578063a36f573b146104fd578063b88d4fde1461053a57610181565b806370a08231146103e1578063715018a61461041e5780637a5caab3146104355780637abd25d1146104605780638da5cb5b1461047e57806395d89b41146104a957610181565b806323b872dd1161013e57806342842e0e1161011857806342842e0e146103135780636352211e1461033c57806364224120146103795780636e02007d146103b657610181565b806323b872dd146102a85780633ca63262146102d15780633ccfd60b146102fc57610181565b806301ffc9a71461018657806306fdde03146101c3578063081812fc146101ee578063095ea7b31461022b5780630b21a83b146102545780631fe543e31461027f575b600080fd5b34801561019257600080fd5b506101ad60048036038101906101a8919061245f565b610643565b6040516101ba91906124a7565b60405180910390f35b3480156101cf57600080fd5b506101d8610725565b6040516101e5919061255b565b60405180910390f35b3480156101fa57600080fd5b50610215600480360381019061021091906125b3565b6107b7565b6040516102229190612621565b60405180910390f35b34801561023757600080fd5b50610252600480360381019061024d9190612668565b6107fd565b005b34801561026057600080fd5b50610269610914565b60405161027691906126b7565b60405180910390f35b34801561028b57600080fd5b506102a660048036038101906102a1919061281a565b61091a565b005b3480156102b457600080fd5b506102cf60048036038101906102ca9190612876565b6109da565b005b3480156102dd57600080fd5b506102e6610a3a565b6040516102f39190612974565b60405180910390f35b34801561030857600080fd5b50610311610a66565b005b34801561031f57600080fd5b5061033a60048036038101906103359190612876565b610b1a565b005b34801561034857600080fd5b50610363600480360381019061035e91906125b3565b610b3a565b6040516103709190612621565b60405180910390f35b34801561038557600080fd5b506103a0600480360381019061039b91906125b3565b610beb565b6040516103ad919061255b565b60405180910390f35b3480156103c257600080fd5b506103cb610c9b565b6040516103d891906126b7565b60405180910390f35b3480156103ed57600080fd5b506104086004803603810190610403919061298f565b610ca5565b60405161041591906126b7565b60405180910390f35b34801561042a57600080fd5b50610433610d5c565b005b34801561044157600080fd5b5061044a610d70565b60405161045791906126b7565b60405180910390f35b610468610d98565b60405161047591906126b7565b60405180910390f35b34801561048a57600080fd5b50610493610f89565b6040516104a09190612621565b60405180910390f35b3480156104b557600080fd5b506104be610fb3565b6040516104cb919061255b565b60405180910390f35b3480156104e057600080fd5b506104fb60048036038101906104f691906129e8565b611045565b005b34801561050957600080fd5b50610524600480360381019061051f91906125b3565b61105b565b6040516105319190612621565b60405180910390f35b34801561054657600080fd5b50610561600480360381019061055c9190612add565b61108e565b005b34801561056f57600080fd5b5061058a600480360381019061058591906125b3565b6110f0565b604051610597919061255b565b60405180910390f35b3480156105ac57600080fd5b506105c760048036038101906105c29190612b60565b611202565b6040516105d491906124a7565b60405180910390f35b3480156105e957600080fd5b5061060460048036038101906105ff919061298f565b611296565b005b34801561061257600080fd5b5061062d600480360381019061062891906125b3565b611319565b60405161063a9190612c17565b60405180910390f35b60007f80ac58cd000000000000000000000000000000000000000000000000000000007bffffffffffffffffffffffffffffffffffffffffffffffffffffffff1916827bffffffffffffffffffffffffffffffffffffffffffffffffffffffff1916148061070e57507f5b5e139f000000000000000000000000000000000000000000000000000000007bffffffffffffffffffffffffffffffffffffffffffffffffffffffff1916827bffffffffffffffffffffffffffffffffffffffffffffffffffffffff1916145b8061071e575061071d826113fb565b5b9050919050565b60606000805461073490612c61565b80601f016020809104026020016040519081016040528092919081815260200182805461076090612c61565b80156107ad5780601f10610782576101008083540402835291602001916107ad565b820191906000526020600020905b81548152906001019060200180831161079057829003601f168201915b5050505050905090565b60006107c282611465565b6004600083815260200190815260200160002060009054906101000a900473ffffffffffffffffffffffffffffffffffffffff169050919050565b600061080882610b3a565b90508073ffffffffffffffffffffffffffffffffffffffff168373ffffffffffffffffffffffffffffffffffffffff1603610878576040517f08c379a000000000000000000000000000000000000000000000000000000000815260040161086f90612d04565b60405180910390fd5b8073ffffffffffffffffffffffffffffffffffffffff166108976114b0565b73ffffffffffffffffffffffffffffffffffffffff1614806108c657506108c5816108c06114b0565b611202565b5b610905576040517f08c379a00000000000000000000000000000000000000000000000000000000081526004016108fc90612d96565b60405180910390fd5b61090f83836114b8565b505050565b60095481565b7f000000000000000000000000000000000000000000000000000000000000000073ffffffffffffffffffffffffffffffffffffffff163373ffffffffffffffffffffffffffffffffffffffff16146109cc57337f00000000000000000000000000000000000000000000000000000000000000006040517f1cf993f40000000000000000000000000000000000000000000000000000000081526004016109c3929190612db6565b60405180910390fd5b6109d68282611571565b5050565b6109eb6109e56114b0565b8261170c565b610a2a576040517f08c379a0000000000000000000000000000000000000000000000000000000008152600401610a2190612e51565b60405180910390fd5b610a358383836117a1565b505050565b610a426123d1565b6040518060600160405280600a8152602001606481526020016103e8815250905090565b610a6e611a07565b600047905060003373ffffffffffffffffffffffffffffffffffffffff1682604051610a9990612ea2565b60006040518083038185875af1925050503d8060008114610ad6576040519150601f19603f3d011682016040523d82523d6000602084013e610adb565b606091505b5050905080610b16576040517feb74061000000000000000000000000000000000000000000000000000000000815260040160405180910390fd5b5050565b610b358383836040518060200160405280600081525061108e565b505050565b6000806002600084815260200190815260200160002060009054906101000a900473ffffffffffffffffffffffffffffffffffffffff169050600073ffffffffffffffffffffffffffffffffffffffff168173ffffffffffffffffffffffffffffffffffffffff1603610be2576040517f08c379a0000000000000000000000000000000000000000000000000000000008152600401610bd990612f03565b60405180910390fd5b80915050919050565b6060600a8281548110610c0157610c00612f23565b5b906000526020600020018054610c1690612c61565b80601f0160208091040260200160405190810160405280929190818152602001828054610c4290612c61565b8015610c8f5780601f10610c6457610100808354040283529160200191610c8f565b820191906000526020600020905b815481529060010190602001808311610c7257829003601f168201915b50505050509050919050565b6000600954905090565b60008073ffffffffffffffffffffffffffffffffffffffff168273ffffffffffffffffffffffffffffffffffffffff1603610d15576040517f08c379a0000000000000000000000000000000000000000000000000000000008152600401610d0c90612fc4565b60405180910390fd5b600360008373ffffffffffffffffffffffffffffffffffffffff1673ffffffffffffffffffffffffffffffffffffffff168152602001908152602001600020549050919050565b610d64611a07565b610d6e6000611a85565b565b60007f0000000000000000000000000000000000000000000000000000000000000000905090565b60007f0000000000000000000000000000000000000000000000000000000000000000341015610df4576040517f829a019e00000000000000000000000000000000000000000000000000000000815260040160405180910390fd5b7f000000000000000000000000000000000000000000000000000000000000000073ffffffffffffffffffffffffffffffffffffffff16635d3b1d307f00000000000000000000000000000000000000000000000000000000000000007f000000000000000000000000000000000000000000000000000000000000000060037f000000000000000000000000000000000000000000000000000000000000000060016040518663ffffffff1660e01b8152600401610eb795949392919061305c565b6020604051808303816000875af1158015610ed6573d6000803e3d6000fd5b505050506040513d601f19601f82011682018060405250810190610efa91906130c4565b9050336008600083815260200190815260200160002060006101000a81548173ffffffffffffffffffffffffffffffffffffffff021916908373ffffffffffffffffffffffffffffffffffffffff160217905550807f4e1c2f1eae56e29ec039a2b882eec626e6c420ed5a5b93a203c8b8b695e911b133604051610f7e9190612621565b60405180910390a290565b6000600760009054906101000a900473ffffffffffffffffffffffffffffffffffffffff16905090565b606060018054610fc290612c61565b80601f0160208091040260200160405190810160405280929190818152602001828054610fee90612c61565b801561103b5780601f106110105761010080835404028352916020019161103b565b820191906000526020600020905b81548152906001019060200180831161101e57829003601f168201915b5050505050905090565b6110576110506114b0565b8383611b4b565b5050565b60086020528060005260406000206000915054906101000a900473ffffffffffffffffffffffffffffffffffffffff1681565b61109f6110996114b0565b8361170c565b6110de576040517f08c379a00000000000000000000000000000000000000000000000000000000081526004016110d590612e51565b60405180910390fd5b6110ea84848484611cb7565b50505050565b60606110fb82611465565b600060066000848152602001908152602001600020805461111b90612c61565b80601f016020809104026020016040519081016040528092919081815260200182805461114790612c61565b80156111945780601f1061116957610100808354040283529160200191611194565b820191906000526020600020905b81548152906001019060200180831161117757829003601f168201915b5050505050905060006111a5611d13565b905060008151036111ba5781925050506111fd565b6000825111156111ef5780826040516020016111d792919061312d565b604051602081830303815290604052925050506111fd565b6111f884611d2a565b925050505b919050565b6000600560008473ffffffffffffffffffffffffffffffffffffffff1673ffffffffffffffffffffffffffffffffffffffff16815260200190815260200160002060008373ffffffffffffffffffffffffffffffffffffffff1673ffffffffffffffffffffffffffffffffffffffff16815260200190815260200160002060009054906101000a900460ff16905092915050565b61129e611a07565b600073ffffffffffffffffffffffffffffffffffffffff168173ffffffffffffffffffffffffffffffffffffffff160361130d576040517f08c379a0000000000000000000000000000000000000000000000000000000008152600401611304906131c3565b60405180910390fd5b61131681611a85565b50565b60008060009050600061132a610a3a565b905060005b60038110156113c357828510158015611369575081816003811061135657611355612f23565b5b6020020151836113669190613212565b85105b1561138b5780600281111561138157611380612ba0565b5b93505050506113f6565b81816003811061139e5761139d612f23565b5b6020020151836113ae9190613212565b925080806113bb90613268565b91505061132f565b506040517f5d061b4700000000000000000000000000000000000000000000000000000000815260040160405180910390fd5b919050565b60007f01ffc9a7000000000000000000000000000000000000000000000000000000007bffffffffffffffffffffffffffffffffffffffffffffffffffffffff1916827bffffffffffffffffffffffffffffffffffffffffffffffffffffffff1916149050919050565b61146e81611d92565b6114ad576040517f08c379a00000000000000000000000000000000000000000000000000000000081526004016114a490612f03565b60405180910390fd5b50565b600033905090565b816004600083815260200190815260200160002060006101000a81548173ffffffffffffffffffffffffffffffffffffffff021916908373ffffffffffffffffffffffffffffffffffffffff160217905550808273ffffffffffffffffffffffffffffffffffffffff1661152b83610b3a565b73ffffffffffffffffffffffffffffffffffffffff167f8c5be1e5ebec7d5bd14f71427d1e84f3dd0314c0f7b2291e5b200ac8c7c3b92560405160405180910390a45050565b60006008600084815260200190815260200160002060009054906101000a900473ffffffffffffffffffffffffffffffffffffffff1690506000600954905060006103e8846000815181106115c9576115c8612f23565b5b60200260200101516115db91906132df565b905060006115e882611319565b905060016009546115f99190613212565b6009819055506116098484611dfe565b6116cb83600a83600281111561162257611621612ba0565b5b8154811061163357611632612f23565b5b90600052602060002001805461164890612c61565b80601f016020809104026020016040519081016040528092919081815260200182805461167490612c61565b80156116c15780601f10611696576101008083540402835291602001916116c1565b820191906000526020600020905b8154815290600101906020018083116116a457829003601f168201915b5050505050611e1c565b7fab79897476febbd649710b1bd1dc3e93a316d3dee65f65b022ab89a4b7e206b581856040516116fc929190613310565b60405180910390a1505050505050565b60008061171883610b3a565b90508073ffffffffffffffffffffffffffffffffffffffff168473ffffffffffffffffffffffffffffffffffffffff16148061175a57506117598185611202565b5b8061179857508373ffffffffffffffffffffffffffffffffffffffff16611780846107b7565b73ffffffffffffffffffffffffffffffffffffffff16145b91505092915050565b8273ffffffffffffffffffffffffffffffffffffffff166117c182610b3a565b73ffffffffffffffffffffffffffffffffffffffff1614611817576040517f08c379a000000000000000000000000000000000000000000000000000000000815260040161180e906133ab565b60405180910390fd5b600073ffffffffffffffffffffffffffffffffffffffff168273ffffffffffffffffffffffffffffffffffffffff1603611886576040517f08c379a000000000000000000000000000000000000000000000000000000000815260040161187d9061343d565b60405180910390fd5b611891838383611e89565b61189c6000826114b8565b6001600360008573ffffffffffffffffffffffffffffffffffffffff1673ffffffffffffffffffffffffffffffffffffffff16815260200190815260200160002060008282546118ec919061345d565b925050819055506001600360008473ffffffffffffffffffffffffffffffffffffffff1673ffffffffffffffffffffffffffffffffffffffff16815260200190815260200160002060008282546119439190613212565b92505081905550816002600083815260200190815260200160002060006101000a81548173ffffffffffffffffffffffffffffffffffffffff021916908373ffffffffffffffffffffffffffffffffffffffff160217905550808273ffffffffffffffffffffffffffffffffffffffff168473ffffffffffffffffffffffffffffffffffffffff167fddf252ad1be2c89b69c2b068fc378daa952ba7f163c4a11628f55a4df523b3ef60405160405180910390a4611a02838383611e8e565b505050565b611a0f6114b0565b73ffffffffffffffffffffffffffffffffffffffff16611a2d610f89565b73ffffffffffffffffffffffffffffffffffffffff1614611a83576040517f08c379a0000000000000000000000000000000000000000000000000000000008152600401611a7a906134dd565b60405180910390fd5b565b6000600760009054906101000a900473ffffffffffffffffffffffffffffffffffffffff16905081600760006101000a81548173ffffffffffffffffffffffffffffffffffffffff021916908373ffffffffffffffffffffffffffffffffffffffff1602179055508173ffffffffffffffffffffffffffffffffffffffff168173ffffffffffffffffffffffffffffffffffffffff167f8be0079c531659141344cd1fd0a4f28419497f9722a3daafe3b4186f6b6457e060405160405180910390a35050565b8173ffffffffffffffffffffffffffffffffffffffff168373ffffffffffffffffffffffffffffffffffffffff1603611bb9576040517f08c379a0000000000000000000000000000000000000000000000000000000008152600401611bb090613549565b60405180910390fd5b80600560008573ffffffffffffffffffffffffffffffffffffffff1673ffffffffffffffffffffffffffffffffffffffff16815260200190815260200160002060008473ffffffffffffffffffffffffffffffffffffffff1673ffffffffffffffffffffffffffffffffffffffff16815260200190815260200160002060006101000a81548160ff0219169083151502179055508173ffffffffffffffffffffffffffffffffffffffff168373ffffffffffffffffffffffffffffffffffffffff167f17307eab39ab6107e8899845ad3d59bd9653f200f220920489ca2b5937696c3183604051611caa91906124a7565b60405180910390a3505050565b611cc28484846117a1565b611cce84848484611e93565b611d0d576040517f08c379a0000000000000000000000000000000000000000000000000000000008152600401611d04906135db565b60405180910390fd5b50505050565b606060405180602001604052806000815250905090565b6060611d3582611465565b6000611d3f611d13565b90506000815111611d5f5760405180602001604052806000815250611d8a565b80611d698461201a565b604051602001611d7a92919061312d565b6040516020818303038152906040525b915050919050565b60008073ffffffffffffffffffffffffffffffffffffffff166002600084815260200190815260200160002060009054906101000a900473ffffffffffffffffffffffffffffffffffffffff1673ffffffffffffffffffffffffffffffffffffffff1614159050919050565b611e1882826040518060200160405280600081525061217a565b5050565b611e2582611d92565b611e64576040517f08c379a0000000000000000000000000000000000000000000000000000000008152600401611e5b9061366d565b60405180910390fd5b80600660008481526020019081526020016000209081611e849190613839565b505050565b505050565b505050565b6000611eb48473ffffffffffffffffffffffffffffffffffffffff166121d5565b1561200d578373ffffffffffffffffffffffffffffffffffffffff1663150b7a02611edd6114b0565b8786866040518563ffffffff1660e01b8152600401611eff9493929190613960565b6020604051808303816000875af1925050508015611f3b57506040513d601f19601f82011682018060405250810190611f3891906139c1565b60015b611fbd573d8060008114611f6b576040519150601f19603f3d011682016040523d82523d6000602084013e611f70565b606091505b506000815103611fb5576040517f08c379a0000000000000000000000000000000000000000000000000000000008152600401611fac906135db565b60405180910390fd5b805181602001fd5b63150b7a0260e01b7bffffffffffffffffffffffffffffffffffffffffffffffffffffffff1916817bffffffffffffffffffffffffffffffffffffffffffffffffffffffff191614915050612012565b600190505b949350505050565b606060008203612061576040518060400160405280600181526020017f30000000000000000000000000000000000000000000000000000000000000008152509050612175565b600082905060005b6000821461209357808061207c90613268565b915050600a8261208c91906139ee565b9150612069565b60008167ffffffffffffffff8111156120af576120ae6126d7565b5b6040519080825280601f01601f1916602001820160405280156120e15781602001600182028036833780820191505090505b5090505b6000851461216e576001826120fa919061345d565b9150600a8561210991906132df565b60306121159190613212565b60f81b81838151811061212b5761212a612f23565b5b60200101907effffffffffffffffffffffffffffffffffffffffffffffffffffffffffffff1916908160001a905350600a8561216791906139ee565b94506120e5565b8093505050505b919050565b61218483836121f8565b6121916000848484611e93565b6121d0576040517f08c379a00000000000000000000000000000000000000000000000000000000081526004016121c7906135db565b60405180910390fd5b505050565b6000808273ffffffffffffffffffffffffffffffffffffffff163b119050919050565b600073ffffffffffffffffffffffffffffffffffffffff168273ffffffffffffffffffffffffffffffffffffffff1603612267576040517f08c379a000000000000000000000000000000000000000000000000000000000815260040161225e90613a6b565b60405180910390fd5b61227081611d92565b156122b0576040517f08c379a00000000000000000000000000000000000000000000000000000000081526004016122a790613ad7565b60405180910390fd5b6122bc60008383611e89565b6001600360008473ffffffffffffffffffffffffffffffffffffffff1673ffffffffffffffffffffffffffffffffffffffff168152602001908152602001600020600082825461230c9190613212565b92505081905550816002600083815260200190815260200160002060006101000a81548173ffffffffffffffffffffffffffffffffffffffff021916908373ffffffffffffffffffffffffffffffffffffffff160217905550808273ffffffffffffffffffffffffffffffffffffffff16600073ffffffffffffffffffffffffffffffffffffffff167fddf252ad1be2c89b69c2b068fc378daa952ba7f163c4a11628f55a4df523b3ef60405160405180910390a46123cd60008383611e8e565b5050565b6040518060600160405280600390602082028036833780820191505090505090565b6000604051905090565b600080fd5b600080fd5b60007fffffffff0000000000000000000000000000000000000000000000000000000082169050919050565b61243c81612407565b811461244757600080fd5b50565b60008135905061245981612433565b92915050565b600060208284031215612475576124746123fd565b5b60006124838482850161244a565b91505092915050565b60008115159050919050565b6124a18161248c565b82525050565b60006020820190506124bc6000830184612498565b92915050565b600081519050919050565b600082825260208201905092915050565b60005b838110156124fc5780820151818401526020810190506124e1565b8381111561250b576000848401525b50505050565b6000601f19601f8301169050919050565b600061252d826124c2565b61253781856124cd565b93506125478185602086016124de565b61255081612511565b840191505092915050565b600060208201905081810360008301526125758184612522565b905092915050565b6000819050919050565b6125908161257d565b811461259b57600080fd5b50565b6000813590506125ad81612587565b92915050565b6000602082840312156125c9576125c86123fd565b5b60006125d78482850161259e565b91505092915050565b600073ffffffffffffffffffffffffffffffffffffffff82169050919050565b600061260b826125e0565b9050919050565b61261b81612600565b82525050565b60006020820190506126366000830184612612565b92915050565b61264581612600565b811461265057600080fd5b50565b6000813590506126628161263c565b92915050565b6000806040838503121561267f5761267e6123fd565b5b600061268d85828601612653565b925050602061269e8582860161259e565b9150509250929050565b6126b18161257d565b82525050565b60006020820190506126cc60008301846126a8565b92915050565b600080fd5b7f4e487b7100000000000000000000000000000000000000000000000000000000600052604160045260246000fd5b61270f82612511565b810181811067ffffffffffffffff8211171561272e5761272d6126d7565b5b80604052505050565b60006127416123f3565b905061274d8282612706565b919050565b600067ffffffffffffffff82111561276d5761276c6126d7565b5b602082029050602081019050919050565b600080fd5b600061279661279184612752565b612737565b905080838252602082019050602084028301858111156127b9576127b861277e565b5b835b818110156127e257806127ce888261259e565b8452602084019350506020810190506127bb565b5050509392505050565b600082601f830112612801576128006126d2565b5b8135612811848260208601612783565b91505092915050565b60008060408385031215612831576128306123fd565b5b600061283f8582860161259e565b925050602083013567ffffffffffffffff8111156128605761285f612402565b5b61286c858286016127ec565b9150509250929050565b60008060006060848603121561288f5761288e6123fd565b5b600061289d86828701612653565b93505060206128ae86828701612653565b92505060406128bf8682870161259e565b9150509250925092565b600060039050919050565b600081905092915050565b6000819050919050565b6128f28161257d565b82525050565b600061290483836128e9565b60208301905092915050565b6000602082019050919050565b612926816128c9565b61293081846128d4565b925061293b826128df565b8060005b8381101561296c57815161295387826128f8565b965061295e83612910565b92505060018101905061293f565b505050505050565b6000606082019050612989600083018461291d565b92915050565b6000602082840312156129a5576129a46123fd565b5b60006129b384828501612653565b91505092915050565b6129c58161248c565b81146129d057600080fd5b50565b6000813590506129e2816129bc565b92915050565b600080604083850312156129ff576129fe6123fd565b5b6000612a0d85828601612653565b9250506020612a1e858286016129d3565b9150509250929050565b600080fd5b600067ffffffffffffffff821115612a4857612a476126d7565b5b612a5182612511565b9050602081019050919050565b82818337600083830152505050565b6000612a80612a7b84612a2d565b612737565b905082815260208101848484011115612a9c57612a9b612a28565b5b612aa7848285612a5e565b509392505050565b600082601f830112612ac457612ac36126d2565b5b8135612ad4848260208601612a6d565b91505092915050565b60008060008060808587031215612af757612af66123fd565b5b6000612b0587828801612653565b9450506020612b1687828801612653565b9350506040612b278782880161259e565b925050606085013567ffffffffffffffff811115612b4857612b47612402565b5b612b5487828801612aaf565b91505092959194509250565b60008060408385031215612b7757612b766123fd565b5b6000612b8585828601612653565b9250506020612b9685828601612653565b9150509250929050565b7f4e487b7100000000000000000000000000000000000000000000000000000000600052602160045260246000fd5b60038110612be057612bdf612ba0565b5b50565b6000819050612bf182612bcf565b919050565b6000612c0182612be3565b9050919050565b612c1181612bf6565b82525050565b6000602082019050612c2c6000830184612c08565b92915050565b7f4e487b7100000000000000000000000000000000000000000000000000000000600052602260045260246000fd5b60006002820490506001821680612c7957607f821691505b602082108103612c8c57612c8b612c32565b5b50919050565b7f4552433732313a20617070726f76616c20746f2063757272656e74206f776e6560008201527f7200000000000000000000000000000000000000000000000000000000000000602082015250565b6000612cee6021836124cd565b9150612cf982612c92565b604082019050919050565b60006020820190508181036000830152612d1d81612ce1565b9050919050565b7f4552433732313a20617070726f76652063616c6c6572206973206e6f7420746f60008201527f6b656e206f776e6572206e6f7220617070726f76656420666f7220616c6c0000602082015250565b6000612d80603e836124cd565b9150612d8b82612d24565b604082019050919050565b60006020820190508181036000830152612daf81612d73565b9050919050565b6000604082019050612dcb6000830185612612565b612dd86020830184612612565b9392505050565b7f4552433732313a2063616c6c6572206973206e6f7420746f6b656e206f776e6560008201527f72206e6f7220617070726f766564000000000000000000000000000000000000602082015250565b6000612e3b602e836124cd565b9150612e4682612ddf565b604082019050919050565b60006020820190508181036000830152612e6a81612e2e565b9050919050565b600081905092915050565b50565b6000612e8c600083612e71565b9150612e9782612e7c565b600082019050919050565b6000612ead82612e7f565b9150819050919050565b7f4552433732313a20696e76616c696420746f6b656e2049440000000000000000600082015250565b6000612eed6018836124cd565b9150612ef882612eb7565b602082019050919050565b60006020820190508181036000830152612f1c81612ee0565b9050919050565b7f4e487b7100000000000000000000000000000000000000000000000000000000600052603260045260246000fd5b7f4552433732313a2061646472657373207a65726f206973206e6f74206120766160008201527f6c6964206f776e65720000000000000000000000000000000000000000000000602082015250565b6000612fae6029836124cd565b9150612fb982612f52565b604082019050919050565b60006020820190508181036000830152612fdd81612fa1565b9050919050565b6000819050919050565b612ff781612fe4565b82525050565b600067ffffffffffffffff82169050919050565b61301a81612ffd565b82525050565b600061ffff82169050919050565b61303781613020565b82525050565b600063ffffffff82169050919050565b6130568161303d565b82525050565b600060a0820190506130716000830188612fee565b61307e6020830187613011565b61308b604083018661302e565b613098606083018561304d565b6130a5608083018461304d565b9695505050505050565b6000815190506130be81612587565b92915050565b6000602082840312156130da576130d96123fd565b5b60006130e8848285016130af565b91505092915050565b600081905092915050565b6000613107826124c2565b61311181856130f1565b93506131218185602086016124de565b80840191505092915050565b600061313982856130fc565b915061314582846130fc565b91508190509392505050565b7f4f776e61626c653a206e6577206f776e657220697320746865207a65726f206160008201527f6464726573730000000000000000000000000000000000000000000000000000602082015250565b60006131ad6026836124cd565b91506131b882613151565b604082019050919050565b600060208201905081810360008301526131dc816131a0565b9050919050565b7f4e487b7100000000000000000000000000000000000000000000000000000000600052601160045260246000fd5b600061321d8261257d565b91506132288361257d565b9250827fffffffffffffffffffffffffffffffffffffffffffffffffffffffffffffffff0382111561325d5761325c6131e3565b5b828201905092915050565b60006132738261257d565b91507fffffffffffffffffffffffffffffffffffffffffffffffffffffffffffffffff82036132a5576132a46131e3565b5b600182019050919050565b7f4e487b7100000000000000000000000000000000000000000000000000000000600052601260045260246000fd5b60006132ea8261257d565b91506132f58361257d565b925082613305576133046132b0565b5b828206905092915050565b60006040820190506133256000830185612c08565b6133326020830184612612565b9392505050565b7f4552433732313a207472616e736665722066726f6d20696e636f72726563742060008201527f6f776e6572000000000000000000000000000000000000000000000000000000602082015250565b60006133956025836124cd565b91506133a082613339565b604082019050919050565b600060208201905081810360008301526133c481613388565b9050919050565b7f4552433732313a207472616e7366657220746f20746865207a65726f2061646460008201527f7265737300000000000000000000000000000000000000000000000000000000602082015250565b60006134276024836124cd565b9150613432826133cb565b604082019050919050565b600060208201905081810360008301526134568161341a565b9050919050565b60006134688261257d565b91506134738361257d565b925082821015613486576134856131e3565b5b828203905092915050565b7f4f776e61626c653a2063616c6c6572206973206e6f7420746865206f776e6572600082015250565b60006134c76020836124cd565b91506134d282613491565b602082019050919050565b600060208201905081810360008301526134f6816134ba565b9050919050565b7f4552433732313a20617070726f766520746f2063616c6c657200000000000000600082015250565b60006135336019836124cd565b915061353e826134fd565b602082019050919050565b6000602082019050818103600083015261356281613526565b9050919050565b7f4552433732313a207472616e7366657220746f206e6f6e20455243373231526560008201527f63656976657220696d706c656d656e7465720000000000000000000000000000602082015250565b60006135c56032836124cd565b91506135d082613569565b604082019050919050565b600060208201905081810360008301526135f4816135b8565b9050919050565b7f45524337323155524953746f726167653a2055524920736574206f66206e6f6e60008201527f6578697374656e7420746f6b656e000000000000000000000000000000000000602082015250565b6000613657602e836124cd565b9150613662826135fb565b604082019050919050565b600060208201905081810360008301526136868161364a565b9050919050565b60008190508160005260206000209050919050565b60006020601f8301049050919050565b600082821b905092915050565b6000600883026136ef7fffffffffffffffffffffffffffffffffffffffffffffffffffffffffffffffff826136b2565b6136f986836136b2565b95508019841693508086168417925050509392505050565b6000819050919050565b600061373661373161372c8461257d565b613711565b61257d565b9050919050565b6000819050919050565b6137508361371b565b61376461375c8261373d565b8484546136bf565b825550505050565b600090565b61377961376c565b613784818484613747565b505050565b5b818110156137a85761379d600082613771565b60018101905061378a565b5050565b601f8211156137ed576137be8161368d565b6137c7846136a2565b810160208510156137d6578190505b6137ea6137e2856136a2565b830182613789565b50505b505050565b600082821c905092915050565b6000613810600019846008026137f2565b1980831691505092915050565b600061382983836137ff565b9150826002028217905092915050565b613842826124c2565b67ffffffffffffffff81111561385b5761385a6126d7565b5b6138658254612c61565b6138708282856137ac565b600060209050601f8311600181146138a35760008415613891578287015190505b61389b858261381d565b865550613903565b601f1984166138b18661368d565b60005b828110156138d9578489015182556001820191506020850194506020810190506138b4565b868310156138f657848901516138f2601f8916826137ff565b8355505b6001600288020188555050505b505050505050565b600081519050919050565b600082825260208201905092915050565b60006139328261390b565b61393c8185613916565b935061394c8185602086016124de565b61395581612511565b840191505092915050565b60006080820190506139756000830187612612565b6139826020830186612612565b61398f60408301856126a8565b81810360608301526139a18184613927565b905095945050505050565b6000815190506139bb81612433565b92915050565b6000602082840312156139d7576139d66123fd565b5b60006139e5848285016139ac565b91505092915050565b60006139f98261257d565b9150613a048361257d565b925082613a1457613a136132b0565b5b828204905092915050565b7f4552433732313a206d696e7420746f20746865207a65726f2061646472657373600082015250565b6000613a556020836124cd565b9150613a6082613a1f565b602082019050919050565b60006020820190508181036000830152613a8481613a48565b9050919050565b7f4552433732313a20746f6b656e20616c7265616479206d696e74656400000000600082015250565b6000613ac1601c836124cd565b9150613acc82613a8b565b602082019050919050565b60006020820190508181036000830152613af081613ab4565b905091905056fea2646970667358221220ac4ed2acdc2ea1c42bd471edc157fbb2ad7b246ac5d0b80111bb627aea24baad64736f6c634300080f0033",
  "linkReferences": {},
  "deployedLinkReferences": {}
}