{
  "_format": "hh-sol-artifact-1",
  "contractName": "RandomNFT",
  "sourceName": "contracts/RandomNFT.sol",
  "abi": [
    {
      "inputs": [
        {
          "internalType": "address",
          "name": "coordinator",
          "type": "address"
        },
        {
          "internalType": "uint64",
          "name": "subscriptionId",
          "type": "uint64"
        },
        {
          "internalType": "bytes32",
          "name": "gasLane",
          "type": "bytes32"
        },
        {
          "internalType": "uint32",
          "name": "callbackGasLimit",
          "type": "uint32"
        },
        {
          "internalType": "string[3]",
          "name": "tokenURIs",
          "type": "string[3]"
        },
        {
          "internalType": "uint256",
          "name": "mintFee",
          "type": "uint256"
        }
      ],
      "stateMutability": "nonpayable",
      "type": "constructor"
    },
    {
      "inputs": [
        {
          "internalType": "address",
          "name": "have",
          "type": "address"
        },
        {
          "internalType": "address",
          "name": "want",
          "type": "address"
        }
      ],
      "name": "OnlyCoordinatorCanFulfill",
      "type": "error"
    },
    {
      "inputs": [],
      "name": "RandomNFT__NotEnoughETHSent",
      "type": "error"
    },
    {
      "inputs": [],
      "name": "RandomNFT__RangeOutOfScope",
      "type": "error"
    },
    {
      "inputs": [],
      "name": "RandomNFT__TransferFailed",
      "type": "error"
    },
    {
      "anonymous": false,
      "inputs": [
        {
          "indexed": true,
          "internalType": "address",
          "name": "owner",
          "type": "address"
        },
        {
          "indexed": true,
          "internalType": "address",
          "name": "approved",
          "type": "address"
        },
        {
          "indexed": true,
          "internalType": "uint256",
          "name": "tokenId",
          "type": "uint256"
        }
      ],
      "name": "Approval",
      "type": "event"
    },
    {
      "anonymous": false,
      "inputs": [
        {
          "indexed": true,
          "internalType": "address",
          "name": "owner",
          "type": "address"
        },
        {
          "indexed": true,
          "internalType": "address",
          "name": "operator",
          "type": "address"
        },
        {
          "indexed": false,
          "internalType": "bool",
          "name": "approved",
          "type": "bool"
        }
      ],
      "name": "ApprovalForAll",
      "type": "event"
    },
    {
      "anonymous": false,
      "inputs": [
        {
          "indexed": false,
          "internalType": "enum RandomNFT.Selection",
          "name": "selection",
          "type": "uint8"
        },
        {
          "indexed": false,
          "internalType": "address",
          "name": "minter",
          "type": "address"
        }
      ],
      "name": "NFTMinted",
      "type": "event"
    },
    {
      "anonymous": false,
      "inputs": [
        {
          "indexed": true,
          "internalType": "uint256",
          "name": "requestId",
          "type": "uint256"
        },
        {
          "indexed": false,
          "internalType": "address",
          "name": "requester",
          "type": "address"
        }
      ],
      "name": "NFTRequested",
      "type": "event"
    },
    {
      "anonymous": false,
      "inputs": [
        {
          "indexed": true,
          "internalType": "address",
          "name": "previousOwner",
          "type": "address"
        },
        {
          "indexed": true,
          "internalType": "address",
          "name": "newOwner",
          "type": "address"
        }
      ],
      "name": "OwnershipTransferred",
      "type": "event"
    },
    {
      "anonymous": false,
      "inputs": [
        {
          "indexed": true,
          "internalType": "address",
          "name": "from",
          "type": "address"
        },
        {
          "indexed": true,
          "internalType": "address",
          "name": "to",
          "type": "address"
        },
        {
          "indexed": true,
          "internalType": "uint256",
          "name": "tokenId",
          "type": "uint256"
        }
      ],
      "name": "Transfer",
      "type": "event"
    },
    {
      "inputs": [
        {
          "internalType": "address",
          "name": "to",
          "type": "address"
        },
        {
          "internalType": "uint256",
          "name": "tokenId",
          "type": "uint256"
        }
      ],
      "name": "approve",
      "outputs": [],
      "stateMutability": "nonpayable",
      "type": "function"
    },
    {
      "inputs": [
        {
          "internalType": "address",
          "name": "owner",
          "type": "address"
        }
      ],
      "name": "balanceOf",
      "outputs": [
        {
          "internalType": "uint256",
          "name": "",
          "type": "uint256"
        }
      ],
      "stateMutability": "view",
      "type": "function"
    },
    {
      "inputs": [
        {
          "internalType": "uint256",
          "name": "tokenId",
          "type": "uint256"
        }
      ],
      "name": "getApproved",
      "outputs": [
        {
          "internalType": "address",
          "name": "",
          "type": "address"
        }
      ],
      "stateMutability": "view",
      "type": "function"
    },
    {
      "inputs": [],
      "name": "getMintFee",
      "outputs": [
        {
          "internalType": "uint256",
          "name": "",
          "type": "uint256"
        }
      ],
      "stateMutability": "view",
      "type": "function"
    },
    {
      "inputs": [],
      "name": "getTokenCounter",
      "outputs": [
        {
          "internalType": "uint256",
          "name": "",
          "type": "uint256"
        }
      ],
      "stateMutability": "view",
      "type": "function"
    },
    {
      "inputs": [
        {
          "internalType": "uint256",
          "name": "index",
          "type": "uint256"
        }
      ],
      "name": "getTokenURIs",
      "outputs": [
        {
          "internalType": "string",
          "name": "",
          "type": "string"
        }
      ],
      "stateMutability": "view",
      "type": "function"
    },
    {
      "inputs": [
        {
          "internalType": "address",
          "name": "owner",
          "type": "address"
        },
        {
          "internalType": "address",
          "name": "operator",
          "type": "address"
        }
      ],
      "name": "isApprovedForAll",
      "outputs": [
        {
          "internalType": "bool",
          "name": "",
          "type": "bool"
        }
      ],
      "stateMutability": "view",
      "type": "function"
    },
    {
      "inputs": [],
      "name": "name",
      "outputs": [
        {
          "internalType": "string",
          "name": "",
          "type": "string"
        }
      ],
      "stateMutability": "view",
      "type": "function"
    },
    {
      "inputs": [],
      "name": "owner",
      "outputs": [
        {
          "internalType": "address",
          "name": "",
          "type": "address"
        }
      ],
      "stateMutability": "view",
      "type": "function"
    },
    {
      "inputs": [
        {
          "internalType": "uint256",
          "name": "tokenId",
          "type": "uint256"
        }
      ],
      "name": "ownerOf",
      "outputs": [
        {
          "internalType": "address",
          "name": "",
          "type": "address"
        }
      ],
      "stateMutability": "view",
      "type": "function"
    },
    {
      "inputs": [
        {
          "internalType": "uint256",
          "name": "requestId",
          "type": "uint256"
        },
        {
          "internalType": "uint256[]",
          "name": "randomWords",
          "type": "uint256[]"
        }
      ],
      "name": "rawFulfillRandomWords",
      "outputs": [],
      "stateMutability": "nonpayable",
      "type": "function"
    },
    {
      "inputs": [],
      "name": "renounceOwnership",
      "outputs": [],
      "stateMutability": "nonpayable",
      "type": "function"
    },
    {
      "inputs": [],
      "name": "requestNFT",
      "outputs": [
        {
          "internalType": "uint256",
          "name": "requestId",
          "type": "uint256"
        }
      ],
      "stateMutability": "payable",
      "type": "function"
    },
    {
      "inputs": [],
      "name": "s_tokenCounter",
      "outputs": [
        {
          "internalType": "uint256",
          "name": "",
          "type": "uint256"
        }
      ],
      "stateMutability": "view",
      "type": "function"
    },
    {
      "inputs": [
        {
          "internalType": "address",
          "name": "from",
          "type": "address"
        },
        {
          "internalType": "address",
          "name": "to",
          "type": "address"
        },
        {
          "internalType": "uint256",
          "name": "tokenId",
          "type": "uint256"
        }
      ],
      "name": "safeTransferFrom",
      "outputs": [],
      "stateMutability": "nonpayable",
      "type": "function"
    },
    {
      "inputs": [
        {
          "internalType": "address",
          "name": "from",
          "type": "address"
        },
        {
          "internalType": "address",
          "name": "to",
          "type": "address"
        },
        {
          "internalType": "uint256",
          "name": "tokenId",
          "type": "uint256"
        },
        {
          "internalType": "bytes",
          "name": "data",
          "type": "bytes"
        }
      ],
      "name": "safeTransferFrom",
      "outputs": [],
      "stateMutability": "nonpayable",
      "type": "function"
    },
    {
      "inputs": [
        {
          "internalType": "uint256",
          "name": "moddedRNG",
          "type": "uint256"
        }
      ],
      "name": "selectionFromModdedRNG",
      "outputs": [
        {
          "internalType": "enum RandomNFT.Selection",
          "name": "",
          "type": "uint8"
        }
      ],
      "stateMutability": "pure",
      "type": "function"
    },
    {
      "inputs": [
        {
          "internalType": "address",
          "name": "operator",
          "type": "address"
        },
        {
          "internalType": "bool",
          "name": "approved",
          "type": "bool"
        }
      ],
      "name": "setApprovalForAll",
      "outputs": [],
      "stateMutability": "nonpayable",
      "type": "function"
    },
    {
      "inputs": [],
      "name": "setChanceArray",
      "outputs": [
        {
          "internalType": "uint256[3]",
          "name": "",
          "type": "uint256[3]"
        }
      ],
      "stateMutability": "pure",
      "type": "function"
    },
    {
      "inputs": [
        {
          "internalType": "bytes4",
          "name": "interfaceId",
          "type": "bytes4"
        }
      ],
      "name": "supportsInterface",
      "outputs": [
        {
          "internalType": "bool",
          "name": "",
          "type": "bool"
        }
      ],
      "stateMutability": "view",
      "type": "function"
    },
    {
      "inputs": [],
      "name": "symbol",
      "outputs": [
        {
          "internalType": "string",
          "name": "",
          "type": "string"
        }
      ],
      "stateMutability": "view",
      "type": "function"
    },
    {
      "inputs": [
        {
          "internalType": "uint256",
          "name": "tokenId",
          "type": "uint256"
        }
      ],
      "name": "tokenURI",
      "outputs": [
        {
          "internalType": "string",
          "name": "",
          "type": "string"
        }
      ],
      "stateMutability": "view",
      "type": "function"
    },
    {
      "inputs": [
        {
          "internalType": "address",
          "name": "from",
          "type": "address"
        },
        {
          "internalType": "address",
          "name": "to",
          "type": "address"
        },
        {
          "internalType": "uint256",
          "name": "tokenId",
          "type": "uint256"
        }
      ],
      "name": "transferFrom",
      "outputs": [],
      "stateMutability": "nonpayable",
      "type": "function"
    },
    {
      "inputs": [
        {
          "internalType": "address",
          "name": "newOwner",
          "type": "address"
        }
      ],
      "name": "transferOwnership",
      "outputs": [],
      "stateMutability": "nonpayable",
      "type": "function"
    },
    {
      "inputs": [],
      "name": "withdraw",
      "outputs": [],
      "stateMutability": "nonpayable",
      "type": "function"
    }
  ],
  "bytecode": "0x6101406040523480156200001257600080fd5b506040516200463c3803806200463c833981810160405281019062000038919062000759565b856040518060400160405280601581526020017f42696e617279204e465420436f6c6c656374696f6e00000000000000000000008152506040518060400160405280600381526020017f424e4300000000000000000000000000000000000000000000000000000000008152508160009081620000b6919062000a55565b508060019081620000c8919062000a55565b505050620000eb620000df620001b660201b60201c565b620001be60201b60201c565b8073ffffffffffffffffffffffffffffffffffffffff1660808173ffffffffffffffffffffffffffffffffffffffff1681525050508573ffffffffffffffffffffffffffffffffffffffff1660a08173ffffffffffffffffffffffffffffffffffffffff16815250508467ffffffffffffffff1660c08167ffffffffffffffff16815250508360e081815250508061012081815250508263ffffffff166101008163ffffffff168152505081600a906003620001a992919062000284565b5050505050505062000b3c565b600033905090565b6000600760009054906101000a900473ffffffffffffffffffffffffffffffffffffffff16905081600760006101000a81548173ffffffffffffffffffffffffffffffffffffffff021916908373ffffffffffffffffffffffffffffffffffffffff1602179055508173ffffffffffffffffffffffffffffffffffffffff168173ffffffffffffffffffffffffffffffffffffffff167f8be0079c531659141344cd1fd0a4f28419497f9722a3daafe3b4186f6b6457e060405160405180910390a35050565b828054828255906000526020600020908101928215620002d1579160200282015b82811115620002d0578251829081620002bf919062000a55565b5091602001919060010190620002a5565b5b509050620002e09190620002e4565b5090565b5b80821115620003085760008181620002fe91906200030c565b50600101620002e5565b5090565b5080546200031a906200084e565b6000825580601f106200032e57506200034f565b601f0160209004906000526020600020908101906200034e919062000352565b5b50565b5b808211156200036d57600081600090555060010162000353565b5090565b6000604051905090565b600080fd5b600080fd5b600073ffffffffffffffffffffffffffffffffffffffff82169050919050565b6000620003b28262000385565b9050919050565b620003c481620003a5565b8114620003d057600080fd5b50565b600081519050620003e481620003b9565b92915050565b600067ffffffffffffffff82169050919050565b6200040981620003ea565b81146200041557600080fd5b50565b6000815190506200042981620003fe565b92915050565b6000819050919050565b62000444816200042f565b81146200045057600080fd5b50565b600081519050620004648162000439565b92915050565b600063ffffffff82169050919050565b62000485816200046a565b81146200049157600080fd5b50565b600081519050620004a5816200047a565b92915050565b600080fd5b6000601f19601f8301169050919050565b7f4e487b7100000000000000000000000000000000000000000000000000000000600052604160045260246000fd5b620004fb82620004b0565b810181811067ffffffffffffffff821117156200051d576200051c620004c1565b5b80604052505050565b60006200053262000371565b9050620005408282620004f0565b919050565b600067ffffffffffffffff821115620005635762000562620004c1565b5b602082029050919050565b600080fd5b600080fd5b600067ffffffffffffffff821115620005965762000595620004c1565b5b620005a182620004b0565b9050602081019050919050565b60005b83811015620005ce578082015181840152602081019050620005b1565b83811115620005de576000848401525b50505050565b6000620005fb620005f58462000578565b62000526565b9050828152602081018484840111156200061a576200061962000573565b5b62000627848285620005ae565b509392505050565b600082601f830112620006475762000646620004ab565b5b815162000659848260208601620005e4565b91505092915050565b600062000679620006738462000545565b62000526565b905080602084028301858111156200069657620006956200056e565b5b835b81811015620006e457805167ffffffffffffffff811115620006bf57620006be620004ab565b5b808601620006ce89826200062f565b8552602085019450505060208101905062000698565b5050509392505050565b600082601f830112620007065762000705620004ab565b5b60036200071584828562000662565b91505092915050565b6000819050919050565b62000733816200071e565b81146200073f57600080fd5b50565b600081519050620007538162000728565b92915050565b60008060008060008060c087890312156200077957620007786200037b565b5b60006200078989828a01620003d3565b96505060206200079c89828a0162000418565b9550506040620007af89828a0162000453565b9450506060620007c289828a0162000494565b935050608087015167ffffffffffffffff811115620007e657620007e562000380565b5b620007f489828a01620006ee565b92505060a06200080789828a0162000742565b9150509295509295509295565b600081519050919050565b7f4e487b7100000000000000000000000000000000000000000000000000000000600052602260045260246000fd5b600060028204905060018216806200086757607f821691505b6020821081036200087d576200087c6200081f565b5b50919050565b60008190508160005260206000209050919050565b60006020601f8301049050919050565b600082821b905092915050565b600060088302620008e77fffffffffffffffffffffffffffffffffffffffffffffffffffffffffffffffff82620008a8565b620008f38683620008a8565b95508019841693508086168417925050509392505050565b6000819050919050565b600062000936620009306200092a846200071e565b6200090b565b6200071e565b9050919050565b6000819050919050565b620009528362000915565b6200096a62000961826200093d565b848454620008b5565b825550505050565b600090565b6200098162000972565b6200098e81848462000947565b505050565b5b81811015620009b657620009aa60008262000977565b60018101905062000994565b5050565b601f82111562000a0557620009cf8162000883565b620009da8462000898565b81016020851015620009ea578190505b62000a02620009f98562000898565b83018262000993565b50505b505050565b600082821c905092915050565b600062000a2a6000198460080262000a0a565b1980831691505092915050565b600062000a45838362000a17565b9150826002028217905092915050565b62000a608262000814565b67ffffffffffffffff81111562000a7c5762000a7b620004c1565b5b62000a8882546200084e565b62000a95828285620009ba565b600060209050601f83116001811462000acd576000841562000ab8578287015190505b62000ac4858262000a37565b86555062000b34565b601f19841662000add8662000883565b60005b8281101562000b075784890151825560018201915060208501945060208101905062000ae0565b8683101562000b27578489015162000b23601f89168262000a17565b8355505b6001600288020188555050505b505050505050565b60805160a05160c05160e0516101005161012051613aa262000b9a60003960008181610d1c0152610d4401526000610e1e01526000610dda01526000610dfb01526000610d9e0152600081816108c401526109180152613aa26000f3fe6080604052600436106101665760003560e01c80636e02007d116100d157806395d89b411161008a578063c87b56dd11610064578063c87b56dd1461050b578063e985e9c514610548578063f2fde38b14610585578063f359462a146105ae57610166565b806395d89b411461048e578063a22cb465146104b9578063b88d4fde146104e257610166565b80636e02007d1461039b57806370a08231146103c6578063715018a6146104035780637a5caab31461041a5780637abd25d1146104455780638da5cb5b1461046357610166565b806323b872dd1161012357806323b872dd1461028d5780633ca63262146102b65780633ccfd60b146102e157806342842e0e146102f85780636352211e14610321578063642241201461035e57610166565b806301ffc9a71461016b57806306fdde03146101a8578063081812fc146101d3578063095ea7b3146102105780630b21a83b146102395780631fe543e314610264575b600080fd5b34801561017757600080fd5b50610192600480360381019061018d91906123d4565b6105eb565b60405161019f919061241c565b60405180910390f35b3480156101b457600080fd5b506101bd6106cd565b6040516101ca91906124d0565b60405180910390f35b3480156101df57600080fd5b506101fa60048036038101906101f59190612528565b61075f565b6040516102079190612596565b60405180910390f35b34801561021c57600080fd5b50610237600480360381019061023291906125dd565b6107a5565b005b34801561024557600080fd5b5061024e6108bc565b60405161025b919061262c565b60405180910390f35b34801561027057600080fd5b5061028b6004803603810190610286919061278f565b6108c2565b005b34801561029957600080fd5b506102b460048036038101906102af91906127eb565b610982565b005b3480156102c257600080fd5b506102cb6109e2565b6040516102d891906128e9565b60405180910390f35b3480156102ed57600080fd5b506102f6610a0e565b005b34801561030457600080fd5b5061031f600480360381019061031a91906127eb565b610ac2565b005b34801561032d57600080fd5b5061034860048036038101906103439190612528565b610ae2565b6040516103559190612596565b60405180910390f35b34801561036a57600080fd5b5061038560048036038101906103809190612528565b610b93565b60405161039291906124d0565b60405180910390f35b3480156103a757600080fd5b506103b0610c43565b6040516103bd919061262c565b60405180910390f35b3480156103d257600080fd5b506103ed60048036038101906103e89190612904565b610c4d565b6040516103fa919061262c565b60405180910390f35b34801561040f57600080fd5b50610418610d04565b005b34801561042657600080fd5b5061042f610d18565b60405161043c919061262c565b60405180910390f35b61044d610d40565b60405161045a919061262c565b60405180910390f35b34801561046f57600080fd5b50610478610f31565b6040516104859190612596565b60405180910390f35b34801561049a57600080fd5b506104a3610f5b565b6040516104b091906124d0565b60405180910390f35b3480156104c557600080fd5b506104e060048036038101906104db919061295d565b610fed565b005b3480156104ee57600080fd5b5061050960048036038101906105049190612a52565b611003565b005b34801561051757600080fd5b50610532600480360381019061052d9190612528565b611065565b60405161053f91906124d0565b60405180910390f35b34801561055457600080fd5b5061056f600480360381019061056a9190612ad5565b611177565b60405161057c919061241c565b60405180910390f35b34801561059157600080fd5b506105ac60048036038101906105a79190612904565b61120b565b005b3480156105ba57600080fd5b506105d560048036038101906105d09190612528565b61128e565b6040516105e29190612b8c565b60405180910390f35b60007f80ac58cd000000000000000000000000000000000000000000000000000000007bffffffffffffffffffffffffffffffffffffffffffffffffffffffff1916827bffffffffffffffffffffffffffffffffffffffffffffffffffffffff191614806106b657507f5b5e139f000000000000000000000000000000000000000000000000000000007bffffffffffffffffffffffffffffffffffffffffffffffffffffffff1916827bffffffffffffffffffffffffffffffffffffffffffffffffffffffff1916145b806106c657506106c582611370565b5b9050919050565b6060600080546106dc90612bd6565b80601f016020809104026020016040519081016040528092919081815260200182805461070890612bd6565b80156107555780601f1061072a57610100808354040283529160200191610755565b820191906000526020600020905b81548152906001019060200180831161073857829003601f168201915b5050505050905090565b600061076a826113da565b6004600083815260200190815260200160002060009054906101000a900473ffffffffffffffffffffffffffffffffffffffff169050919050565b60006107b082610ae2565b90508073ffffffffffffffffffffffffffffffffffffffff168373ffffffffffffffffffffffffffffffffffffffff1603610820576040517f08c379a000000000000000000000000000000000000000000000000000000000815260040161081790612c79565b60405180910390fd5b8073ffffffffffffffffffffffffffffffffffffffff1661083f611425565b73ffffffffffffffffffffffffffffffffffffffff16148061086e575061086d81610868611425565b611177565b5b6108ad576040517f08c379a00000000000000000000000000000000000000000000000000000000081526004016108a490612d0b565b60405180910390fd5b6108b7838361142d565b505050565b60095481565b7f000000000000000000000000000000000000000000000000000000000000000073ffffffffffffffffffffffffffffffffffffffff163373ffffffffffffffffffffffffffffffffffffffff161461097457337f00000000000000000000000000000000000000000000000000000000000000006040517f1cf993f400000000000000000000000000000000000000000000000000000000815260040161096b929190612d2b565b60405180910390fd5b61097e82826114e6565b5050565b61099361098d611425565b82611681565b6109d2576040517f08c379a00000000000000000000000000000000000000000000000000000000081526004016109c990612dc6565b60405180910390fd5b6109dd838383611716565b505050565b6109ea612346565b6040518060600160405280600a8152602001606481526020016103e8815250905090565b610a1661197c565b600047905060003373ffffffffffffffffffffffffffffffffffffffff1682604051610a4190612e17565b60006040518083038185875af1925050503d8060008114610a7e576040519150601f19603f3d011682016040523d82523d6000602084013e610a83565b606091505b5050905080610abe576040517feb74061000000000000000000000000000000000000000000000000000000000815260040160405180910390fd5b5050565b610add83838360405180602001604052806000815250611003565b505050565b6000806002600084815260200190815260200160002060009054906101000a900473ffffffffffffffffffffffffffffffffffffffff169050600073ffffffffffffffffffffffffffffffffffffffff168173ffffffffffffffffffffffffffffffffffffffff1603610b8a576040517f08c379a0000000000000000000000000000000000000000000000000000000008152600401610b8190612e78565b60405180910390fd5b80915050919050565b6060600a8281548110610ba957610ba8612e98565b5b906000526020600020018054610bbe90612bd6565b80601f0160208091040260200160405190810160405280929190818152602001828054610bea90612bd6565b8015610c375780601f10610c0c57610100808354040283529160200191610c37565b820191906000526020600020905b815481529060010190602001808311610c1a57829003601f168201915b50505050509050919050565b6000600954905090565b60008073ffffffffffffffffffffffffffffffffffffffff168273ffffffffffffffffffffffffffffffffffffffff1603610cbd576040517f08c379a0000000000000000000000000000000000000000000000000000000008152600401610cb490612f39565b60405180910390fd5b600360008373ffffffffffffffffffffffffffffffffffffffff1673ffffffffffffffffffffffffffffffffffffffff168152602001908152602001600020549050919050565b610d0c61197c565b610d1660006119fa565b565b60007f0000000000000000000000000000000000000000000000000000000000000000905090565b60007f0000000000000000000000000000000000000000000000000000000000000000341015610d9c576040517f829a019e00000000000000000000000000000000000000000000000000000000815260040160405180910390fd5b7f000000000000000000000000000000000000000000000000000000000000000073ffffffffffffffffffffffffffffffffffffffff16635d3b1d307f00000000000000000000000000000000000000000000000000000000000000007f000000000000000000000000000000000000000000000000000000000000000060037f000000000000000000000000000000000000000000000000000000000000000060016040518663ffffffff1660e01b8152600401610e5f959493929190612fd1565b6020604051808303816000875af1158015610e7e573d6000803e3d6000fd5b505050506040513d601f19601f82011682018060405250810190610ea29190613039565b9050336008600083815260200190815260200160002060006101000a81548173ffffffffffffffffffffffffffffffffffffffff021916908373ffffffffffffffffffffffffffffffffffffffff160217905550807f4e1c2f1eae56e29ec039a2b882eec626e6c420ed5a5b93a203c8b8b695e911b133604051610f269190612596565b60405180910390a290565b6000600760009054906101000a900473ffffffffffffffffffffffffffffffffffffffff16905090565b606060018054610f6a90612bd6565b80601f0160208091040260200160405190810160405280929190818152602001828054610f9690612bd6565b8015610fe35780601f10610fb857610100808354040283529160200191610fe3565b820191906000526020600020905b815481529060010190602001808311610fc657829003601f168201915b5050505050905090565b610fff610ff8611425565b8383611ac0565b5050565b61101461100e611425565b83611681565b611053576040517f08c379a000000000000000000000000000000000000000000000000000000000815260040161104a90612dc6565b60405180910390fd5b61105f84848484611c2c565b50505050565b6060611070826113da565b600060066000848152602001908152602001600020805461109090612bd6565b80601f01602080910402602001604051908101604052809291908181526020018280546110bc90612bd6565b80156111095780601f106110de57610100808354040283529160200191611109565b820191906000526020600020905b8154815290600101906020018083116110ec57829003601f168201915b50505050509050600061111a611c88565b9050600081510361112f578192505050611172565b60008251111561116457808260405160200161114c9291906130a2565b60405160208183030381529060405292505050611172565b61116d84611c9f565b925050505b919050565b6000600560008473ffffffffffffffffffffffffffffffffffffffff1673ffffffffffffffffffffffffffffffffffffffff16815260200190815260200160002060008373ffffffffffffffffffffffffffffffffffffffff1673ffffffffffffffffffffffffffffffffffffffff16815260200190815260200160002060009054906101000a900460ff16905092915050565b61121361197c565b600073ffffffffffffffffffffffffffffffffffffffff168173ffffffffffffffffffffffffffffffffffffffff1603611282576040517f08c379a000000000000000000000000000000000000000000000000000000000815260040161127990613138565b60405180910390fd5b61128b816119fa565b50565b60008060009050600061129f6109e2565b905060005b6003811015611338578285101580156112de57508181600381106112cb576112ca612e98565b5b6020020151836112db9190613187565b85105b15611300578060028111156112f6576112f5612b15565b5b935050505061136b565b81816003811061131357611312612e98565b5b6020020151836113239190613187565b92508080611330906131dd565b9150506112a4565b506040517f5d061b4700000000000000000000000000000000000000000000000000000000815260040160405180910390fd5b919050565b60007f01ffc9a7000000000000000000000000000000000000000000000000000000007bffffffffffffffffffffffffffffffffffffffffffffffffffffffff1916827bffffffffffffffffffffffffffffffffffffffffffffffffffffffff1916149050919050565b6113e381611d07565b611422576040517f08c379a000000000000000000000000000000000000000000000000000000000815260040161141990612e78565b60405180910390fd5b50565b600033905090565b816004600083815260200190815260200160002060006101000a81548173ffffffffffffffffffffffffffffffffffffffff021916908373ffffffffffffffffffffffffffffffffffffffff160217905550808273ffffffffffffffffffffffffffffffffffffffff166114a083610ae2565b73ffffffffffffffffffffffffffffffffffffffff167f8c5be1e5ebec7d5bd14f71427d1e84f3dd0314c0f7b2291e5b200ac8c7c3b92560405160405180910390a45050565b60006008600084815260200190815260200160002060009054906101000a900473ffffffffffffffffffffffffffffffffffffffff1690506000600954905060006103e88460008151811061153e5761153d612e98565b5b60200260200101516115509190613254565b9050600061155d8261128e565b9050600160095461156e9190613187565b60098190555061157e8484611d73565b61164083600a83600281111561159757611596612b15565b5b815481106115a8576115a7612e98565b5b9060005260206000200180546115bd90612bd6565b80601f01602080910402602001604051908101604052809291908181526020018280546115e990612bd6565b80156116365780601f1061160b57610100808354040283529160200191611636565b820191906000526020600020905b81548152906001019060200180831161161957829003601f168201915b5050505050611d91565b7fab79897476febbd649710b1bd1dc3e93a316d3dee65f65b022ab89a4b7e206b58185604051611671929190613285565b60405180910390a1505050505050565b60008061168d83610ae2565b90508073ffffffffffffffffffffffffffffffffffffffff168473ffffffffffffffffffffffffffffffffffffffff1614806116cf57506116ce8185611177565b5b8061170d57508373ffffffffffffffffffffffffffffffffffffffff166116f58461075f565b73ffffffffffffffffffffffffffffffffffffffff16145b91505092915050565b8273ffffffffffffffffffffffffffffffffffffffff1661173682610ae2565b73ffffffffffffffffffffffffffffffffffffffff161461178c576040517f08c379a000000000000000000000000000000000000000000000000000000000815260040161178390613320565b60405180910390fd5b600073ffffffffffffffffffffffffffffffffffffffff168273ffffffffffffffffffffffffffffffffffffffff16036117fb576040517f08c379a00000000000000000000000000000000000000000000000000000000081526004016117f2906133b2565b60405180910390fd5b611806838383611dfe565b61181160008261142d565b6001600360008573ffffffffffffffffffffffffffffffffffffffff1673ffffffffffffffffffffffffffffffffffffffff168152602001908152602001600020600082825461186191906133d2565b925050819055506001600360008473ffffffffffffffffffffffffffffffffffffffff1673ffffffffffffffffffffffffffffffffffffffff16815260200190815260200160002060008282546118b89190613187565b92505081905550816002600083815260200190815260200160002060006101000a81548173ffffffffffffffffffffffffffffffffffffffff021916908373ffffffffffffffffffffffffffffffffffffffff160217905550808273ffffffffffffffffffffffffffffffffffffffff168473ffffffffffffffffffffffffffffffffffffffff167fddf252ad1be2c89b69c2b068fc378daa952ba7f163c4a11628f55a4df523b3ef60405160405180910390a4611977838383611e03565b505050565b611984611425565b73ffffffffffffffffffffffffffffffffffffffff166119a2610f31565b73ffffffffffffffffffffffffffffffffffffffff16146119f8576040517f08c379a00000000000000000000000000000000000000000000000000000000081526004016119ef90613452565b60405180910390fd5b565b6000600760009054906101000a900473ffffffffffffffffffffffffffffffffffffffff16905081600760006101000a81548173ffffffffffffffffffffffffffffffffffffffff021916908373ffffffffffffffffffffffffffffffffffffffff1602179055508173ffffffffffffffffffffffffffffffffffffffff168173ffffffffffffffffffffffffffffffffffffffff167f8be0079c531659141344cd1fd0a4f28419497f9722a3daafe3b4186f6b6457e060405160405180910390a35050565b8173ffffffffffffffffffffffffffffffffffffffff168373ffffffffffffffffffffffffffffffffffffffff1603611b2e576040517f08c379a0000000000000000000000000000000000000000000000000000000008152600401611b25906134be565b60405180910390fd5b80600560008573ffffffffffffffffffffffffffffffffffffffff1673ffffffffffffffffffffffffffffffffffffffff16815260200190815260200160002060008473ffffffffffffffffffffffffffffffffffffffff1673ffffffffffffffffffffffffffffffffffffffff16815260200190815260200160002060006101000a81548160ff0219169083151502179055508173ffffffffffffffffffffffffffffffffffffffff168373ffffffffffffffffffffffffffffffffffffffff167f17307eab39ab6107e8899845ad3d59bd9653f200f220920489ca2b5937696c3183604051611c1f919061241c565b60405180910390a3505050565b611c37848484611716565b611c4384848484611e08565b611c82576040517f08c379a0000000000000000000000000000000000000000000000000000000008152600401611c7990613550565b60405180910390fd5b50505050565b606060405180602001604052806000815250905090565b6060611caa826113da565b6000611cb4611c88565b90506000815111611cd45760405180602001604052806000815250611cff565b80611cde84611f8f565b604051602001611cef9291906130a2565b6040516020818303038152906040525b915050919050565b60008073ffffffffffffffffffffffffffffffffffffffff166002600084815260200190815260200160002060009054906101000a900473ffffffffffffffffffffffffffffffffffffffff1673ffffffffffffffffffffffffffffffffffffffff1614159050919050565b611d8d8282604051806020016040528060008152506120ef565b5050565b611d9a82611d07565b611dd9576040517f08c379a0000000000000000000000000000000000000000000000000000000008152600401611dd0906135e2565b60405180910390fd5b80600660008481526020019081526020016000209081611df991906137ae565b505050565b505050565b505050565b6000611e298473ffffffffffffffffffffffffffffffffffffffff1661214a565b15611f82578373ffffffffffffffffffffffffffffffffffffffff1663150b7a02611e52611425565b8786866040518563ffffffff1660e01b8152600401611e7494939291906138d5565b6020604051808303816000875af1925050508015611eb057506040513d601f19601f82011682018060405250810190611ead9190613936565b60015b611f32573d8060008114611ee0576040519150601f19603f3d011682016040523d82523d6000602084013e611ee5565b606091505b506000815103611f2a576040517f08c379a0000000000000000000000000000000000000000000000000000000008152600401611f2190613550565b60405180910390fd5b805181602001fd5b63150b7a0260e01b7bffffffffffffffffffffffffffffffffffffffffffffffffffffffff1916817bffffffffffffffffffffffffffffffffffffffffffffffffffffffff191614915050611f87565b600190505b949350505050565b606060008203611fd6576040518060400160405280600181526020017f300000000000000000000000000000000000000000000000000000000000000081525090506120ea565b600082905060005b60008214612008578080611ff1906131dd565b915050600a826120019190613963565b9150611fde565b60008167ffffffffffffffff8111156120245761202361264c565b5b6040519080825280601f01601f1916602001820160405280156120565781602001600182028036833780820191505090505b5090505b600085146120e35760018261206f91906133d2565b9150600a8561207e9190613254565b603061208a9190613187565b60f81b8183815181106120a05761209f612e98565b5b60200101907effffffffffffffffffffffffffffffffffffffffffffffffffffffffffffff1916908160001a905350600a856120dc9190613963565b945061205a565b8093505050505b919050565b6120f9838361216d565b6121066000848484611e08565b612145576040517f08c379a000000000000000000000000000000000000000000000000000000000815260040161213c90613550565b60405180910390fd5b505050565b6000808273ffffffffffffffffffffffffffffffffffffffff163b119050919050565b600073ffffffffffffffffffffffffffffffffffffffff168273ffffffffffffffffffffffffffffffffffffffff16036121dc576040517f08c379a00000000000000000000000000000000000000000000000000000000081526004016121d3906139e0565b60405180910390fd5b6121e581611d07565b15612225576040517f08c379a000000000000000000000000000000000000000000000000000000000815260040161221c90613a4c565b60405180910390fd5b61223160008383611dfe565b6001600360008473ffffffffffffffffffffffffffffffffffffffff1673ffffffffffffffffffffffffffffffffffffffff16815260200190815260200160002060008282546122819190613187565b92505081905550816002600083815260200190815260200160002060006101000a81548173ffffffffffffffffffffffffffffffffffffffff021916908373ffffffffffffffffffffffffffffffffffffffff160217905550808273ffffffffffffffffffffffffffffffffffffffff16600073ffffffffffffffffffffffffffffffffffffffff167fddf252ad1be2c89b69c2b068fc378daa952ba7f163c4a11628f55a4df523b3ef60405160405180910390a461234260008383611e03565b5050565b6040518060600160405280600390602082028036833780820191505090505090565b6000604051905090565b600080fd5b600080fd5b60007fffffffff0000000000000000000000000000000000000000000000000000000082169050919050565b6123b18161237c565b81146123bc57600080fd5b50565b6000813590506123ce816123a8565b92915050565b6000602082840312156123ea576123e9612372565b5b60006123f8848285016123bf565b91505092915050565b60008115159050919050565b61241681612401565b82525050565b6000602082019050612431600083018461240d565b92915050565b600081519050919050565b600082825260208201905092915050565b60005b83811015612471578082015181840152602081019050612456565b83811115612480576000848401525b50505050565b6000601f19601f8301169050919050565b60006124a282612437565b6124ac8185612442565b93506124bc818560208601612453565b6124c581612486565b840191505092915050565b600060208201905081810360008301526124ea8184612497565b905092915050565b6000819050919050565b612505816124f2565b811461251057600080fd5b50565b600081359050612522816124fc565b92915050565b60006020828403121561253e5761253d612372565b5b600061254c84828501612513565b91505092915050565b600073ffffffffffffffffffffffffffffffffffffffff82169050919050565b600061258082612555565b9050919050565b61259081612575565b82525050565b60006020820190506125ab6000830184612587565b92915050565b6125ba81612575565b81146125c557600080fd5b50565b6000813590506125d7816125b1565b92915050565b600080604083850312156125f4576125f3612372565b5b6000612602858286016125c8565b925050602061261385828601612513565b9150509250929050565b612626816124f2565b82525050565b6000602082019050612641600083018461261d565b92915050565b600080fd5b7f4e487b7100000000000000000000000000000000000000000000000000000000600052604160045260246000fd5b61268482612486565b810181811067ffffffffffffffff821117156126a3576126a261264c565b5b80604052505050565b60006126b6612368565b90506126c2828261267b565b919050565b600067ffffffffffffffff8211156126e2576126e161264c565b5b602082029050602081019050919050565b600080fd5b600061270b612706846126c7565b6126ac565b9050808382526020820190506020840283018581111561272e5761272d6126f3565b5b835b8181101561275757806127438882612513565b845260208401935050602081019050612730565b5050509392505050565b600082601f83011261277657612775612647565b5b81356127868482602086016126f8565b91505092915050565b600080604083850312156127a6576127a5612372565b5b60006127b485828601612513565b925050602083013567ffffffffffffffff8111156127d5576127d4612377565b5b6127e185828601612761565b9150509250929050565b60008060006060848603121561280457612803612372565b5b6000612812868287016125c8565b9350506020612823868287016125c8565b925050604061283486828701612513565b9150509250925092565b600060039050919050565b600081905092915050565b6000819050919050565b612867816124f2565b82525050565b6000612879838361285e565b60208301905092915050565b6000602082019050919050565b61289b8161283e565b6128a58184612849565b92506128b082612854565b8060005b838110156128e15781516128c8878261286d565b96506128d383612885565b9250506001810190506128b4565b505050505050565b60006060820190506128fe6000830184612892565b92915050565b60006020828403121561291a57612919612372565b5b6000612928848285016125c8565b91505092915050565b61293a81612401565b811461294557600080fd5b50565b60008135905061295781612931565b92915050565b6000806040838503121561297457612973612372565b5b6000612982858286016125c8565b925050602061299385828601612948565b9150509250929050565b600080fd5b600067ffffffffffffffff8211156129bd576129bc61264c565b5b6129c682612486565b9050602081019050919050565b82818337600083830152505050565b60006129f56129f0846129a2565b6126ac565b905082815260208101848484011115612a1157612a1061299d565b5b612a1c8482856129d3565b509392505050565b600082601f830112612a3957612a38612647565b5b8135612a498482602086016129e2565b91505092915050565b60008060008060808587031215612a6c57612a6b612372565b5b6000612a7a878288016125c8565b9450506020612a8b878288016125c8565b9350506040612a9c87828801612513565b925050606085013567ffffffffffffffff811115612abd57612abc612377565b5b612ac987828801612a24565b91505092959194509250565b60008060408385031215612aec57612aeb612372565b5b6000612afa858286016125c8565b9250506020612b0b858286016125c8565b9150509250929050565b7f4e487b7100000000000000000000000000000000000000000000000000000000600052602160045260246000fd5b60038110612b5557612b54612b15565b5b50565b6000819050612b6682612b44565b919050565b6000612b7682612b58565b9050919050565b612b8681612b6b565b82525050565b6000602082019050612ba16000830184612b7d565b92915050565b7f4e487b7100000000000000000000000000000000000000000000000000000000600052602260045260246000fd5b60006002820490506001821680612bee57607f821691505b602082108103612c0157612c00612ba7565b5b50919050565b7f4552433732313a20617070726f76616c20746f2063757272656e74206f776e6560008201527f7200000000000000000000000000000000000000000000000000000000000000602082015250565b6000612c63602183612442565b9150612c6e82612c07565b604082019050919050565b60006020820190508181036000830152612c9281612c56565b9050919050565b7f4552433732313a20617070726f76652063616c6c6572206973206e6f7420746f60008201527f6b656e206f776e6572206e6f7220617070726f76656420666f7220616c6c0000602082015250565b6000612cf5603e83612442565b9150612d0082612c99565b604082019050919050565b60006020820190508181036000830152612d2481612ce8565b9050919050565b6000604082019050612d406000830185612587565b612d4d6020830184612587565b9392505050565b7f4552433732313a2063616c6c6572206973206e6f7420746f6b656e206f776e6560008201527f72206e6f7220617070726f766564000000000000000000000000000000000000602082015250565b6000612db0602e83612442565b9150612dbb82612d54565b604082019050919050565b60006020820190508181036000830152612ddf81612da3565b9050919050565b600081905092915050565b50565b6000612e01600083612de6565b9150612e0c82612df1565b600082019050919050565b6000612e2282612df4565b9150819050919050565b7f4552433732313a20696e76616c696420746f6b656e2049440000000000000000600082015250565b6000612e62601883612442565b9150612e6d82612e2c565b602082019050919050565b60006020820190508181036000830152612e9181612e55565b9050919050565b7f4e487b7100000000000000000000000000000000000000000000000000000000600052603260045260246000fd5b7f4552433732313a2061646472657373207a65726f206973206e6f74206120766160008201527f6c6964206f776e65720000000000000000000000000000000000000000000000602082015250565b6000612f23602983612442565b9150612f2e82612ec7565b604082019050919050565b60006020820190508181036000830152612f5281612f16565b9050919050565b6000819050919050565b612f6c81612f59565b82525050565b600067ffffffffffffffff82169050919050565b612f8f81612f72565b82525050565b600061ffff82169050919050565b612fac81612f95565b82525050565b600063ffffffff82169050919050565b612fcb81612fb2565b82525050565b600060a082019050612fe66000830188612f63565b612ff36020830187612f86565b6130006040830186612fa3565b61300d6060830185612fc2565b61301a6080830184612fc2565b9695505050505050565b600081519050613033816124fc565b92915050565b60006020828403121561304f5761304e612372565b5b600061305d84828501613024565b91505092915050565b600081905092915050565b600061307c82612437565b6130868185613066565b9350613096818560208601612453565b80840191505092915050565b60006130ae8285613071565b91506130ba8284613071565b91508190509392505050565b7f4f776e61626c653a206e6577206f776e657220697320746865207a65726f206160008201527f6464726573730000000000000000000000000000000000000000000000000000602082015250565b6000613122602683612442565b915061312d826130c6565b604082019050919050565b6000602082019050818103600083015261315181613115565b9050919050565b7f4e487b7100000000000000000000000000000000000000000000000000000000600052601160045260246000fd5b6000613192826124f2565b915061319d836124f2565b9250827fffffffffffffffffffffffffffffffffffffffffffffffffffffffffffffffff038211156131d2576131d1613158565b5b828201905092915050565b60006131e8826124f2565b91507fffffffffffffffffffffffffffffffffffffffffffffffffffffffffffffffff820361321a57613219613158565b5b600182019050919050565b7f4e487b7100000000000000000000000000000000000000000000000000000000600052601260045260246000fd5b600061325f826124f2565b915061326a836124f2565b92508261327a57613279613225565b5b828206905092915050565b600060408201905061329a6000830185612b7d565b6132a76020830184612587565b9392505050565b7f4552433732313a207472616e736665722066726f6d20696e636f72726563742060008201527f6f776e6572000000000000000000000000000000000000000000000000000000602082015250565b600061330a602583612442565b9150613315826132ae565b604082019050919050565b60006020820190508181036000830152613339816132fd565b9050919050565b7f4552433732313a207472616e7366657220746f20746865207a65726f2061646460008201527f7265737300000000000000000000000000000000000000000000000000000000602082015250565b600061339c602483612442565b91506133a782613340565b604082019050919050565b600060208201905081810360008301526133cb8161338f565b9050919050565b60006133dd826124f2565b91506133e8836124f2565b9250828210156133fb576133fa613158565b5b828203905092915050565b7f4f776e61626c653a2063616c6c6572206973206e6f7420746865206f776e6572600082015250565b600061343c602083612442565b915061344782613406565b602082019050919050565b6000602082019050818103600083015261346b8161342f565b9050919050565b7f4552433732313a20617070726f766520746f2063616c6c657200000000000000600082015250565b60006134a8601983612442565b91506134b382613472565b602082019050919050565b600060208201905081810360008301526134d78161349b565b9050919050565b7f4552433732313a207472616e7366657220746f206e6f6e20455243373231526560008201527f63656976657220696d706c656d656e7465720000000000000000000000000000602082015250565b600061353a603283612442565b9150613545826134de565b604082019050919050565b600060208201905081810360008301526135698161352d565b9050919050565b7f45524337323155524953746f726167653a2055524920736574206f66206e6f6e60008201527f6578697374656e7420746f6b656e000000000000000000000000000000000000602082015250565b60006135cc602e83612442565b91506135d782613570565b604082019050919050565b600060208201905081810360008301526135fb816135bf565b9050919050565b60008190508160005260206000209050919050565b60006020601f8301049050919050565b600082821b905092915050565b6000600883026136647fffffffffffffffffffffffffffffffffffffffffffffffffffffffffffffffff82613627565b61366e8683613627565b95508019841693508086168417925050509392505050565b6000819050919050565b60006136ab6136a66136a1846124f2565b613686565b6124f2565b9050919050565b6000819050919050565b6136c583613690565b6136d96136d1826136b2565b848454613634565b825550505050565b600090565b6136ee6136e1565b6136f98184846136bc565b505050565b5b8181101561371d576137126000826136e6565b6001810190506136ff565b5050565b601f8211156137625761373381613602565b61373c84613617565b8101602085101561374b578190505b61375f61375785613617565b8301826136fe565b50505b505050565b600082821c905092915050565b600061378560001984600802613767565b1980831691505092915050565b600061379e8383613774565b9150826002028217905092915050565b6137b782612437565b67ffffffffffffffff8111156137d0576137cf61264c565b5b6137da8254612bd6565b6137e5828285613721565b600060209050601f8311600181146138185760008415613806578287015190505b6138108582613792565b865550613878565b601f19841661382686613602565b60005b8281101561384e57848901518255600182019150602085019450602081019050613829565b8683101561386b5784890151613867601f891682613774565b8355505b6001600288020188555050505b505050505050565b600081519050919050565b600082825260208201905092915050565b60006138a782613880565b6138b1818561388b565b93506138c1818560208601612453565b6138ca81612486565b840191505092915050565b60006080820190506138ea6000830187612587565b6138f76020830186612587565b613904604083018561261d565b8181036060830152613916818461389c565b905095945050505050565b600081519050613930816123a8565b92915050565b60006020828403121561394c5761394b612372565b5b600061395a84828501613921565b91505092915050565b600061396e826124f2565b9150613979836124f2565b92508261398957613988613225565b5b828204905092915050565b7f4552433732313a206d696e7420746f20746865207a65726f2061646472657373600082015250565b60006139ca602083612442565b91506139d582613994565b602082019050919050565b600060208201905081810360008301526139f9816139bd565b9050919050565b7f4552433732313a20746f6b656e20616c7265616479206d696e74656400000000600082015250565b6000613a36601c83612442565b9150613a4182613a00565b602082019050919050565b60006020820190508181036000830152613a6581613a29565b905091905056fea2646970667358221220f0e21b3500ca9cb97d5293d2b89dfe5f4cf8bde784eb3ba3e28286cb0c9f5fa664736f6c634300080f0033",
  "linkReferences": {},
  "deployedLinkReferences": {}
}