{
  "address": "0xE3A4f2753E0e201c463a21AE1eF54926503ae7F1",
  "abi": [
    {
      "inputs": [
        {
          "internalType": "address",
          "name": "priceFeedAddress",
          "type": "address"
        },
        {
          "internalType": "string",
          "name": "lowSVG",
          "type": "string"
        },
        {
          "internalType": "string",
          "name": "highSVG",
          "type": "string"
        }
      ],
      "stateMutability": "nonpayable",
      "type": "constructor"
    },
    {
      "anonymous": false,
      "inputs": [
        {
          "indexed": true,
          "internalType": "address",
          "name": "owner",
          "type": "address"
        },
        {
          "indexed": true,
          "internalType": "address",
          "name": "approved",
          "type": "address"
        },
        {
          "indexed": true,
          "internalType": "uint256",
          "name": "tokenId",
          "type": "uint256"
        }
      ],
      "name": "Approval",
      "type": "event"
    },
    {
      "anonymous": false,
      "inputs": [
        {
          "indexed": true,
          "internalType": "address",
          "name": "owner",
          "type": "address"
        },
        {
          "indexed": true,
          "internalType": "address",
          "name": "operator",
          "type": "address"
        },
        {
          "indexed": false,
          "internalType": "bool",
          "name": "approved",
          "type": "bool"
        }
      ],
      "name": "ApprovalForAll",
      "type": "event"
    },
    {
      "anonymous": false,
      "inputs": [
        {
          "indexed": true,
          "internalType": "uint256",
          "name": "tokenId",
          "type": "uint256"
        },
        {
          "indexed": false,
          "internalType": "int256",
          "name": "highValue",
          "type": "int256"
        }
      ],
      "name": "CreatedNFT",
      "type": "event"
    },
    {
      "anonymous": false,
      "inputs": [
        {
          "indexed": true,
          "internalType": "address",
          "name": "previousOwner",
          "type": "address"
        },
        {
          "indexed": true,
          "internalType": "address",
          "name": "newOwner",
          "type": "address"
        }
      ],
      "name": "OwnershipTransferred",
      "type": "event"
    },
    {
      "anonymous": false,
      "inputs": [
        {
          "indexed": true,
          "internalType": "address",
          "name": "from",
          "type": "address"
        },
        {
          "indexed": true,
          "internalType": "address",
          "name": "to",
          "type": "address"
        },
        {
          "indexed": true,
          "internalType": "uint256",
          "name": "tokenId",
          "type": "uint256"
        }
      ],
      "name": "Transfer",
      "type": "event"
    },
    {
      "inputs": [
        {
          "internalType": "address",
          "name": "to",
          "type": "address"
        },
        {
          "internalType": "uint256",
          "name": "tokenId",
          "type": "uint256"
        }
      ],
      "name": "approve",
      "outputs": [],
      "stateMutability": "nonpayable",
      "type": "function"
    },
    {
      "inputs": [
        {
          "internalType": "address",
          "name": "owner",
          "type": "address"
        }
      ],
      "name": "balanceOf",
      "outputs": [
        {
          "internalType": "uint256",
          "name": "",
          "type": "uint256"
        }
      ],
      "stateMutability": "view",
      "type": "function"
    },
    {
      "inputs": [
        {
          "internalType": "string",
          "name": "anySVG",
          "type": "string"
        }
      ],
      "name": "convertSVGToImageURI",
      "outputs": [
        {
          "internalType": "string",
          "name": "",
          "type": "string"
        }
      ],
      "stateMutability": "pure",
      "type": "function"
    },
    {
      "inputs": [
        {
          "internalType": "uint256",
          "name": "tokenId",
          "type": "uint256"
        }
      ],
      "name": "getApproved",
      "outputs": [
        {
          "internalType": "address",
          "name": "",
          "type": "address"
        }
      ],
      "stateMutability": "view",
      "type": "function"
    },
    {
      "inputs": [],
      "name": "getHighSVG",
      "outputs": [
        {
          "internalType": "string",
          "name": "",
          "type": "string"
        }
      ],
      "stateMutability": "view",
      "type": "function"
    },
    {
      "inputs": [],
      "name": "getLowSVG",
      "outputs": [
        {
          "internalType": "string",
          "name": "",
          "type": "string"
        }
      ],
      "stateMutability": "view",
      "type": "function"
    },
    {
      "inputs": [],
      "name": "getPriceFeed",
      "outputs": [
        {
          "internalType": "contract AggregatorV3Interface",
          "name": "",
          "type": "address"
        }
      ],
      "stateMutability": "view",
      "type": "function"
    },
    {
      "inputs": [],
      "name": "getTokenCounter",
      "outputs": [
        {
          "internalType": "uint256",
          "name": "",
          "type": "uint256"
        }
      ],
      "stateMutability": "view",
      "type": "function"
    },
    {
      "inputs": [
        {
          "internalType": "address",
          "name": "owner",
          "type": "address"
        },
        {
          "internalType": "address",
          "name": "operator",
          "type": "address"
        }
      ],
      "name": "isApprovedForAll",
      "outputs": [
        {
          "internalType": "bool",
          "name": "",
          "type": "bool"
        }
      ],
      "stateMutability": "view",
      "type": "function"
    },
    {
      "inputs": [
        {
          "internalType": "int256",
          "name": "highValue",
          "type": "int256"
        }
      ],
      "name": "mintNFT",
      "outputs": [],
      "stateMutability": "nonpayable",
      "type": "function"
    },
    {
      "inputs": [],
      "name": "name",
      "outputs": [
        {
          "internalType": "string",
          "name": "",
          "type": "string"
        }
      ],
      "stateMutability": "view",
      "type": "function"
    },
    {
      "inputs": [],
      "name": "owner",
      "outputs": [
        {
          "internalType": "address",
          "name": "",
          "type": "address"
        }
      ],
      "stateMutability": "view",
      "type": "function"
    },
    {
      "inputs": [
        {
          "internalType": "uint256",
          "name": "tokenId",
          "type": "uint256"
        }
      ],
      "name": "ownerOf",
      "outputs": [
        {
          "internalType": "address",
          "name": "",
          "type": "address"
        }
      ],
      "stateMutability": "view",
      "type": "function"
    },
    {
      "inputs": [],
      "name": "renounceOwnership",
      "outputs": [],
      "stateMutability": "nonpayable",
      "type": "function"
    },
    {
      "inputs": [
        {
          "internalType": "address",
          "name": "from",
          "type": "address"
        },
        {
          "internalType": "address",
          "name": "to",
          "type": "address"
        },
        {
          "internalType": "uint256",
          "name": "tokenId",
          "type": "uint256"
        }
      ],
      "name": "safeTransferFrom",
      "outputs": [],
      "stateMutability": "nonpayable",
      "type": "function"
    },
    {
      "inputs": [
        {
          "internalType": "address",
          "name": "from",
          "type": "address"
        },
        {
          "internalType": "address",
          "name": "to",
          "type": "address"
        },
        {
          "internalType": "uint256",
          "name": "tokenId",
          "type": "uint256"
        },
        {
          "internalType": "bytes",
          "name": "data",
          "type": "bytes"
        }
      ],
      "name": "safeTransferFrom",
      "outputs": [],
      "stateMutability": "nonpayable",
      "type": "function"
    },
    {
      "inputs": [
        {
          "internalType": "address",
          "name": "operator",
          "type": "address"
        },
        {
          "internalType": "bool",
          "name": "approved",
          "type": "bool"
        }
      ],
      "name": "setApprovalForAll",
      "outputs": [],
      "stateMutability": "nonpayable",
      "type": "function"
    },
    {
      "inputs": [
        {
          "internalType": "bytes4",
          "name": "interfaceId",
          "type": "bytes4"
        }
      ],
      "name": "supportsInterface",
      "outputs": [
        {
          "internalType": "bool",
          "name": "",
          "type": "bool"
        }
      ],
      "stateMutability": "view",
      "type": "function"
    },
    {
      "inputs": [],
      "name": "symbol",
      "outputs": [
        {
          "internalType": "string",
          "name": "",
          "type": "string"
        }
      ],
      "stateMutability": "view",
      "type": "function"
    },
    {
      "inputs": [
        {
          "internalType": "uint256",
          "name": "tokenId",
          "type": "uint256"
        }
      ],
      "name": "tokenURI",
      "outputs": [
        {
          "internalType": "string",
          "name": "",
          "type": "string"
        }
      ],
      "stateMutability": "view",
      "type": "function"
    },
    {
      "inputs": [
        {
          "internalType": "address",
          "name": "from",
          "type": "address"
        },
        {
          "internalType": "address",
          "name": "to",
          "type": "address"
        },
        {
          "internalType": "uint256",
          "name": "tokenId",
          "type": "uint256"
        }
      ],
      "name": "transferFrom",
      "outputs": [],
      "stateMutability": "nonpayable",
      "type": "function"
    },
    {
      "inputs": [
        {
          "internalType": "address",
          "name": "newOwner",
          "type": "address"
        }
      ],
      "name": "transferOwnership",
      "outputs": [],
      "stateMutability": "nonpayable",
      "type": "function"
    }
  ],
  "transactionHash": "0xe7ad617d71219bdcd731cbe1b78696fca514946bc601e02e8eca4099877cff69",
  "args": [
    "0x8A753747A1Fa494EC906cE90E9f37563A8AF630e",
    "<svg id=\"eSfe2mqNpzA1\" xmlns=\"http://www.w3.org/2000/svg\" xmlns:xlink=\"http://www.w3.org/1999/xlink\" viewBox=\"0 0 1000 1000\" shape-rendering=\"geometricPrecision\" text-rendering=\"geometricPrecision\"><path d=\"M0,1000L0,0h1000v1000h-1000Z\" fill=\"#101010\" stroke-width=\"0\"/></svg>",
    "<svg id=\"eXczF0587KY1\" xmlns=\"http://www.w3.org/2000/svg\" xmlns:xlink=\"http://www.w3.org/1999/xlink\" viewBox=\"0 0 1000 1000\" shape-rendering=\"geometricPrecision\" text-rendering=\"geometricPrecision\"><path d=\"M0,1000L0,0h1000v1000h-1000Z\" fill=\"#0f0\" stroke-width=\"0\"/></svg>"
  ],
  "numDeployments": 1,
  "solcInputHash": "1a1ee998202638a36b77cdba38029e92",
  "bytecode": "0x60a06040523480156200001157600080fd5b5060405162003fb538038062003fb5833981810160405281019062000037919062000673565b6040518060400160405280601681526020017f44796e616d6963204e465420436f6c6c656374696f6e000000000000000000008152506040518060400160405280600381526020017f444e4300000000000000000000000000000000000000000000000000000000008152508160009081620000b4919062000958565b508060019081620000c6919062000958565b505050620000e9620000dd6200017260201b60201c565b6200017a60201b60201c565b600060078190555062000102826200024060201b60201c565b6008908162000112919062000958565b5062000124816200024060201b60201c565b6009908162000134919062000958565b508273ffffffffffffffffffffffffffffffffffffffff1660808173ffffffffffffffffffffffffffffffffffffffff168152505050505062000c16565b600033905090565b6000600660009054906101000a900473ffffffffffffffffffffffffffffffffffffffff16905081600660006101000a81548173ffffffffffffffffffffffffffffffffffffffff021916908373ffffffffffffffffffffffffffffffffffffffff1602179055508173ffffffffffffffffffffffffffffffffffffffff168173ffffffffffffffffffffffffffffffffffffffff167f8be0079c531659141344cd1fd0a4f28419497f9722a3daafe3b4186f6b6457e060405160405180910390a35050565b606060006040518060400160405280601a81526020017f646174613a696d6167652f7376672b786d6c3b6261736536342c00000000000081525090506000620002b58460405160200162000295919062000a81565b604051602081830303815290604052620002e460201b6200102a1760201c565b90508181604051602001620002cc92919062000a9a565b60405160208183030381529060405292505050919050565b6060600082510362000308576040518060200160405280600081525090506200046c565b600060405180606001604052806040815260200162003f7560409139905060006003600285516200033a919062000af1565b62000346919062000b7d565b600462000354919062000bb5565b9050600060208262000367919062000af1565b67ffffffffffffffff81111562000383576200038262000505565b5b6040519080825280601f01601f191660200182016040528015620003b65781602001600182028036833780820191505090505b509050818152600183018586518101602084015b8183101562000427576003830192508251603f8160121c168501518253600182019150603f81600c1c168501518253600182019150603f8160061c168501518253600182019150603f8116850151825360018201915050620003ca565b600389510660018114620004445760028114620004555762000460565b613d3d60f01b600283035262000460565b603d60f81b60018303525b50505050508093505050505b919050565b6000604051905090565b600080fd5b600080fd5b600073ffffffffffffffffffffffffffffffffffffffff82169050919050565b6000620004b28262000485565b9050919050565b620004c481620004a5565b8114620004d057600080fd5b50565b600081519050620004e481620004b9565b92915050565b600080fd5b600080fd5b6000601f19601f8301169050919050565b7f4e487b7100000000000000000000000000000000000000000000000000000000600052604160045260246000fd5b6200053f82620004f4565b810181811067ffffffffffffffff8211171562000561576200056062000505565b5b80604052505050565b60006200057662000471565b905062000584828262000534565b919050565b600067ffffffffffffffff821115620005a757620005a662000505565b5b620005b282620004f4565b9050602081019050919050565b60005b83811015620005df578082015181840152602081019050620005c2565b83811115620005ef576000848401525b50505050565b60006200060c620006068462000589565b6200056a565b9050828152602081018484840111156200062b576200062a620004ef565b5b62000638848285620005bf565b509392505050565b600082601f830112620006585762000657620004ea565b5b81516200066a848260208601620005f5565b91505092915050565b6000806000606084860312156200068f576200068e6200047b565b5b60006200069f86828701620004d3565b935050602084015167ffffffffffffffff811115620006c357620006c262000480565b5b620006d18682870162000640565b925050604084015167ffffffffffffffff811115620006f557620006f462000480565b5b620007038682870162000640565b9150509250925092565b600081519050919050565b7f4e487b7100000000000000000000000000000000000000000000000000000000600052602260045260246000fd5b600060028204905060018216806200076057607f821691505b60208210810362000776576200077562000718565b5b50919050565b60008190508160005260206000209050919050565b60006020601f8301049050919050565b600082821b905092915050565b600060088302620007e07fffffffffffffffffffffffffffffffffffffffffffffffffffffffffffffffff82620007a1565b620007ec8683620007a1565b95508019841693508086168417925050509392505050565b6000819050919050565b6000819050919050565b600062000839620008336200082d8462000804565b6200080e565b62000804565b9050919050565b6000819050919050565b620008558362000818565b6200086d620008648262000840565b848454620007ae565b825550505050565b600090565b6200088462000875565b620008918184846200084a565b505050565b5b81811015620008b957620008ad6000826200087a565b60018101905062000897565b5050565b601f8211156200090857620008d2816200077c565b620008dd8462000791565b81016020851015620008ed578190505b62000905620008fc8562000791565b83018262000896565b50505b505050565b600082821c905092915050565b60006200092d600019846008026200090d565b1980831691505092915050565b60006200094883836200091a565b9150826002028217905092915050565b62000963826200070d565b67ffffffffffffffff8111156200097f576200097e62000505565b5b6200098b825462000747565b62000998828285620008bd565b600060209050601f831160018114620009d05760008415620009bb578287015190505b620009c785826200093a565b86555062000a37565b601f198416620009e0866200077c565b60005b8281101562000a0a57848901518255600182019150602085019450602081019050620009e3565b8683101562000a2a578489015162000a26601f8916826200091a565b8355505b6001600288020188555050505b505050505050565b600081905092915050565b600062000a57826200070d565b62000a63818562000a3f565b935062000a75818560208601620005bf565b80840191505092915050565b600062000a8f828462000a4a565b915081905092915050565b600062000aa8828562000a4a565b915062000ab6828462000a4a565b91508190509392505050565b7f4e487b7100000000000000000000000000000000000000000000000000000000600052601160045260246000fd5b600062000afe8262000804565b915062000b0b8362000804565b9250827fffffffffffffffffffffffffffffffffffffffffffffffffffffffffffffffff0382111562000b435762000b4262000ac2565b5b828201905092915050565b7f4e487b7100000000000000000000000000000000000000000000000000000000600052601260045260246000fd5b600062000b8a8262000804565b915062000b978362000804565b92508262000baa5762000ba962000b4e565b5b828204905092915050565b600062000bc28262000804565b915062000bcf8362000804565b9250817fffffffffffffffffffffffffffffffffffffffffffffffffffffffffffffffff048311821515161562000c0b5762000c0a62000ac2565b5b828202905092915050565b60805161333c62000c3960003960008181610a600152610bdd015261333c6000f3fe608060405234801561001057600080fd5b50600436106101425760003560e01c80638da5cb5b116100b8578063b88d4fde1161007c578063b88d4fde14610365578063c87b56dd14610381578063e2ed50cb146103b1578063e985e9c5146103cd578063ed28a122146103fd578063f2fde38b1461041b57610142565b80638da5cb5b146102bf57806395d89b41146102dd5780639e87a5cd146102fb578063a22cb46514610319578063a2e66ee91461033557610142565b806342842e0e1161010a57806342842e0e146101fd5780636352211e146102195780636e02007d1461024957806370a0823114610267578063715018a61461029757806376f6056b146102a157610142565b806301ffc9a71461014757806306fdde0314610177578063081812fc14610195578063095ea7b3146101c557806323b872dd146101e1575b600080fd5b610161600480360381019061015c9190611e3a565b610437565b60405161016e9190611e82565b60405180910390f35b61017f610519565b60405161018c9190611f36565b60405180910390f35b6101af60048036038101906101aa9190611f8e565b6105ab565b6040516101bc9190611ffc565b60405180910390f35b6101df60048036038101906101da9190612043565b6105f1565b005b6101fb60048036038101906101f69190612083565b610708565b005b61021760048036038101906102129190612083565b610768565b005b610233600480360381019061022e9190611f8e565b610788565b6040516102409190611ffc565b60405180910390f35b610251610839565b60405161025e91906120e5565b60405180910390f35b610281600480360381019061027c9190612100565b610843565b60405161028e91906120e5565b60405180910390f35b61029f6108fa565b005b6102a961090e565b6040516102b69190611f36565b60405180910390f35b6102c76109a0565b6040516102d49190611ffc565b60405180910390f35b6102e56109ca565b6040516102f29190611f36565b60405180910390f35b610303610a5c565b604051610310919061218c565b60405180910390f35b610333600480360381019061032e91906121d3565b610a84565b005b61034f600480360381019061034a9190612348565b610a9a565b60405161035c9190611f36565b60405180910390f35b61037f600480360381019061037a9190612432565b610b2d565b005b61039b60048036038101906103969190611f8e565b610b8f565b6040516103a89190611f36565b60405180910390f35b6103cb60048036038101906103c691906124eb565b610e09565b005b6103e760048036038101906103e29190612518565b610e81565b6040516103f49190611e82565b60405180910390f35b610405610f15565b6040516104129190611f36565b60405180910390f35b61043560048036038101906104309190612100565b610fa7565b005b60007f80ac58cd000000000000000000000000000000000000000000000000000000007bffffffffffffffffffffffffffffffffffffffffffffffffffffffff1916827bffffffffffffffffffffffffffffffffffffffffffffffffffffffff1916148061050257507f5b5e139f000000000000000000000000000000000000000000000000000000007bffffffffffffffffffffffffffffffffffffffffffffffffffffffff1916827bffffffffffffffffffffffffffffffffffffffffffffffffffffffff1916145b806105125750610511826111a2565b5b9050919050565b60606000805461052890612587565b80601f016020809104026020016040519081016040528092919081815260200182805461055490612587565b80156105a15780601f10610576576101008083540402835291602001916105a1565b820191906000526020600020905b81548152906001019060200180831161058457829003601f168201915b5050505050905090565b60006105b68261120c565b6004600083815260200190815260200160002060009054906101000a900473ffffffffffffffffffffffffffffffffffffffff169050919050565b60006105fc82610788565b90508073ffffffffffffffffffffffffffffffffffffffff168373ffffffffffffffffffffffffffffffffffffffff160361066c576040517f08c379a00000000000000000000000000000000000000000000000000000000081526004016106639061262a565b60405180910390fd5b8073ffffffffffffffffffffffffffffffffffffffff1661068b611257565b73ffffffffffffffffffffffffffffffffffffffff1614806106ba57506106b9816106b4611257565b610e81565b5b6106f9576040517f08c379a00000000000000000000000000000000000000000000000000000000081526004016106f0906126bc565b60405180910390fd5b610703838361125f565b505050565b610719610713611257565b82611318565b610758576040517f08c379a000000000000000000000000000000000000000000000000000000000815260040161074f9061274e565b60405180910390fd5b6107638383836113ad565b505050565b61078383838360405180602001604052806000815250610b2d565b505050565b6000806002600084815260200190815260200160002060009054906101000a900473ffffffffffffffffffffffffffffffffffffffff169050600073ffffffffffffffffffffffffffffffffffffffff168173ffffffffffffffffffffffffffffffffffffffff1603610830576040517f08c379a0000000000000000000000000000000000000000000000000000000008152600401610827906127ba565b60405180910390fd5b80915050919050565b6000600754905090565b60008073ffffffffffffffffffffffffffffffffffffffff168273ffffffffffffffffffffffffffffffffffffffff16036108b3576040517f08c379a00000000000000000000000000000000000000000000000000000000081526004016108aa9061284c565b60405180910390fd5b600360008373ffffffffffffffffffffffffffffffffffffffff1673ffffffffffffffffffffffffffffffffffffffff168152602001908152602001600020549050919050565b610902611613565b61090c6000611691565b565b60606009805461091d90612587565b80601f016020809104026020016040519081016040528092919081815260200182805461094990612587565b80156109965780601f1061096b57610100808354040283529160200191610996565b820191906000526020600020905b81548152906001019060200180831161097957829003601f168201915b5050505050905090565b6000600660009054906101000a900473ffffffffffffffffffffffffffffffffffffffff16905090565b6060600180546109d990612587565b80601f0160208091040260200160405190810160405280929190818152602001828054610a0590612587565b8015610a525780601f10610a2757610100808354040283529160200191610a52565b820191906000526020600020905b815481529060010190602001808311610a3557829003601f168201915b5050505050905090565b60007f0000000000000000000000000000000000000000000000000000000000000000905090565b610a96610a8f611257565b8383611757565b5050565b606060006040518060400160405280601a81526020017f646174613a696d6167652f7376672b786d6c3b6261736536342c00000000000081525090506000610b0084604051602001610aec91906128a8565b60405160208183030381529060405261102a565b90508181604051602001610b159291906128bf565b60405160208183030381529060405292505050919050565b610b3e610b38611257565b83611318565b610b7d576040517f08c379a0000000000000000000000000000000000000000000000000000000008152600401610b749061274e565b60405180910390fd5b610b89848484846118c3565b50505050565b6060610b9a8261191f565b610bd9576040517f08c379a0000000000000000000000000000000000000000000000000000000008152600401610bd090612955565b60405180910390fd5b60007f000000000000000000000000000000000000000000000000000000000000000073ffffffffffffffffffffffffffffffffffffffff1663feaf968c6040518163ffffffff1660e01b815260040160a060405180830381865afa158015610c46573d6000803e3d6000fd5b505050506040513d601f19601f82011682018060405250810190610c6a91906129e1565b505050915050600060088054610c7f90612587565b80601f0160208091040260200160405190810160405280929190818152602001828054610cab90612587565b8015610cf85780601f10610ccd57610100808354040283529160200191610cf8565b820191906000526020600020905b815481529060010190602001808311610cdb57829003601f168201915b50505050509050600a6000858152602001908152602001600020548212610da75760098054610d2690612587565b80601f0160208091040260200160405190810160405280929190818152602001828054610d5290612587565b8015610d9f5780601f10610d7457610100808354040283529160200191610d9f565b820191906000526020600020905b815481529060010190602001808311610d8257829003601f168201915b505050505090505b610daf61198b565b610de0610dba610519565b83604051602001610dcc929190612bfe565b60405160208183030381529060405261102a565b604051602001610df19291906128bf565b60405160208183030381529060405292505050919050565b80600a6000600754815260200190815260200160002081905550610e2f336007546119c8565b6007547f882d3b5a729a8bb95cf6c0083c99b42ecd9637123d4425bd7b768877fd8af8b082604051610e619190612c5d565b60405180910390a26001600754610e789190612ca7565b60078190555050565b6000600560008473ffffffffffffffffffffffffffffffffffffffff1673ffffffffffffffffffffffffffffffffffffffff16815260200190815260200160002060008373ffffffffffffffffffffffffffffffffffffffff1673ffffffffffffffffffffffffffffffffffffffff16815260200190815260200160002060009054906101000a900460ff16905092915050565b606060088054610f2490612587565b80601f0160208091040260200160405190810160405280929190818152602001828054610f5090612587565b8015610f9d5780601f10610f7257610100808354040283529160200191610f9d565b820191906000526020600020905b815481529060010190602001808311610f8057829003601f168201915b5050505050905090565b610faf611613565b600073ffffffffffffffffffffffffffffffffffffffff168173ffffffffffffffffffffffffffffffffffffffff160361101e576040517f08c379a000000000000000000000000000000000000000000000000000000000815260040161101590612d6f565b60405180910390fd5b61102781611691565b50565b6060600082510361104c5760405180602001604052806000815250905061119d565b60006040518060600160405280604081526020016132c7604091399050600060036002855161107b9190612ca7565b6110859190612dbe565b60046110919190612def565b905060006020826110a29190612ca7565b67ffffffffffffffff8111156110bb576110ba61221d565b5b6040519080825280601f01601f1916602001820160405280156110ed5781602001600182028036833780820191505090505b509050818152600183018586518101602084015b8183101561115c576003830192508251603f8160121c168501518253600182019150603f81600c1c168501518253600182019150603f8160061c168501518253600182019150603f8116850151825360018201915050611101565b600389510660018114611176576002811461118657611191565b613d3d60f01b6002830352611191565b603d60f81b60018303525b50505050508093505050505b919050565b60007f01ffc9a7000000000000000000000000000000000000000000000000000000007bffffffffffffffffffffffffffffffffffffffffffffffffffffffff1916827bffffffffffffffffffffffffffffffffffffffffffffffffffffffff1916149050919050565b6112158161191f565b611254576040517f08c379a000000000000000000000000000000000000000000000000000000000815260040161124b906127ba565b60405180910390fd5b50565b600033905090565b816004600083815260200190815260200160002060006101000a81548173ffffffffffffffffffffffffffffffffffffffff021916908373ffffffffffffffffffffffffffffffffffffffff160217905550808273ffffffffffffffffffffffffffffffffffffffff166112d283610788565b73ffffffffffffffffffffffffffffffffffffffff167f8c5be1e5ebec7d5bd14f71427d1e84f3dd0314c0f7b2291e5b200ac8c7c3b92560405160405180910390a45050565b60008061132483610788565b90508073ffffffffffffffffffffffffffffffffffffffff168473ffffffffffffffffffffffffffffffffffffffff16148061136657506113658185610e81565b5b806113a457508373ffffffffffffffffffffffffffffffffffffffff1661138c846105ab565b73ffffffffffffffffffffffffffffffffffffffff16145b91505092915050565b8273ffffffffffffffffffffffffffffffffffffffff166113cd82610788565b73ffffffffffffffffffffffffffffffffffffffff1614611423576040517f08c379a000000000000000000000000000000000000000000000000000000000815260040161141a90612ebb565b60405180910390fd5b600073ffffffffffffffffffffffffffffffffffffffff168273ffffffffffffffffffffffffffffffffffffffff1603611492576040517f08c379a000000000000000000000000000000000000000000000000000000000815260040161148990612f4d565b60405180910390fd5b61149d8383836119e6565b6114a860008261125f565b6001600360008573ffffffffffffffffffffffffffffffffffffffff1673ffffffffffffffffffffffffffffffffffffffff16815260200190815260200160002060008282546114f89190612f6d565b925050819055506001600360008473ffffffffffffffffffffffffffffffffffffffff1673ffffffffffffffffffffffffffffffffffffffff168152602001908152602001600020600082825461154f9190612ca7565b92505081905550816002600083815260200190815260200160002060006101000a81548173ffffffffffffffffffffffffffffffffffffffff021916908373ffffffffffffffffffffffffffffffffffffffff160217905550808273ffffffffffffffffffffffffffffffffffffffff168473ffffffffffffffffffffffffffffffffffffffff167fddf252ad1be2c89b69c2b068fc378daa952ba7f163c4a11628f55a4df523b3ef60405160405180910390a461160e8383836119eb565b505050565b61161b611257565b73ffffffffffffffffffffffffffffffffffffffff166116396109a0565b73ffffffffffffffffffffffffffffffffffffffff161461168f576040517f08c379a000000000000000000000000000000000000000000000000000000000815260040161168690612fed565b60405180910390fd5b565b6000600660009054906101000a900473ffffffffffffffffffffffffffffffffffffffff16905081600660006101000a81548173ffffffffffffffffffffffffffffffffffffffff021916908373ffffffffffffffffffffffffffffffffffffffff1602179055508173ffffffffffffffffffffffffffffffffffffffff168173ffffffffffffffffffffffffffffffffffffffff167f8be0079c531659141344cd1fd0a4f28419497f9722a3daafe3b4186f6b6457e060405160405180910390a35050565b8173ffffffffffffffffffffffffffffffffffffffff168373ffffffffffffffffffffffffffffffffffffffff16036117c5576040517f08c379a00000000000000000000000000000000000000000000000000000000081526004016117bc90613059565b60405180910390fd5b80600560008573ffffffffffffffffffffffffffffffffffffffff1673ffffffffffffffffffffffffffffffffffffffff16815260200190815260200160002060008473ffffffffffffffffffffffffffffffffffffffff1673ffffffffffffffffffffffffffffffffffffffff16815260200190815260200160002060006101000a81548160ff0219169083151502179055508173ffffffffffffffffffffffffffffffffffffffff168373ffffffffffffffffffffffffffffffffffffffff167f17307eab39ab6107e8899845ad3d59bd9653f200f220920489ca2b5937696c31836040516118b69190611e82565b60405180910390a3505050565b6118ce8484846113ad565b6118da848484846119f0565b611919576040517f08c379a0000000000000000000000000000000000000000000000000000000008152600401611910906130eb565b60405180910390fd5b50505050565b60008073ffffffffffffffffffffffffffffffffffffffff166002600084815260200190815260200160002060009054906101000a900473ffffffffffffffffffffffffffffffffffffffff1673ffffffffffffffffffffffffffffffffffffffff1614159050919050565b60606040518060400160405280601d81526020017f646174613a6170706c69636174696f6e2f6a736f6e3b6261736536342c000000815250905090565b6119e2828260405180602001604052806000815250611b77565b5050565b505050565b505050565b6000611a118473ffffffffffffffffffffffffffffffffffffffff16611bd2565b15611b6a578373ffffffffffffffffffffffffffffffffffffffff1663150b7a02611a3a611257565b8786866040518563ffffffff1660e01b8152600401611a5c9493929190613160565b6020604051808303816000875af1925050508015611a9857506040513d601f19601f82011682018060405250810190611a9591906131c1565b60015b611b1a573d8060008114611ac8576040519150601f19603f3d011682016040523d82523d6000602084013e611acd565b606091505b506000815103611b12576040517f08c379a0000000000000000000000000000000000000000000000000000000008152600401611b09906130eb565b60405180910390fd5b805181602001fd5b63150b7a0260e01b7bffffffffffffffffffffffffffffffffffffffffffffffffffffffff1916817bffffffffffffffffffffffffffffffffffffffffffffffffffffffff191614915050611b6f565b600190505b949350505050565b611b818383611bf5565b611b8e60008484846119f0565b611bcd576040517f08c379a0000000000000000000000000000000000000000000000000000000008152600401611bc4906130eb565b60405180910390fd5b505050565b6000808273ffffffffffffffffffffffffffffffffffffffff163b119050919050565b600073ffffffffffffffffffffffffffffffffffffffff168273ffffffffffffffffffffffffffffffffffffffff1603611c64576040517f08c379a0000000000000000000000000000000000000000000000000000000008152600401611c5b9061323a565b60405180910390fd5b611c6d8161191f565b15611cad576040517f08c379a0000000000000000000000000000000000000000000000000000000008152600401611ca4906132a6565b60405180910390fd5b611cb9600083836119e6565b6001600360008473ffffffffffffffffffffffffffffffffffffffff1673ffffffffffffffffffffffffffffffffffffffff1681526020019081526020016000206000828254611d099190612ca7565b92505081905550816002600083815260200190815260200160002060006101000a81548173ffffffffffffffffffffffffffffffffffffffff021916908373ffffffffffffffffffffffffffffffffffffffff160217905550808273ffffffffffffffffffffffffffffffffffffffff16600073ffffffffffffffffffffffffffffffffffffffff167fddf252ad1be2c89b69c2b068fc378daa952ba7f163c4a11628f55a4df523b3ef60405160405180910390a4611dca600083836119eb565b5050565b6000604051905090565b600080fd5b600080fd5b60007fffffffff0000000000000000000000000000000000000000000000000000000082169050919050565b611e1781611de2565b8114611e2257600080fd5b50565b600081359050611e3481611e0e565b92915050565b600060208284031215611e5057611e4f611dd8565b5b6000611e5e84828501611e25565b91505092915050565b60008115159050919050565b611e7c81611e67565b82525050565b6000602082019050611e976000830184611e73565b92915050565b600081519050919050565b600082825260208201905092915050565b60005b83811015611ed7578082015181840152602081019050611ebc565b83811115611ee6576000848401525b50505050565b6000601f19601f8301169050919050565b6000611f0882611e9d565b611f128185611ea8565b9350611f22818560208601611eb9565b611f2b81611eec565b840191505092915050565b60006020820190508181036000830152611f508184611efd565b905092915050565b6000819050919050565b611f6b81611f58565b8114611f7657600080fd5b50565b600081359050611f8881611f62565b92915050565b600060208284031215611fa457611fa3611dd8565b5b6000611fb284828501611f79565b91505092915050565b600073ffffffffffffffffffffffffffffffffffffffff82169050919050565b6000611fe682611fbb565b9050919050565b611ff681611fdb565b82525050565b60006020820190506120116000830184611fed565b92915050565b61202081611fdb565b811461202b57600080fd5b50565b60008135905061203d81612017565b92915050565b6000806040838503121561205a57612059611dd8565b5b60006120688582860161202e565b925050602061207985828601611f79565b9150509250929050565b60008060006060848603121561209c5761209b611dd8565b5b60006120aa8682870161202e565b93505060206120bb8682870161202e565b92505060406120cc86828701611f79565b9150509250925092565b6120df81611f58565b82525050565b60006020820190506120fa60008301846120d6565b92915050565b60006020828403121561211657612115611dd8565b5b60006121248482850161202e565b91505092915050565b6000819050919050565b600061215261214d61214884611fbb565b61212d565b611fbb565b9050919050565b600061216482612137565b9050919050565b600061217682612159565b9050919050565b6121868161216b565b82525050565b60006020820190506121a1600083018461217d565b92915050565b6121b081611e67565b81146121bb57600080fd5b50565b6000813590506121cd816121a7565b92915050565b600080604083850312156121ea576121e9611dd8565b5b60006121f88582860161202e565b9250506020612209858286016121be565b9150509250929050565b600080fd5b600080fd5b7f4e487b7100000000000000000000000000000000000000000000000000000000600052604160045260246000fd5b61225582611eec565b810181811067ffffffffffffffff821117156122745761227361221d565b5b80604052505050565b6000612287611dce565b9050612293828261224c565b919050565b600067ffffffffffffffff8211156122b3576122b261221d565b5b6122bc82611eec565b9050602081019050919050565b82818337600083830152505050565b60006122eb6122e684612298565b61227d565b90508281526020810184848401111561230757612306612218565b5b6123128482856122c9565b509392505050565b600082601f83011261232f5761232e612213565b5b813561233f8482602086016122d8565b91505092915050565b60006020828403121561235e5761235d611dd8565b5b600082013567ffffffffffffffff81111561237c5761237b611ddd565b5b6123888482850161231a565b91505092915050565b600067ffffffffffffffff8211156123ac576123ab61221d565b5b6123b582611eec565b9050602081019050919050565b60006123d56123d084612391565b61227d565b9050828152602081018484840111156123f1576123f0612218565b5b6123fc8482856122c9565b509392505050565b600082601f83011261241957612418612213565b5b81356124298482602086016123c2565b91505092915050565b6000806000806080858703121561244c5761244b611dd8565b5b600061245a8782880161202e565b945050602061246b8782880161202e565b935050604061247c87828801611f79565b925050606085013567ffffffffffffffff81111561249d5761249c611ddd565b5b6124a987828801612404565b91505092959194509250565b6000819050919050565b6124c8816124b5565b81146124d357600080fd5b50565b6000813590506124e5816124bf565b92915050565b60006020828403121561250157612500611dd8565b5b600061250f848285016124d6565b91505092915050565b6000806040838503121561252f5761252e611dd8565b5b600061253d8582860161202e565b925050602061254e8582860161202e565b9150509250929050565b7f4e487b7100000000000000000000000000000000000000000000000000000000600052602260045260246000fd5b6000600282049050600182168061259f57607f821691505b6020821081036125b2576125b1612558565b5b50919050565b7f4552433732313a20617070726f76616c20746f2063757272656e74206f776e6560008201527f7200000000000000000000000000000000000000000000000000000000000000602082015250565b6000612614602183611ea8565b915061261f826125b8565b604082019050919050565b6000602082019050818103600083015261264381612607565b9050919050565b7f4552433732313a20617070726f76652063616c6c6572206973206e6f7420746f60008201527f6b656e206f776e6572206e6f7220617070726f76656420666f7220616c6c0000602082015250565b60006126a6603e83611ea8565b91506126b18261264a565b604082019050919050565b600060208201905081810360008301526126d581612699565b9050919050565b7f4552433732313a2063616c6c6572206973206e6f7420746f6b656e206f776e6560008201527f72206e6f7220617070726f766564000000000000000000000000000000000000602082015250565b6000612738602e83611ea8565b9150612743826126dc565b604082019050919050565b600060208201905081810360008301526127678161272b565b9050919050565b7f4552433732313a20696e76616c696420746f6b656e2049440000000000000000600082015250565b60006127a4601883611ea8565b91506127af8261276e565b602082019050919050565b600060208201905081810360008301526127d381612797565b9050919050565b7f4552433732313a2061646472657373207a65726f206973206e6f74206120766160008201527f6c6964206f776e65720000000000000000000000000000000000000000000000602082015250565b6000612836602983611ea8565b9150612841826127da565b604082019050919050565b6000602082019050818103600083015261286581612829565b9050919050565b600081905092915050565b600061288282611e9d565b61288c818561286c565b935061289c818560208601611eb9565b80840191505092915050565b60006128b48284612877565b915081905092915050565b60006128cb8285612877565b91506128d78284612877565b91508190509392505050565b7f4552433732314d657461646174613a2055524920717565727920666f72206e6f60008201527f6e6578697374656e7420746f6b656e2e00000000000000000000000000000000602082015250565b600061293f603083611ea8565b915061294a826128e3565b604082019050919050565b6000602082019050818103600083015261296e81612932565b9050919050565b600069ffffffffffffffffffff82169050919050565b61299481612975565b811461299f57600080fd5b50565b6000815190506129b18161298b565b92915050565b6000815190506129c6816124bf565b92915050565b6000815190506129db81611f62565b92915050565b600080600080600060a086880312156129fd576129fc611dd8565b5b6000612a0b888289016129a2565b9550506020612a1c888289016129b7565b9450506040612a2d888289016129cc565b9350506060612a3e888289016129cc565b9250506080612a4f888289016129a2565b9150509295509295909350565b7f7b226e616d65223a220000000000000000000000000000000000000000000000600082015250565b6000612a9260098361286c565b9150612a9d82612a5c565b600982019050919050565b7f222c226465736372697074696f6e223a22416e204e465420746861742063686160008201527f6e676573206261736564206f6e2074686520436861696e6c696e6b204665656460208201527f2e222c0000000000000000000000000000000000000000000000000000000000604082015250565b6000612b2a60438361286c565b9150612b3582612aa8565b604382019050919050565b7f2261747472696275746573223a5b7b227472616974223a2245706963222c227660008201527f616c7565223a313030307d5d2c22696d616765223a2200000000000000000000602082015250565b6000612b9c60368361286c565b9150612ba782612b40565b603682019050919050565b7f227d000000000000000000000000000000000000000000000000000000000000600082015250565b6000612be860028361286c565b9150612bf382612bb2565b600282019050919050565b6000612c0982612a85565b9150612c158285612877565b9150612c2082612b1d565b9150612c2b82612b8f565b9150612c378284612877565b9150612c4282612bdb565b91508190509392505050565b612c57816124b5565b82525050565b6000602082019050612c726000830184612c4e565b92915050565b7f4e487b7100000000000000000000000000000000000000000000000000000000600052601160045260246000fd5b6000612cb282611f58565b9150612cbd83611f58565b9250827fffffffffffffffffffffffffffffffffffffffffffffffffffffffffffffffff03821115612cf257612cf1612c78565b5b828201905092915050565b7f4f776e61626c653a206e6577206f776e657220697320746865207a65726f206160008201527f6464726573730000000000000000000000000000000000000000000000000000602082015250565b6000612d59602683611ea8565b9150612d6482612cfd565b604082019050919050565b60006020820190508181036000830152612d8881612d4c565b9050919050565b7f4e487b7100000000000000000000000000000000000000000000000000000000600052601260045260246000fd5b6000612dc982611f58565b9150612dd483611f58565b925082612de457612de3612d8f565b5b828204905092915050565b6000612dfa82611f58565b9150612e0583611f58565b9250817fffffffffffffffffffffffffffffffffffffffffffffffffffffffffffffffff0483118215151615612e3e57612e3d612c78565b5b828202905092915050565b7f4552433732313a207472616e736665722066726f6d20696e636f72726563742060008201527f6f776e6572000000000000000000000000000000000000000000000000000000602082015250565b6000612ea5602583611ea8565b9150612eb082612e49565b604082019050919050565b60006020820190508181036000830152612ed481612e98565b9050919050565b7f4552433732313a207472616e7366657220746f20746865207a65726f2061646460008201527f7265737300000000000000000000000000000000000000000000000000000000602082015250565b6000612f37602483611ea8565b9150612f4282612edb565b604082019050919050565b60006020820190508181036000830152612f6681612f2a565b9050919050565b6000612f7882611f58565b9150612f8383611f58565b925082821015612f9657612f95612c78565b5b828203905092915050565b7f4f776e61626c653a2063616c6c6572206973206e6f7420746865206f776e6572600082015250565b6000612fd7602083611ea8565b9150612fe282612fa1565b602082019050919050565b6000602082019050818103600083015261300681612fca565b9050919050565b7f4552433732313a20617070726f766520746f2063616c6c657200000000000000600082015250565b6000613043601983611ea8565b915061304e8261300d565b602082019050919050565b6000602082019050818103600083015261307281613036565b9050919050565b7f4552433732313a207472616e7366657220746f206e6f6e20455243373231526560008201527f63656976657220696d706c656d656e7465720000000000000000000000000000602082015250565b60006130d5603283611ea8565b91506130e082613079565b604082019050919050565b60006020820190508181036000830152613104816130c8565b9050919050565b600081519050919050565b600082825260208201905092915050565b60006131328261310b565b61313c8185613116565b935061314c818560208601611eb9565b61315581611eec565b840191505092915050565b60006080820190506131756000830187611fed565b6131826020830186611fed565b61318f60408301856120d6565b81810360608301526131a18184613127565b905095945050505050565b6000815190506131bb81611e0e565b92915050565b6000602082840312156131d7576131d6611dd8565b5b60006131e5848285016131ac565b91505092915050565b7f4552433732313a206d696e7420746f20746865207a65726f2061646472657373600082015250565b6000613224602083611ea8565b915061322f826131ee565b602082019050919050565b6000602082019050818103600083015261325381613217565b9050919050565b7f4552433732313a20746f6b656e20616c7265616479206d696e74656400000000600082015250565b6000613290601c83611ea8565b915061329b8261325a565b602082019050919050565b600060208201905081810360008301526132bf81613283565b905091905056fe4142434445464748494a4b4c4d4e4f505152535455565758595a6162636465666768696a6b6c6d6e6f707172737475767778797a303132333435363738392b2fa26469706673582212202aa2a12d92ed30c7611f90dc5e183c53620eb49bb4266aae204430c5fbc1f4bf64736f6c634300080f00334142434445464748494a4b4c4d4e4f505152535455565758595a6162636465666768696a6b6c6d6e6f707172737475767778797a303132333435363738392b2f",
  "devdoc": {
    "kind": "dev",
    "methods": {
      "approve(address,uint256)": {
        "details": "See {IERC721-approve}."
      },
      "balanceOf(address)": {
        "details": "See {IERC721-balanceOf}."
      },
      "getApproved(uint256)": {
        "details": "See {IERC721-getApproved}."
      },
      "isApprovedForAll(address,address)": {
        "details": "See {IERC721-isApprovedForAll}."
      },
      "name()": {
        "details": "See {IERC721Metadata-name}."
      },
      "owner()": {
        "details": "Returns the address of the current owner."
      },
      "ownerOf(uint256)": {
        "details": "See {IERC721-ownerOf}."
      },
      "renounceOwnership()": {
        "details": "Leaves the contract without owner. It will not be possible to call `onlyOwner` functions anymore. Can only be called by the current owner. NOTE: Renouncing ownership will leave the contract without an owner, thereby removing any functionality that is only available to the owner."
      },
      "safeTransferFrom(address,address,uint256)": {
        "details": "See {IERC721-safeTransferFrom}."
      },
      "safeTransferFrom(address,address,uint256,bytes)": {
        "details": "See {IERC721-safeTransferFrom}."
      },
      "setApprovalForAll(address,bool)": {
        "details": "See {IERC721-setApprovalForAll}."
      },
      "supportsInterface(bytes4)": {
        "details": "See {IERC165-supportsInterface}."
      },
      "symbol()": {
        "details": "See {IERC721Metadata-symbol}."
      },
      "tokenURI(uint256)": {
        "details": "See {IERC721Metadata-tokenURI}."
      },
      "transferFrom(address,address,uint256)": {
        "details": "See {IERC721-transferFrom}."
      },
      "transferOwnership(address)": {
        "details": "Transfers ownership of the contract to a new account (`newOwner`). Can only be called by the current owner."
      }
    },
    "version": 1
  },
  "userdoc": {
    "kind": "user",
    "methods": {},
    "version": 1
  },
  "storageLayout": {
    "storage": [
      {
        "astId": 184,
        "contract": "contracts/DynamicNFT.sol:DynamicNFT",
        "label": "_name",
        "offset": 0,
        "slot": "0",
        "type": "t_string_storage"
      },
      {
        "astId": 186,
        "contract": "contracts/DynamicNFT.sol:DynamicNFT",
        "label": "_symbol",
        "offset": 0,
        "slot": "1",
        "type": "t_string_storage"
      },
      {
        "astId": 190,
        "contract": "contracts/DynamicNFT.sol:DynamicNFT",
        "label": "_owners",
        "offset": 0,
        "slot": "2",
        "type": "t_mapping(t_uint256,t_address)"
      },
      {
        "astId": 194,
        "contract": "contracts/DynamicNFT.sol:DynamicNFT",
        "label": "_balances",
        "offset": 0,
        "slot": "3",
        "type": "t_mapping(t_address,t_uint256)"
      },
      {
        "astId": 198,
        "contract": "contracts/DynamicNFT.sol:DynamicNFT",
        "label": "_tokenApprovals",
        "offset": 0,
        "slot": "4",
        "type": "t_mapping(t_uint256,t_address)"
      },
      {
        "astId": 204,
        "contract": "contracts/DynamicNFT.sol:DynamicNFT",
        "label": "_operatorApprovals",
        "offset": 0,
        "slot": "5",
        "type": "t_mapping(t_address,t_mapping(t_address,t_bool))"
      },
      {
        "astId": 53,
        "contract": "contracts/DynamicNFT.sol:DynamicNFT",
        "label": "_owner",
        "offset": 0,
        "slot": "6",
        "type": "t_address"
      },
      {
        "astId": 1893,
        "contract": "contracts/DynamicNFT.sol:DynamicNFT",
        "label": "s_tokenCounter",
        "offset": 0,
        "slot": "7",
        "type": "t_uint256"
      },
      {
        "astId": 1895,
        "contract": "contracts/DynamicNFT.sol:DynamicNFT",
        "label": "s_lowImageURI",
        "offset": 0,
        "slot": "8",
        "type": "t_string_storage"
      },
      {
        "astId": 1897,
        "contract": "contracts/DynamicNFT.sol:DynamicNFT",
        "label": "s_highImageURI",
        "offset": 0,
        "slot": "9",
        "type": "t_string_storage"
      },
      {
        "astId": 1901,
        "contract": "contracts/DynamicNFT.sol:DynamicNFT",
        "label": "s_tokenIdToHighValue",
        "offset": 0,
        "slot": "10",
        "type": "t_mapping(t_uint256,t_int256)"
      }
    ],
    "types": {
      "t_address": {
        "encoding": "inplace",
        "label": "address",
        "numberOfBytes": "20"
      },
      "t_bool": {
        "encoding": "inplace",
        "label": "bool",
        "numberOfBytes": "1"
      },
      "t_int256": {
        "encoding": "inplace",
        "label": "int256",
        "numberOfBytes": "32"
      },
      "t_mapping(t_address,t_bool)": {
        "encoding": "mapping",
        "key": "t_address",
        "label": "mapping(address => bool)",
        "numberOfBytes": "32",
        "value": "t_bool"
      },
      "t_mapping(t_address,t_mapping(t_address,t_bool))": {
        "encoding": "mapping",
        "key": "t_address",
        "label": "mapping(address => mapping(address => bool))",
        "numberOfBytes": "32",
        "value": "t_mapping(t_address,t_bool)"
      },
      "t_mapping(t_address,t_uint256)": {
        "encoding": "mapping",
        "key": "t_address",
        "label": "mapping(address => uint256)",
        "numberOfBytes": "32",
        "value": "t_uint256"
      },
      "t_mapping(t_uint256,t_address)": {
        "encoding": "mapping",
        "key": "t_uint256",
        "label": "mapping(uint256 => address)",
        "numberOfBytes": "32",
        "value": "t_address"
      },
      "t_mapping(t_uint256,t_int256)": {
        "encoding": "mapping",
        "key": "t_uint256",
        "label": "mapping(uint256 => int256)",
        "numberOfBytes": "32",
        "value": "t_int256"
      },
      "t_string_storage": {
        "encoding": "bytes",
        "label": "string",
        "numberOfBytes": "32"
      },
      "t_uint256": {
        "encoding": "inplace",
        "label": "uint256",
        "numberOfBytes": "32"
      }
    }
  }
}